{
  "src/AVGXAMM.sol": {
    "AVGXAMM": {
      "abi": [
        {
          "inputs": [
            {
              "internalType": "address",
              "name": "avgxToken_",
              "type": "address"
            },
            {
              "internalType": "address",
              "name": "calculator_",
              "type": "address"
            },
            {
              "internalType": "address",
              "name": "baseAsset_",
              "type": "address"
            }
          ],
          "stateMutability": "nonpayable",
          "type": "constructor"
        },
        {
          "inputs": [],
          "name": "AccessControlBadConfirmation",
          "type": "error"
        },
        {
          "inputs": [
            {
              "internalType": "address",
              "name": "account",
              "type": "address"
            },
            {
              "internalType": "bytes32",
              "name": "neededRole",
              "type": "bytes32"
            }
          ],
          "name": "AccessControlUnauthorizedAccount",
          "type": "error"
        },
        {
          "inputs": [],
          "name": "DivisionByZero",
          "type": "error"
        },
        {
          "inputs": [],
          "name": "EnforcedPause",
          "type": "error"
        },
        {
          "inputs": [],
          "name": "ExpectedPause",
          "type": "error"
        },
        {
          "inputs": [],
          "name": "InsufficientLiquidity",
          "type": "error"
        },
        {
          "inputs": [],
          "name": "InvalidAmount",
          "type": "error"
        },
        {
          "inputs": [],
          "name": "MathOverflow",
          "type": "error"
        },
        {
          "inputs": [],
          "name": "ReentrancyGuardReentrantCall",
          "type": "error"
        },
        {
          "inputs": [
            {
              "internalType": "address",
              "name": "token",
              "type": "address"
            }
          ],
          "name": "SafeERC20FailedOperation",
          "type": "error"
        },
        {
          "inputs": [],
          "name": "SlippageExceeded",
          "type": "error"
        },
        {
          "anonymous": false,
          "inputs": [
            {
              "indexed": true,
              "internalType": "address",
              "name": "user",
              "type": "address"
            },
            {
              "indexed": false,
              "internalType": "uint256",
              "name": "baseIn",
              "type": "uint256"
            },
            {
              "indexed": false,
              "internalType": "uint256",
              "name": "avgxOut",
              "type": "uint256"
            },
            {
              "indexed": false,
              "internalType": "uint256",
              "name": "fee",
              "type": "uint256"
            }
          ],
          "name": "MintedWithBase",
          "type": "event"
        },
        {
          "anonymous": false,
          "inputs": [
            {
              "components": [
                {
                  "internalType": "uint256",
                  "name": "feeBps",
                  "type": "uint256"
                },
                {
                  "internalType": "uint256",
                  "name": "spreadBps",
                  "type": "uint256"
                },
                {
                  "internalType": "address",
                  "name": "feeRecipient",
                  "type": "address"
                },
                {
                  "internalType": "address",
                  "name": "treasury",
                  "type": "address"
                }
              ],
              "indexed": false,
              "internalType": "struct IAVGXAMM.AMMParams",
              "name": "params",
              "type": "tuple"
            }
          ],
          "name": "ParamsUpdated",
          "type": "event"
        },
        {
          "anonymous": false,
          "inputs": [
            {
              "indexed": false,
              "internalType": "address",
              "name": "account",
              "type": "address"
            }
          ],
          "name": "Paused",
          "type": "event"
        },
        {
          "anonymous": false,
          "inputs": [
            {
              "indexed": true,
              "internalType": "address",
              "name": "user",
              "type": "address"
            },
            {
              "indexed": false,
              "internalType": "uint256",
              "name": "avgxIn",
              "type": "uint256"
            },
            {
              "indexed": false,
              "internalType": "uint256",
              "name": "baseOut",
              "type": "uint256"
            },
            {
              "indexed": false,
              "internalType": "uint256",
              "name": "fee",
              "type": "uint256"
            }
          ],
          "name": "RedeemedForBase",
          "type": "event"
        },
        {
          "anonymous": false,
          "inputs": [
            {
              "indexed": true,
              "internalType": "bytes32",
              "name": "role",
              "type": "bytes32"
            },
            {
              "indexed": true,
              "internalType": "bytes32",
              "name": "previousAdminRole",
              "type": "bytes32"
            },
            {
              "indexed": true,
              "internalType": "bytes32",
              "name": "newAdminRole",
              "type": "bytes32"
            }
          ],
          "name": "RoleAdminChanged",
          "type": "event"
        },
        {
          "anonymous": false,
          "inputs": [
            {
              "indexed": true,
              "internalType": "bytes32",
              "name": "role",
              "type": "bytes32"
            },
            {
              "indexed": true,
              "internalType": "address",
              "name": "account",
              "type": "address"
            },
            {
              "indexed": true,
              "internalType": "address",
              "name": "sender",
              "type": "address"
            }
          ],
          "name": "RoleGranted",
          "type": "event"
        },
        {
          "anonymous": false,
          "inputs": [
            {
              "indexed": true,
              "internalType": "bytes32",
              "name": "role",
              "type": "bytes32"
            },
            {
              "indexed": true,
              "internalType": "address",
              "name": "account",
              "type": "address"
            },
            {
              "indexed": true,
              "internalType": "address",
              "name": "sender",
              "type": "address"
            }
          ],
          "name": "RoleRevoked",
          "type": "event"
        },
        {
          "anonymous": false,
          "inputs": [
            {
              "indexed": false,
              "internalType": "address",
              "name": "account",
              "type": "address"
            }
          ],
          "name": "Unpaused",
          "type": "event"
        },
        {
          "inputs": [],
          "name": "DEFAULT_ADMIN_ROLE",
          "outputs": [
            {
              "internalType": "bytes32",
              "name": "",
              "type": "bytes32"
            }
          ],
          "stateMutability": "view",
          "type": "function"
        },
        {
          "inputs": [],
          "name": "avgxToken",
          "outputs": [
            {
              "internalType": "contract IAVGXToken",
              "name": "",
              "type": "address"
            }
          ],
          "stateMutability": "view",
          "type": "function"
        },
        {
          "inputs": [],
          "name": "baseAsset",
          "outputs": [
            {
              "internalType": "contract IERC20",
              "name": "",
              "type": "address"
            }
          ],
          "stateMutability": "view",
          "type": "function"
        },
        {
          "inputs": [],
          "name": "calculator",
          "outputs": [
            {
              "internalType": "contract IAVGXCalculator",
              "name": "",
              "type": "address"
            }
          ],
          "stateMutability": "view",
          "type": "function"
        },
        {
          "inputs": [],
          "name": "getParams",
          "outputs": [
            {
              "components": [
                {
                  "internalType": "uint256",
                  "name": "feeBps",
                  "type": "uint256"
                },
                {
                  "internalType": "uint256",
                  "name": "spreadBps",
                  "type": "uint256"
                },
                {
                  "internalType": "address",
                  "name": "feeRecipient",
                  "type": "address"
                },
                {
                  "internalType": "address",
                  "name": "treasury",
                  "type": "address"
                }
              ],
              "internalType": "struct IAVGXAMM.AMMParams",
              "name": "params",
              "type": "tuple"
            }
          ],
          "stateMutability": "view",
          "type": "function"
        },
        {
          "inputs": [
            {
              "internalType": "uint256",
              "name": "baseIn",
              "type": "uint256"
            }
          ],
          "name": "getQuoteMint",
          "outputs": [
            {
              "internalType": "uint256",
              "name": "avgxOut",
              "type": "uint256"
            },
            {
              "internalType": "uint256",
              "name": "fee",
              "type": "uint256"
            }
          ],
          "stateMutability": "view",
          "type": "function"
        },
        {
          "inputs": [
            {
              "internalType": "uint256",
              "name": "avgxIn",
              "type": "uint256"
            }
          ],
          "name": "getQuoteRedeem",
          "outputs": [
            {
              "internalType": "uint256",
              "name": "baseOut",
              "type": "uint256"
            },
            {
              "internalType": "uint256",
              "name": "fee",
              "type": "uint256"
            }
          ],
          "stateMutability": "view",
          "type": "function"
        },
        {
          "inputs": [
            {
              "internalType": "bytes32",
              "name": "role",
              "type": "bytes32"
            }
          ],
          "name": "getRoleAdmin",
          "outputs": [
            {
              "internalType": "bytes32",
              "name": "",
              "type": "bytes32"
            }
          ],
          "stateMutability": "view",
          "type": "function"
        },
        {
          "inputs": [
            {
              "internalType": "bytes32",
              "name": "role",
              "type": "bytes32"
            },
            {
              "internalType": "address",
              "name": "account",
              "type": "address"
            }
          ],
          "name": "grantRole",
          "outputs": [],
          "stateMutability": "nonpayable",
          "type": "function"
        },
        {
          "inputs": [
            {
              "internalType": "bytes32",
              "name": "role",
              "type": "bytes32"
            },
            {
              "internalType": "address",
              "name": "account",
              "type": "address"
            }
          ],
          "name": "hasRole",
          "outputs": [
            {
              "internalType": "bool",
              "name": "",
              "type": "bool"
            }
          ],
          "stateMutability": "view",
          "type": "function"
        },
        {
          "inputs": [
            {
              "internalType": "uint256",
              "name": "baseIn",
              "type": "uint256"
            },
            {
              "internalType": "uint256",
              "name": "minAvgxOut",
              "type": "uint256"
            },
            {
              "internalType": "address",
              "name": "to",
              "type": "address"
            }
          ],
          "name": "mintWithBase",
          "outputs": [
            {
              "internalType": "uint256",
              "name": "avgxOut",
              "type": "uint256"
            }
          ],
          "stateMutability": "nonpayable",
          "type": "function"
        },
        {
          "inputs": [],
          "name": "pause",
          "outputs": [],
          "stateMutability": "nonpayable",
          "type": "function"
        },
        {
          "inputs": [],
          "name": "paused",
          "outputs": [
            {
              "internalType": "bool",
              "name": "",
              "type": "bool"
            }
          ],
          "stateMutability": "view",
          "type": "function"
        },
        {
          "inputs": [
            {
              "internalType": "uint256",
              "name": "avgxIn",
              "type": "uint256"
            },
            {
              "internalType": "uint256",
              "name": "minBaseOut",
              "type": "uint256"
            },
            {
              "internalType": "address",
              "name": "to",
              "type": "address"
            }
          ],
          "name": "redeemForBase",
          "outputs": [
            {
              "internalType": "uint256",
              "name": "baseOut",
              "type": "uint256"
            }
          ],
          "stateMutability": "nonpayable",
          "type": "function"
        },
        {
          "inputs": [
            {
              "internalType": "bytes32",
              "name": "role",
              "type": "bytes32"
            },
            {
              "internalType": "address",
              "name": "callerConfirmation",
              "type": "address"
            }
          ],
          "name": "renounceRole",
          "outputs": [],
          "stateMutability": "nonpayable",
          "type": "function"
        },
        {
          "inputs": [
            {
              "internalType": "bytes32",
              "name": "role",
              "type": "bytes32"
            },
            {
              "internalType": "address",
              "name": "account",
              "type": "address"
            }
          ],
          "name": "revokeRole",
          "outputs": [],
          "stateMutability": "nonpayable",
          "type": "function"
        },
        {
          "inputs": [
            {
              "internalType": "address",
              "name": "vault_",
              "type": "address"
            }
          ],
          "name": "setVault",
          "outputs": [],
          "stateMutability": "nonpayable",
          "type": "function"
        },
        {
          "inputs": [
            {
              "internalType": "bytes4",
              "name": "interfaceId",
              "type": "bytes4"
            }
          ],
          "name": "supportsInterface",
          "outputs": [
            {
              "internalType": "bool",
              "name": "",
              "type": "bool"
            }
          ],
          "stateMutability": "view",
          "type": "function"
        },
        {
          "inputs": [],
          "name": "unpause",
          "outputs": [],
          "stateMutability": "nonpayable",
          "type": "function"
        },
        {
          "inputs": [
            {
              "components": [
                {
                  "internalType": "uint256",
                  "name": "feeBps",
                  "type": "uint256"
                },
                {
                  "internalType": "uint256",
                  "name": "spreadBps",
                  "type": "uint256"
                },
                {
                  "internalType": "address",
                  "name": "feeRecipient",
                  "type": "address"
                },
                {
                  "internalType": "address",
                  "name": "treasury",
                  "type": "address"
                }
              ],
              "internalType": "struct IAVGXAMM.AMMParams",
              "name": "params",
              "type": "tuple"
            }
          ],
          "name": "updateParams",
          "outputs": [],
          "stateMutability": "nonpayable",
          "type": "function"
        },
        {
          "inputs": [],
          "name": "vault",
          "outputs": [
            {
              "internalType": "contract AVGXVault",
              "name": "",
              "type": "address"
            }
          ],
          "stateMutability": "view",
          "type": "function"
        }
      ],
      "evm": {
        "bytecode": {
          "linkReferences": {},
          "object": "60e06040523480156200001157600080fd5b50604051620017703803806200177083398101604081905262000034916200021f565b60016002556200004d6001600160a01b038416620000f5565b620000616001600160a01b038316620000f5565b620000756001600160a01b038216620000f5565b6200008260003362000153565b506001600160a01b03928316608090815291831660a05290911660c052604080519182018152601e808352600a60208401819052339284018390526060909301829052600455600591909155600680546001600160a01b0319908116831790915560078054909116909117905562000269565b6001600160a01b038116620001505760405162461bcd60e51b815260206004820152601360248201527f526f6c65733a205a65726f206164647265737300000000000000000000000000604482015260640160405180910390fd5b50565b6000828152602081815260408083206001600160a01b038516845290915281205460ff16620001f8576000838152602081815260408083206001600160a01b03861684529091529020805460ff19166001179055620001af3390565b6001600160a01b0316826001600160a01b0316847f2f8788117e7eff1d82e926ec794901d17c78024a50270940304540a733656f0d60405160405180910390a4506001620001fc565b5060005b92915050565b80516001600160a01b03811681146200021a57600080fd5b919050565b6000806000606084860312156200023557600080fd5b620002408462000202565b9250620002506020850162000202565b9150620002606040850162000202565b90509250925092565b60805160a05160c0516114a6620002ca6000396000818161032d01528181610c4e01528181610cb00152610cf2015260008181610354015281816106760152610ac90152600081816102db0152818161089b0152610d4601526114a66000f3fe608060405234801561001057600080fd5b50600436106101375760003560e01c806391d14854116100b8578063c97af5e61161007c578063c97af5e6146102d6578063cb5ff73914610315578063cdf456e114610328578063ce3e39c01461034f578063d547741f14610376578063fbfa77cf1461038957600080fd5b806391d148541461026d5780639b64fc3b14610280578063a217fddf146102a8578063a805e0f5146102b0578063c4d99bc2146102c357600080fd5b80635c975abb116100ff5780635c975abb146101c55780635e615a6b146101d05780636011544a1461023f5780636817031b146102525780638456cb591461026557600080fd5b806301ffc9a71461013c578063248a9ca3146101645780632f2ff15d1461019557806336568abe146101aa5780633f4ba83a146101bd575b600080fd5b61014f61014a36600461124e565b61039c565b60405190151581526020015b60405180910390f35b610187610172366004611278565b60009081526020819052604090206001015490565b60405190815260200161015b565b6101a86101a33660046112ad565b6103d3565b005b6101a86101b83660046112ad565b6103fe565b6101a8610436565b60015460ff1661014f565b6102326040805160808101825260008082526020820181905291810182905260608101919091525060408051608081018252600454815260055460208201526006546001600160a01b0390811692820192909252600754909116606082015290565b60405161015b91906112d9565b6101a861024d366004611313565b61046b565b6101a8610260366004611392565b610557565b6101a8610614565b61014f61027b3660046112ad565b610646565b61029361028e366004611278565b61066f565b6040805192835260208301919091520161015b565b610187600081565b6101876102be3660046113ad565b610764565b6102936102d1366004611278565b610ac2565b6102fd7f000000000000000000000000000000000000000000000000000000000000000081565b6040516001600160a01b03909116815260200161015b565b6101876103233660046113ad565b610bb2565b6102fd7f000000000000000000000000000000000000000000000000000000000000000081565b6102fd7f000000000000000000000000000000000000000000000000000000000000000081565b6101a86103843660046112ad565b610df0565b6003546102fd906001600160a01b031681565b60006001600160e01b03198216637965db0b60e01b14806103cd57506301ffc9a760e01b6001600160e01b03198316145b92915050565b6000828152602081905260409020600101546103ee81610e15565b6103f88383610e1f565b50505050565b6001600160a01b03811633146104275760405163334bd91960e11b815260040160405180910390fd5b6104318282610eb1565b505050565b7f65d7a28e3265b37a6474929f336521b332c1681b933f6cb9f3376673440d862a61046081610e15565b610468610f1c565b50565b7f7935bd0ae54bc31f548c14dba4d37c5c64b3f8ca900cb468fb8abd54d5894f5561049581610e15565b81516104a090610f6e565b6104ad8260200151610f6e565b6104c382604001516001600160a01b0316610fb5565b6104d982606001516001600160a01b0316610fb5565b81516004556020820151600555604080830151600680546001600160a01b039283166001600160a01b031991821617909155606085015160078054919093169116179055517f46ef251c0ef10f7ddea3a753076c89fade5f9a67a24da6d959fb68da1cdabf689061054b9084906112d9565b60405180910390a15050565b7f7935bd0ae54bc31f548c14dba4d37c5c64b3f8ca900cb468fb8abd54d5894f5561058181610e15565b6003546001600160a01b0316156105df5760405162461bcd60e51b815260206004820152601a60248201527f41564758414d4d3a205661756c7420616c72656164792073657400000000000060448201526064015b60405180910390fd5b6105f1826001600160a01b0316610fb5565b50600380546001600160a01b0319166001600160a01b0392909216919091179055565b7f65d7a28e3265b37a6474929f336521b332c1681b933f6cb9f3376673440d862a61063e81610e15565b610468611001565b6000918252602082815260408084206001600160a01b0393909316845291905290205460ff1690565b60008060007f00000000000000000000000000000000000000000000000000000000000000006001600160a01b03166326987b606040518163ffffffff1660e01b8152600401602060405180830381865afa1580156106d2573d6000803e3d6000fd5b505050506040513d601f19601f820116820180604052508101906106f691906113e2565b905060006127106004600101548361070e9190611411565b6107189190611428565b610722908361144a565b90506000610730868361103c565b600454909150612710906107449083611411565b61074e9190611428565b935061075a848261144a565b9450505050915091565b600061076e611095565b6107766110bd565b836000036107975760405163162908e360e11b815260040160405180910390fd5b6107a9826001600160a01b0316610fb5565b60006107b48561066f565b9092509050838210156107da57604051638199f5f360e01b815260040160405180910390fd5b60006107e6828461144a565b905080600360009054906101000a90046001600160a01b03166001600160a01b03166312065fe06040518163ffffffff1660e01b8152600401602060405180830381865afa15801561083c573d6000803e3d6000fd5b505050506040513d601f19601f8201168201806040525081019061086091906113e2565b101561087f5760405163bb55fd2760e01b815260040160405180910390fd5b60405163079cc67960e41b8152336004820152602481018790527f00000000000000000000000000000000000000000000000000000000000000006001600160a01b0316906379cc679090604401600060405180830381600087803b1580156108e757600080fd5b505af11580156108fb573d6000803e3d6000fd5b505060035460405163f3fef3a360e01b81526001600160a01b03888116600483015260248201869052909116925063f3fef3a39150604401600060405180830381600087803b15801561094d57600080fd5b505af1158015610961573d6000803e3d6000fd5b505050506000821115610a6c57600061097b600284611428565b90506000610989828561144a565b905081156109fa5760035460065460405163f3fef3a360e01b81526001600160a01b0391821660048201526024810185905291169063f3fef3a390604401600060405180830381600087803b1580156109e157600080fd5b505af11580156109f5573d6000803e3d6000fd5b505050505b8015610a695760035460075460405163f3fef3a360e01b81526001600160a01b0391821660048201526024810184905291169063f3fef3a390604401600060405180830381600087803b158015610a5057600080fd5b505af1158015610a64573d6000803e3d6000fd5b505050505b50505b604080518781526020810185905290810183905233907fc5bb42eb8f717e0d9a9c590214247246f8e74ac766178692d81b3ee05904c78d9060600160405180910390a25050610abb6001600255565b9392505050565b60008060007f00000000000000000000000000000000000000000000000000000000000000006001600160a01b03166326987b606040518163ffffffff1660e01b8152600401602060405180830381865afa158015610b25573d6000803e3d6000fd5b505050506040513d601f19601f82011682018060405250810190610b4991906113e2565b60045490915061271090610b5d9086611411565b610b679190611428565b9150600061271060046001015483610b7f9190611411565b610b899190611428565b610b93908361145d565b9050610ba981610ba3858861144a565b906110e3565b93505050915091565b6000610bbc611095565b610bc46110bd565b83600003610be55760405163162908e360e11b815260040160405180910390fd5b610bf7826001600160a01b0316610fb5565b6000610c0285610ac2565b909250905083821015610c2857604051638199f5f360e01b815260040160405180910390fd5b600354610c769033906001600160a01b0316610c44848961144a565b6001600160a01b037f000000000000000000000000000000000000000000000000000000000000000016929190611123565b8015610d20576000610c89600283611428565b90506000610c97828461144a565b90508115610cdb57600654610cdb906001600160a01b037f000000000000000000000000000000000000000000000000000000000000000081169133911685611123565b8015610d1d57600754610d1d906001600160a01b037f000000000000000000000000000000000000000000000000000000000000000081169133911684611123565b50505b6040516340c10f1960e01b81526001600160a01b038481166004830152602482018490527f000000000000000000000000000000000000000000000000000000000000000016906340c10f1990604401600060405180830381600087803b158015610d8a57600080fd5b505af1158015610d9e573d6000803e3d6000fd5b505060408051888152602081018690529081018490523392507f66fa0fb2e1329e637cafdc009a8452680c58c0d101ae4c60e2152bc93f7be603915060600160405180910390a250610abb6001600255565b600082815260208190526040902060010154610e0b81610e15565b6103f88383610eb1565b610468813361117d565b6000610e2b8383610646565b610ea9576000838152602081815260408083206001600160a01b03861684529091529020805460ff19166001179055610e613390565b6001600160a01b0316826001600160a01b0316847f2f8788117e7eff1d82e926ec794901d17c78024a50270940304540a733656f0d60405160405180910390a45060016103cd565b5060006103cd565b6000610ebd8383610646565b15610ea9576000838152602081815260408083206001600160a01b0386168085529252808320805460ff1916905551339286917ff6391f5c32d9c69d2a47ea670b442974b53935d1edc7fd64eb21e047a839171b9190a45060016103cd565b610f246111ba565b6001805460ff191690557f5db9ee0a495bf2e6ff9c91a7834c1ba4fdd244a5e8aa4e537bd38aeae4b073aa335b6040516001600160a01b03909116815260200160405180910390a1565b6127108111156104685760405162461bcd60e51b8152602060048201526012602482015271526f6c65733a20496e76616c69642042505360701b60448201526064016105d6565b6001600160a01b0381166104685760405162461bcd60e51b8152602060048201526013602482015272526f6c65733a205a65726f206164647265737360681b60448201526064016105d6565b6110096110bd565b6001805460ff1916811790557f62e78cea01bee320cd4e420270b5ea74000d11b0c9f74754ebdbfc544b05a25833610f51565b60008260000361104e575060006103cd565b6110588284611411565b9050816110658483611428565b1461108357604051634eab2ea760e11b815260040160405180910390fd5b610abb670de0b6b3a764000082611428565b60028054036110b757604051633ee5aeb560e01b815260040160405180910390fd5b60028055565b60015460ff16156110e15760405163d93c066560e01b815260040160405180910390fd5b565b600081600003611106576040516323d359a360e01b815260040160405180910390fd5b81611119670de0b6b3a764000085611411565b610abb9190611428565b604080516001600160a01b0385811660248301528416604482015260648082018490528251808303909101815260849091019091526020810180516001600160e01b03166323b872dd60e01b1790526103f89085906111dd565b6111878282610646565b6111b65760405163e2517d3f60e01b81526001600160a01b0382166004820152602481018390526044016105d6565b5050565b60015460ff166110e157604051638dfc202b60e01b815260040160405180910390fd5b600080602060008451602086016000885af180611200576040513d6000823e3d81fd5b50506000513d91508115611218578060011415611225565b6001600160a01b0384163b155b156103f857604051635274afe760e01b81526001600160a01b03851660048201526024016105d6565b60006020828403121561126057600080fd5b81356001600160e01b031981168114610abb57600080fd5b60006020828403121561128a57600080fd5b5035919050565b80356001600160a01b03811681146112a857600080fd5b919050565b600080604083850312156112c057600080fd5b823591506112d060208401611291565b90509250929050565b81518152602080830151908201526040808301516001600160a01b0390811691830191909152606092830151169181019190915260800190565b60006080828403121561132557600080fd5b6040516080810181811067ffffffffffffffff8211171561135657634e487b7160e01b600052604160045260246000fd5b8060405250823581526020830135602082015261137560408401611291565b604082015261138660608401611291565b60608201529392505050565b6000602082840312156113a457600080fd5b610abb82611291565b6000806000606084860312156113c257600080fd5b83359250602084013591506113d960408501611291565b90509250925092565b6000602082840312156113f457600080fd5b5051919050565b634e487b7160e01b600052601160045260246000fd5b80820281158282048414176103cd576103cd6113fb565b60008261144557634e487b7160e01b600052601260045260246000fd5b500490565b818103818111156103cd576103cd6113fb565b808201808211156103cd576103cd6113fb56fea26469706673582212202228c6b53a5e9ef89741c060ff9f06cfcbc945841356a499dcfb913cd5f6923b64736f6c63430008180033",
          "opcodes": "PUSH1 0xE0 PUSH1 0x40 MSTORE CALLVALUE DUP1 ISZERO PUSH3 0x11 JUMPI PUSH1 0x0 DUP1 REVERT JUMPDEST POP PUSH1 0x40 MLOAD PUSH3 0x1770 CODESIZE SUB DUP1 PUSH3 0x1770 DUP4 CODECOPY DUP2 ADD PUSH1 0x40 DUP2 SWAP1 MSTORE PUSH3 0x34 SWAP2 PUSH3 0x21F JUMP JUMPDEST PUSH1 0x1 PUSH1 0x2 SSTORE PUSH3 0x4D PUSH1 0x1 PUSH1 0x1 PUSH1 0xA0 SHL SUB DUP5 AND PUSH3 0xF5 JUMP JUMPDEST PUSH3 0x61 PUSH1 0x1 PUSH1 0x1 PUSH1 0xA0 SHL SUB DUP4 AND PUSH3 0xF5 JUMP JUMPDEST PUSH3 0x75 PUSH1 0x1 PUSH1 0x1 PUSH1 0xA0 SHL SUB DUP3 AND PUSH3 0xF5 JUMP JUMPDEST PUSH3 0x82 PUSH1 0x0 CALLER PUSH3 0x153 JUMP JUMPDEST POP PUSH1 0x1 PUSH1 0x1 PUSH1 0xA0 SHL SUB SWAP3 DUP4 AND PUSH1 0x80 SWAP1 DUP2 MSTORE SWAP2 DUP4 AND PUSH1 0xA0 MSTORE SWAP1 SWAP2 AND PUSH1 0xC0 MSTORE PUSH1 0x40 DUP1 MLOAD SWAP2 DUP3 ADD DUP2 MSTORE PUSH1 0x1E DUP1 DUP4 MSTORE PUSH1 0xA PUSH1 0x20 DUP5 ADD DUP2 SWAP1 MSTORE CALLER SWAP3 DUP5 ADD DUP4 SWAP1 MSTORE PUSH1 0x60 SWAP1 SWAP4 ADD DUP3 SWAP1 MSTORE PUSH1 0x4 SSTORE PUSH1 0x5 SWAP2 SWAP1 SWAP2 SSTORE PUSH1 0x6 DUP1 SLOAD PUSH1 0x1 PUSH1 0x1 PUSH1 0xA0 SHL SUB NOT SWAP1 DUP2 AND DUP4 OR SWAP1 SWAP2 SSTORE PUSH1 0x7 DUP1 SLOAD SWAP1 SWAP2 AND SWAP1 SWAP2 OR SWAP1 SSTORE PUSH3 0x269 JUMP JUMPDEST PUSH1 0x1 PUSH1 0x1 PUSH1 0xA0 SHL SUB DUP2 AND PUSH3 0x150 JUMPI PUSH1 0x40 MLOAD PUSH3 0x461BCD PUSH1 0xE5 SHL DUP2 MSTORE PUSH1 0x20 PUSH1 0x4 DUP3 ADD MSTORE PUSH1 0x13 PUSH1 0x24 DUP3 ADD MSTORE PUSH32 0x526F6C65733A205A65726F206164647265737300000000000000000000000000 PUSH1 0x44 DUP3 ADD MSTORE PUSH1 0x64 ADD PUSH1 0x40 MLOAD DUP1 SWAP2 SUB SWAP1 REVERT JUMPDEST POP JUMP JUMPDEST PUSH1 0x0 DUP3 DUP2 MSTORE PUSH1 0x20 DUP2 DUP2 MSTORE PUSH1 0x40 DUP1 DUP4 KECCAK256 PUSH1 0x1 PUSH1 0x1 PUSH1 0xA0 SHL SUB DUP6 AND DUP5 MSTORE SWAP1 SWAP2 MSTORE DUP2 KECCAK256 SLOAD PUSH1 0xFF AND PUSH3 0x1F8 JUMPI PUSH1 0x0 DUP4 DUP2 MSTORE PUSH1 0x20 DUP2 DUP2 MSTORE PUSH1 0x40 DUP1 DUP4 KECCAK256 PUSH1 0x1 PUSH1 0x1 PUSH1 0xA0 SHL SUB DUP7 AND DUP5 MSTORE SWAP1 SWAP2 MSTORE SWAP1 KECCAK256 DUP1 SLOAD PUSH1 0xFF NOT AND PUSH1 0x1 OR SWAP1 SSTORE PUSH3 0x1AF CALLER SWAP1 JUMP JUMPDEST PUSH1 0x1 PUSH1 0x1 PUSH1 0xA0 SHL SUB AND DUP3 PUSH1 0x1 PUSH1 0x1 PUSH1 0xA0 SHL SUB AND DUP5 PUSH32 0x2F8788117E7EFF1D82E926EC794901D17C78024A50270940304540A733656F0D PUSH1 0x40 MLOAD PUSH1 0x40 MLOAD DUP1 SWAP2 SUB SWAP1 LOG4 POP PUSH1 0x1 PUSH3 0x1FC JUMP JUMPDEST POP PUSH1 0x0 JUMPDEST SWAP3 SWAP2 POP POP JUMP JUMPDEST DUP1 MLOAD PUSH1 0x1 PUSH1 0x1 PUSH1 0xA0 SHL SUB DUP2 AND DUP2 EQ PUSH3 0x21A JUMPI PUSH1 0x0 DUP1 REVERT JUMPDEST SWAP2 SWAP1 POP JUMP JUMPDEST PUSH1 0x0 DUP1 PUSH1 0x0 PUSH1 0x60 DUP5 DUP7 SUB SLT ISZERO PUSH3 0x235 JUMPI PUSH1 0x0 DUP1 REVERT JUMPDEST PUSH3 0x240 DUP5 PUSH3 0x202 JUMP JUMPDEST SWAP3 POP PUSH3 0x250 PUSH1 0x20 DUP6 ADD PUSH3 0x202 JUMP JUMPDEST SWAP2 POP PUSH3 0x260 PUSH1 0x40 DUP6 ADD PUSH3 0x202 JUMP JUMPDEST SWAP1 POP SWAP3 POP SWAP3 POP SWAP3 JUMP JUMPDEST PUSH1 0x80 MLOAD PUSH1 0xA0 MLOAD PUSH1 0xC0 MLOAD PUSH2 0x14A6 PUSH3 0x2CA PUSH1 0x0 CODECOPY PUSH1 0x0 DUP2 DUP2 PUSH2 0x32D ADD MSTORE DUP2 DUP2 PUSH2 0xC4E ADD MSTORE DUP2 DUP2 PUSH2 0xCB0 ADD MSTORE PUSH2 0xCF2 ADD MSTORE PUSH1 0x0 DUP2 DUP2 PUSH2 0x354 ADD MSTORE DUP2 DUP2 PUSH2 0x676 ADD MSTORE PUSH2 0xAC9 ADD MSTORE PUSH1 0x0 DUP2 DUP2 PUSH2 0x2DB ADD MSTORE DUP2 DUP2 PUSH2 0x89B ADD MSTORE PUSH2 0xD46 ADD MSTORE PUSH2 0x14A6 PUSH1 0x0 RETURN INVALID PUSH1 0x80 PUSH1 0x40 MSTORE CALLVALUE DUP1 ISZERO PUSH2 0x10 JUMPI PUSH1 0x0 DUP1 REVERT JUMPDEST POP PUSH1 0x4 CALLDATASIZE LT PUSH2 0x137 JUMPI PUSH1 0x0 CALLDATALOAD PUSH1 0xE0 SHR DUP1 PUSH4 0x91D14854 GT PUSH2 0xB8 JUMPI DUP1 PUSH4 0xC97AF5E6 GT PUSH2 0x7C JUMPI DUP1 PUSH4 0xC97AF5E6 EQ PUSH2 0x2D6 JUMPI DUP1 PUSH4 0xCB5FF739 EQ PUSH2 0x315 JUMPI DUP1 PUSH4 0xCDF456E1 EQ PUSH2 0x328 JUMPI DUP1 PUSH4 0xCE3E39C0 EQ PUSH2 0x34F JUMPI DUP1 PUSH4 0xD547741F EQ PUSH2 0x376 JUMPI DUP1 PUSH4 0xFBFA77CF EQ PUSH2 0x389 JUMPI PUSH1 0x0 DUP1 REVERT JUMPDEST DUP1 PUSH4 0x91D14854 EQ PUSH2 0x26D JUMPI DUP1 PUSH4 0x9B64FC3B EQ PUSH2 0x280 JUMPI DUP1 PUSH4 0xA217FDDF EQ PUSH2 0x2A8 JUMPI DUP1 PUSH4 0xA805E0F5 EQ PUSH2 0x2B0 JUMPI DUP1 PUSH4 0xC4D99BC2 EQ PUSH2 0x2C3 JUMPI PUSH1 0x0 DUP1 REVERT JUMPDEST DUP1 PUSH4 0x5C975ABB GT PUSH2 0xFF JUMPI DUP1 PUSH4 0x5C975ABB EQ PUSH2 0x1C5 JUMPI DUP1 PUSH4 0x5E615A6B EQ PUSH2 0x1D0 JUMPI DUP1 PUSH4 0x6011544A EQ PUSH2 0x23F JUMPI DUP1 PUSH4 0x6817031B EQ PUSH2 0x252 JUMPI DUP1 PUSH4 0x8456CB59 EQ PUSH2 0x265 JUMPI PUSH1 0x0 DUP1 REVERT JUMPDEST DUP1 PUSH4 0x1FFC9A7 EQ PUSH2 0x13C JUMPI DUP1 PUSH4 0x248A9CA3 EQ PUSH2 0x164 JUMPI DUP1 PUSH4 0x2F2FF15D EQ PUSH2 0x195 JUMPI DUP1 PUSH4 0x36568ABE EQ PUSH2 0x1AA JUMPI DUP1 PUSH4 0x3F4BA83A EQ PUSH2 0x1BD JUMPI JUMPDEST PUSH1 0x0 DUP1 REVERT JUMPDEST PUSH2 0x14F PUSH2 0x14A CALLDATASIZE PUSH1 0x4 PUSH2 0x124E JUMP JUMPDEST PUSH2 0x39C JUMP JUMPDEST PUSH1 0x40 MLOAD SWAP1 ISZERO ISZERO DUP2 MSTORE PUSH1 0x20 ADD JUMPDEST PUSH1 0x40 MLOAD DUP1 SWAP2 SUB SWAP1 RETURN JUMPDEST PUSH2 0x187 PUSH2 0x172 CALLDATASIZE PUSH1 0x4 PUSH2 0x1278 JUMP JUMPDEST PUSH1 0x0 SWAP1 DUP2 MSTORE PUSH1 0x20 DUP2 SWAP1 MSTORE PUSH1 0x40 SWAP1 KECCAK256 PUSH1 0x1 ADD SLOAD SWAP1 JUMP JUMPDEST PUSH1 0x40 MLOAD SWAP1 DUP2 MSTORE PUSH1 0x20 ADD PUSH2 0x15B JUMP JUMPDEST PUSH2 0x1A8 PUSH2 0x1A3 CALLDATASIZE PUSH1 0x4 PUSH2 0x12AD JUMP JUMPDEST PUSH2 0x3D3 JUMP JUMPDEST STOP JUMPDEST PUSH2 0x1A8 PUSH2 0x1B8 CALLDATASIZE PUSH1 0x4 PUSH2 0x12AD JUMP JUMPDEST PUSH2 0x3FE JUMP JUMPDEST PUSH2 0x1A8 PUSH2 0x436 JUMP JUMPDEST PUSH1 0x1 SLOAD PUSH1 0xFF AND PUSH2 0x14F JUMP JUMPDEST PUSH2 0x232 PUSH1 0x40 DUP1 MLOAD PUSH1 0x80 DUP2 ADD DUP3 MSTORE PUSH1 0x0 DUP1 DUP3 MSTORE PUSH1 0x20 DUP3 ADD DUP2 SWAP1 MSTORE SWAP2 DUP2 ADD DUP3 SWAP1 MSTORE PUSH1 0x60 DUP2 ADD SWAP2 SWAP1 SWAP2 MSTORE POP PUSH1 0x40 DUP1 MLOAD PUSH1 0x80 DUP2 ADD DUP3 MSTORE PUSH1 0x4 SLOAD DUP2 MSTORE PUSH1 0x5 SLOAD PUSH1 0x20 DUP3 ADD MSTORE PUSH1 0x6 SLOAD PUSH1 0x1 PUSH1 0x1 PUSH1 0xA0 SHL SUB SWAP1 DUP2 AND SWAP3 DUP3 ADD SWAP3 SWAP1 SWAP3 MSTORE PUSH1 0x7 SLOAD SWAP1 SWAP2 AND PUSH1 0x60 DUP3 ADD MSTORE SWAP1 JUMP JUMPDEST PUSH1 0x40 MLOAD PUSH2 0x15B SWAP2 SWAP1 PUSH2 0x12D9 JUMP JUMPDEST PUSH2 0x1A8 PUSH2 0x24D CALLDATASIZE PUSH1 0x4 PUSH2 0x1313 JUMP JUMPDEST PUSH2 0x46B JUMP JUMPDEST PUSH2 0x1A8 PUSH2 0x260 CALLDATASIZE PUSH1 0x4 PUSH2 0x1392 JUMP JUMPDEST PUSH2 0x557 JUMP JUMPDEST PUSH2 0x1A8 PUSH2 0x614 JUMP JUMPDEST PUSH2 0x14F PUSH2 0x27B CALLDATASIZE PUSH1 0x4 PUSH2 0x12AD JUMP JUMPDEST PUSH2 0x646 JUMP JUMPDEST PUSH2 0x293 PUSH2 0x28E CALLDATASIZE PUSH1 0x4 PUSH2 0x1278 JUMP JUMPDEST PUSH2 0x66F JUMP JUMPDEST PUSH1 0x40 DUP1 MLOAD SWAP3 DUP4 MSTORE PUSH1 0x20 DUP4 ADD SWAP2 SWAP1 SWAP2 MSTORE ADD PUSH2 0x15B JUMP JUMPDEST PUSH2 0x187 PUSH1 0x0 DUP2 JUMP JUMPDEST PUSH2 0x187 PUSH2 0x2BE CALLDATASIZE PUSH1 0x4 PUSH2 0x13AD JUMP JUMPDEST PUSH2 0x764 JUMP JUMPDEST PUSH2 0x293 PUSH2 0x2D1 CALLDATASIZE PUSH1 0x4 PUSH2 0x1278 JUMP JUMPDEST PUSH2 0xAC2 JUMP JUMPDEST PUSH2 0x2FD PUSH32 0x0 DUP2 JUMP JUMPDEST PUSH1 0x40 MLOAD PUSH1 0x1 PUSH1 0x1 PUSH1 0xA0 SHL SUB SWAP1 SWAP2 AND DUP2 MSTORE PUSH1 0x20 ADD PUSH2 0x15B JUMP JUMPDEST PUSH2 0x187 PUSH2 0x323 CALLDATASIZE PUSH1 0x4 PUSH2 0x13AD JUMP JUMPDEST PUSH2 0xBB2 JUMP JUMPDEST PUSH2 0x2FD PUSH32 0x0 DUP2 JUMP JUMPDEST PUSH2 0x2FD PUSH32 0x0 DUP2 JUMP JUMPDEST PUSH2 0x1A8 PUSH2 0x384 CALLDATASIZE PUSH1 0x4 PUSH2 0x12AD JUMP JUMPDEST PUSH2 0xDF0 JUMP JUMPDEST PUSH1 0x3 SLOAD PUSH2 0x2FD SWAP1 PUSH1 0x1 PUSH1 0x1 PUSH1 0xA0 SHL SUB AND DUP2 JUMP JUMPDEST PUSH1 0x0 PUSH1 0x1 PUSH1 0x1 PUSH1 0xE0 SHL SUB NOT DUP3 AND PUSH4 0x7965DB0B PUSH1 0xE0 SHL EQ DUP1 PUSH2 0x3CD JUMPI POP PUSH4 0x1FFC9A7 PUSH1 0xE0 SHL PUSH1 0x1 PUSH1 0x1 PUSH1 0xE0 SHL SUB NOT DUP4 AND EQ JUMPDEST SWAP3 SWAP2 POP POP JUMP JUMPDEST PUSH1 0x0 DUP3 DUP2 MSTORE PUSH1 0x20 DUP2 SWAP1 MSTORE PUSH1 0x40 SWAP1 KECCAK256 PUSH1 0x1 ADD SLOAD PUSH2 0x3EE DUP2 PUSH2 0xE15 JUMP JUMPDEST PUSH2 0x3F8 DUP4 DUP4 PUSH2 0xE1F JUMP JUMPDEST POP POP POP POP JUMP JUMPDEST PUSH1 0x1 PUSH1 0x1 PUSH1 0xA0 SHL SUB DUP2 AND CALLER EQ PUSH2 0x427 JUMPI PUSH1 0x40 MLOAD PUSH4 0x334BD919 PUSH1 0xE1 SHL DUP2 MSTORE PUSH1 0x4 ADD PUSH1 0x40 MLOAD DUP1 SWAP2 SUB SWAP1 REVERT JUMPDEST PUSH2 0x431 DUP3 DUP3 PUSH2 0xEB1 JUMP JUMPDEST POP POP POP JUMP JUMPDEST PUSH32 0x65D7A28E3265B37A6474929F336521B332C1681B933F6CB9F3376673440D862A PUSH2 0x460 DUP2 PUSH2 0xE15 JUMP JUMPDEST PUSH2 0x468 PUSH2 0xF1C JUMP JUMPDEST POP JUMP JUMPDEST PUSH32 0x7935BD0AE54BC31F548C14DBA4D37C5C64B3F8CA900CB468FB8ABD54D5894F55 PUSH2 0x495 DUP2 PUSH2 0xE15 JUMP JUMPDEST DUP2 MLOAD PUSH2 0x4A0 SWAP1 PUSH2 0xF6E JUMP JUMPDEST PUSH2 0x4AD DUP3 PUSH1 0x20 ADD MLOAD PUSH2 0xF6E JUMP JUMPDEST PUSH2 0x4C3 DUP3 PUSH1 0x40 ADD MLOAD PUSH1 0x1 PUSH1 0x1 PUSH1 0xA0 SHL SUB AND PUSH2 0xFB5 JUMP JUMPDEST PUSH2 0x4D9 DUP3 PUSH1 0x60 ADD MLOAD PUSH1 0x1 PUSH1 0x1 PUSH1 0xA0 SHL SUB AND PUSH2 0xFB5 JUMP JUMPDEST DUP2 MLOAD PUSH1 0x4 SSTORE PUSH1 0x20 DUP3 ADD MLOAD PUSH1 0x5 SSTORE PUSH1 0x40 DUP1 DUP4 ADD MLOAD PUSH1 0x6 DUP1 SLOAD PUSH1 0x1 PUSH1 0x1 PUSH1 0xA0 SHL SUB SWAP3 DUP4 AND PUSH1 0x1 PUSH1 0x1 PUSH1 0xA0 SHL SUB NOT SWAP2 DUP3 AND OR SWAP1 SWAP2 SSTORE PUSH1 0x60 DUP6 ADD MLOAD PUSH1 0x7 DUP1 SLOAD SWAP2 SWAP1 SWAP4 AND SWAP2 AND OR SWAP1 SSTORE MLOAD PUSH32 0x46EF251C0EF10F7DDEA3A753076C89FADE5F9A67A24DA6D959FB68DA1CDABF68 SWAP1 PUSH2 0x54B SWAP1 DUP5 SWAP1 PUSH2 0x12D9 JUMP JUMPDEST PUSH1 0x40 MLOAD DUP1 SWAP2 SUB SWAP1 LOG1 POP POP JUMP JUMPDEST PUSH32 0x7935BD0AE54BC31F548C14DBA4D37C5C64B3F8CA900CB468FB8ABD54D5894F55 PUSH2 0x581 DUP2 PUSH2 0xE15 JUMP JUMPDEST PUSH1 0x3 SLOAD PUSH1 0x1 PUSH1 0x1 PUSH1 0xA0 SHL SUB AND ISZERO PUSH2 0x5DF JUMPI PUSH1 0x40 MLOAD PUSH3 0x461BCD PUSH1 0xE5 SHL DUP2 MSTORE PUSH1 0x20 PUSH1 0x4 DUP3 ADD MSTORE PUSH1 0x1A PUSH1 0x24 DUP3 ADD MSTORE PUSH32 0x41564758414D4D3A205661756C7420616C726561647920736574000000000000 PUSH1 0x44 DUP3 ADD MSTORE PUSH1 0x64 ADD JUMPDEST PUSH1 0x40 MLOAD DUP1 SWAP2 SUB SWAP1 REVERT JUMPDEST PUSH2 0x5F1 DUP3 PUSH1 0x1 PUSH1 0x1 PUSH1 0xA0 SHL SUB AND PUSH2 0xFB5 JUMP JUMPDEST POP PUSH1 0x3 DUP1 SLOAD PUSH1 0x1 PUSH1 0x1 PUSH1 0xA0 SHL SUB NOT AND PUSH1 0x1 PUSH1 0x1 PUSH1 0xA0 SHL SUB SWAP3 SWAP1 SWAP3 AND SWAP2 SWAP1 SWAP2 OR SWAP1 SSTORE JUMP JUMPDEST PUSH32 0x65D7A28E3265B37A6474929F336521B332C1681B933F6CB9F3376673440D862A PUSH2 0x63E DUP2 PUSH2 0xE15 JUMP JUMPDEST PUSH2 0x468 PUSH2 0x1001 JUMP JUMPDEST PUSH1 0x0 SWAP2 DUP3 MSTORE PUSH1 0x20 DUP3 DUP2 MSTORE PUSH1 0x40 DUP1 DUP5 KECCAK256 PUSH1 0x1 PUSH1 0x1 PUSH1 0xA0 SHL SUB SWAP4 SWAP1 SWAP4 AND DUP5 MSTORE SWAP2 SWAP1 MSTORE SWAP1 KECCAK256 SLOAD PUSH1 0xFF AND SWAP1 JUMP JUMPDEST PUSH1 0x0 DUP1 PUSH1 0x0 PUSH32 0x0 PUSH1 0x1 PUSH1 0x1 PUSH1 0xA0 SHL SUB AND PUSH4 0x26987B60 PUSH1 0x40 MLOAD DUP2 PUSH4 0xFFFFFFFF AND PUSH1 0xE0 SHL DUP2 MSTORE PUSH1 0x4 ADD PUSH1 0x20 PUSH1 0x40 MLOAD DUP1 DUP4 SUB DUP2 DUP7 GAS STATICCALL ISZERO DUP1 ISZERO PUSH2 0x6D2 JUMPI RETURNDATASIZE PUSH1 0x0 DUP1 RETURNDATACOPY RETURNDATASIZE PUSH1 0x0 REVERT JUMPDEST POP POP POP POP PUSH1 0x40 MLOAD RETURNDATASIZE PUSH1 0x1F NOT PUSH1 0x1F DUP3 ADD AND DUP3 ADD DUP1 PUSH1 0x40 MSTORE POP DUP2 ADD SWAP1 PUSH2 0x6F6 SWAP2 SWAP1 PUSH2 0x13E2 JUMP JUMPDEST SWAP1 POP PUSH1 0x0 PUSH2 0x2710 PUSH1 0x4 PUSH1 0x1 ADD SLOAD DUP4 PUSH2 0x70E SWAP2 SWAP1 PUSH2 0x1411 JUMP JUMPDEST PUSH2 0x718 SWAP2 SWAP1 PUSH2 0x1428 JUMP JUMPDEST PUSH2 0x722 SWAP1 DUP4 PUSH2 0x144A JUMP JUMPDEST SWAP1 POP PUSH1 0x0 PUSH2 0x730 DUP7 DUP4 PUSH2 0x103C JUMP JUMPDEST PUSH1 0x4 SLOAD SWAP1 SWAP2 POP PUSH2 0x2710 SWAP1 PUSH2 0x744 SWAP1 DUP4 PUSH2 0x1411 JUMP JUMPDEST PUSH2 0x74E SWAP2 SWAP1 PUSH2 0x1428 JUMP JUMPDEST SWAP4 POP PUSH2 0x75A DUP5 DUP3 PUSH2 0x144A JUMP JUMPDEST SWAP5 POP POP POP POP SWAP2 POP SWAP2 JUMP JUMPDEST PUSH1 0x0 PUSH2 0x76E PUSH2 0x1095 JUMP JUMPDEST PUSH2 0x776 PUSH2 0x10BD JUMP JUMPDEST DUP4 PUSH1 0x0 SUB PUSH2 0x797 JUMPI PUSH1 0x40 MLOAD PUSH4 0x162908E3 PUSH1 0xE1 SHL DUP2 MSTORE PUSH1 0x4 ADD PUSH1 0x40 MLOAD DUP1 SWAP2 SUB SWAP1 REVERT JUMPDEST PUSH2 0x7A9 DUP3 PUSH1 0x1 PUSH1 0x1 PUSH1 0xA0 SHL SUB AND PUSH2 0xFB5 JUMP JUMPDEST PUSH1 0x0 PUSH2 0x7B4 DUP6 PUSH2 0x66F JUMP JUMPDEST SWAP1 SWAP3 POP SWAP1 POP DUP4 DUP3 LT ISZERO PUSH2 0x7DA JUMPI PUSH1 0x40 MLOAD PUSH4 0x8199F5F3 PUSH1 0xE0 SHL DUP2 MSTORE PUSH1 0x4 ADD PUSH1 0x40 MLOAD DUP1 SWAP2 SUB SWAP1 REVERT JUMPDEST PUSH1 0x0 PUSH2 0x7E6 DUP3 DUP5 PUSH2 0x144A JUMP JUMPDEST SWAP1 POP DUP1 PUSH1 0x3 PUSH1 0x0 SWAP1 SLOAD SWAP1 PUSH2 0x100 EXP SWAP1 DIV PUSH1 0x1 PUSH1 0x1 PUSH1 0xA0 SHL SUB AND PUSH1 0x1 PUSH1 0x1 PUSH1 0xA0 SHL SUB AND PUSH4 0x12065FE0 PUSH1 0x40 MLOAD DUP2 PUSH4 0xFFFFFFFF AND PUSH1 0xE0 SHL DUP2 MSTORE PUSH1 0x4 ADD PUSH1 0x20 PUSH1 0x40 MLOAD DUP1 DUP4 SUB DUP2 DUP7 GAS STATICCALL ISZERO DUP1 ISZERO PUSH2 0x83C JUMPI RETURNDATASIZE PUSH1 0x0 DUP1 RETURNDATACOPY RETURNDATASIZE PUSH1 0x0 REVERT JUMPDEST POP POP POP POP PUSH1 0x40 MLOAD RETURNDATASIZE PUSH1 0x1F NOT PUSH1 0x1F DUP3 ADD AND DUP3 ADD DUP1 PUSH1 0x40 MSTORE POP DUP2 ADD SWAP1 PUSH2 0x860 SWAP2 SWAP1 PUSH2 0x13E2 JUMP JUMPDEST LT ISZERO PUSH2 0x87F JUMPI PUSH1 0x40 MLOAD PUSH4 0xBB55FD27 PUSH1 0xE0 SHL DUP2 MSTORE PUSH1 0x4 ADD PUSH1 0x40 MLOAD DUP1 SWAP2 SUB SWAP1 REVERT JUMPDEST PUSH1 0x40 MLOAD PUSH4 0x79CC679 PUSH1 0xE4 SHL DUP2 MSTORE CALLER PUSH1 0x4 DUP3 ADD MSTORE PUSH1 0x24 DUP2 ADD DUP8 SWAP1 MSTORE PUSH32 0x0 PUSH1 0x1 PUSH1 0x1 PUSH1 0xA0 SHL SUB AND SWAP1 PUSH4 0x79CC6790 SWAP1 PUSH1 0x44 ADD PUSH1 0x0 PUSH1 0x40 MLOAD DUP1 DUP4 SUB DUP2 PUSH1 0x0 DUP8 DUP1 EXTCODESIZE ISZERO DUP1 ISZERO PUSH2 0x8E7 JUMPI PUSH1 0x0 DUP1 REVERT JUMPDEST POP GAS CALL ISZERO DUP1 ISZERO PUSH2 0x8FB JUMPI RETURNDATASIZE PUSH1 0x0 DUP1 RETURNDATACOPY RETURNDATASIZE PUSH1 0x0 REVERT JUMPDEST POP POP PUSH1 0x3 SLOAD PUSH1 0x40 MLOAD PUSH4 0xF3FEF3A3 PUSH1 0xE0 SHL DUP2 MSTORE PUSH1 0x1 PUSH1 0x1 PUSH1 0xA0 SHL SUB DUP9 DUP2 AND PUSH1 0x4 DUP4 ADD MSTORE PUSH1 0x24 DUP3 ADD DUP7 SWAP1 MSTORE SWAP1 SWAP2 AND SWAP3 POP PUSH4 0xF3FEF3A3 SWAP2 POP PUSH1 0x44 ADD PUSH1 0x0 PUSH1 0x40 MLOAD DUP1 DUP4 SUB DUP2 PUSH1 0x0 DUP8 DUP1 EXTCODESIZE ISZERO DUP1 ISZERO PUSH2 0x94D JUMPI PUSH1 0x0 DUP1 REVERT JUMPDEST POP GAS CALL ISZERO DUP1 ISZERO PUSH2 0x961 JUMPI RETURNDATASIZE PUSH1 0x0 DUP1 RETURNDATACOPY RETURNDATASIZE PUSH1 0x0 REVERT JUMPDEST POP POP POP POP PUSH1 0x0 DUP3 GT ISZERO PUSH2 0xA6C JUMPI PUSH1 0x0 PUSH2 0x97B PUSH1 0x2 DUP5 PUSH2 0x1428 JUMP JUMPDEST SWAP1 POP PUSH1 0x0 PUSH2 0x989 DUP3 DUP6 PUSH2 0x144A JUMP JUMPDEST SWAP1 POP DUP2 ISZERO PUSH2 0x9FA JUMPI PUSH1 0x3 SLOAD PUSH1 0x6 SLOAD PUSH1 0x40 MLOAD PUSH4 0xF3FEF3A3 PUSH1 0xE0 SHL DUP2 MSTORE PUSH1 0x1 PUSH1 0x1 PUSH1 0xA0 SHL SUB SWAP2 DUP3 AND PUSH1 0x4 DUP3 ADD MSTORE PUSH1 0x24 DUP2 ADD DUP6 SWAP1 MSTORE SWAP2 AND SWAP1 PUSH4 0xF3FEF3A3 SWAP1 PUSH1 0x44 ADD PUSH1 0x0 PUSH1 0x40 MLOAD DUP1 DUP4 SUB DUP2 PUSH1 0x0 DUP8 DUP1 EXTCODESIZE ISZERO DUP1 ISZERO PUSH2 0x9E1 JUMPI PUSH1 0x0 DUP1 REVERT JUMPDEST POP GAS CALL ISZERO DUP1 ISZERO PUSH2 0x9F5 JUMPI RETURNDATASIZE PUSH1 0x0 DUP1 RETURNDATACOPY RETURNDATASIZE PUSH1 0x0 REVERT JUMPDEST POP POP POP POP JUMPDEST DUP1 ISZERO PUSH2 0xA69 JUMPI PUSH1 0x3 SLOAD PUSH1 0x7 SLOAD PUSH1 0x40 MLOAD PUSH4 0xF3FEF3A3 PUSH1 0xE0 SHL DUP2 MSTORE PUSH1 0x1 PUSH1 0x1 PUSH1 0xA0 SHL SUB SWAP2 DUP3 AND PUSH1 0x4 DUP3 ADD MSTORE PUSH1 0x24 DUP2 ADD DUP5 SWAP1 MSTORE SWAP2 AND SWAP1 PUSH4 0xF3FEF3A3 SWAP1 PUSH1 0x44 ADD PUSH1 0x0 PUSH1 0x40 MLOAD DUP1 DUP4 SUB DUP2 PUSH1 0x0 DUP8 DUP1 EXTCODESIZE ISZERO DUP1 ISZERO PUSH2 0xA50 JUMPI PUSH1 0x0 DUP1 REVERT JUMPDEST POP GAS CALL ISZERO DUP1 ISZERO PUSH2 0xA64 JUMPI RETURNDATASIZE PUSH1 0x0 DUP1 RETURNDATACOPY RETURNDATASIZE PUSH1 0x0 REVERT JUMPDEST POP POP POP POP JUMPDEST POP POP JUMPDEST PUSH1 0x40 DUP1 MLOAD DUP8 DUP2 MSTORE PUSH1 0x20 DUP2 ADD DUP6 SWAP1 MSTORE SWAP1 DUP2 ADD DUP4 SWAP1 MSTORE CALLER SWAP1 PUSH32 0xC5BB42EB8F717E0D9A9C590214247246F8E74AC766178692D81B3EE05904C78D SWAP1 PUSH1 0x60 ADD PUSH1 0x40 MLOAD DUP1 SWAP2 SUB SWAP1 LOG2 POP POP PUSH2 0xABB PUSH1 0x1 PUSH1 0x2 SSTORE JUMP JUMPDEST SWAP4 SWAP3 POP POP POP JUMP JUMPDEST PUSH1 0x0 DUP1 PUSH1 0x0 PUSH32 0x0 PUSH1 0x1 PUSH1 0x1 PUSH1 0xA0 SHL SUB AND PUSH4 0x26987B60 PUSH1 0x40 MLOAD DUP2 PUSH4 0xFFFFFFFF AND PUSH1 0xE0 SHL DUP2 MSTORE PUSH1 0x4 ADD PUSH1 0x20 PUSH1 0x40 MLOAD DUP1 DUP4 SUB DUP2 DUP7 GAS STATICCALL ISZERO DUP1 ISZERO PUSH2 0xB25 JUMPI RETURNDATASIZE PUSH1 0x0 DUP1 RETURNDATACOPY RETURNDATASIZE PUSH1 0x0 REVERT JUMPDEST POP POP POP POP PUSH1 0x40 MLOAD RETURNDATASIZE PUSH1 0x1F NOT PUSH1 0x1F DUP3 ADD AND DUP3 ADD DUP1 PUSH1 0x40 MSTORE POP DUP2 ADD SWAP1 PUSH2 0xB49 SWAP2 SWAP1 PUSH2 0x13E2 JUMP JUMPDEST PUSH1 0x4 SLOAD SWAP1 SWAP2 POP PUSH2 0x2710 SWAP1 PUSH2 0xB5D SWAP1 DUP7 PUSH2 0x1411 JUMP JUMPDEST PUSH2 0xB67 SWAP2 SWAP1 PUSH2 0x1428 JUMP JUMPDEST SWAP2 POP PUSH1 0x0 PUSH2 0x2710 PUSH1 0x4 PUSH1 0x1 ADD SLOAD DUP4 PUSH2 0xB7F SWAP2 SWAP1 PUSH2 0x1411 JUMP JUMPDEST PUSH2 0xB89 SWAP2 SWAP1 PUSH2 0x1428 JUMP JUMPDEST PUSH2 0xB93 SWAP1 DUP4 PUSH2 0x145D JUMP JUMPDEST SWAP1 POP PUSH2 0xBA9 DUP2 PUSH2 0xBA3 DUP6 DUP9 PUSH2 0x144A JUMP JUMPDEST SWAP1 PUSH2 0x10E3 JUMP JUMPDEST SWAP4 POP POP POP SWAP2 POP SWAP2 JUMP JUMPDEST PUSH1 0x0 PUSH2 0xBBC PUSH2 0x1095 JUMP JUMPDEST PUSH2 0xBC4 PUSH2 0x10BD JUMP JUMPDEST DUP4 PUSH1 0x0 SUB PUSH2 0xBE5 JUMPI PUSH1 0x40 MLOAD PUSH4 0x162908E3 PUSH1 0xE1 SHL DUP2 MSTORE PUSH1 0x4 ADD PUSH1 0x40 MLOAD DUP1 SWAP2 SUB SWAP1 REVERT JUMPDEST PUSH2 0xBF7 DUP3 PUSH1 0x1 PUSH1 0x1 PUSH1 0xA0 SHL SUB AND PUSH2 0xFB5 JUMP JUMPDEST PUSH1 0x0 PUSH2 0xC02 DUP6 PUSH2 0xAC2 JUMP JUMPDEST SWAP1 SWAP3 POP SWAP1 POP DUP4 DUP3 LT ISZERO PUSH2 0xC28 JUMPI PUSH1 0x40 MLOAD PUSH4 0x8199F5F3 PUSH1 0xE0 SHL DUP2 MSTORE PUSH1 0x4 ADD PUSH1 0x40 MLOAD DUP1 SWAP2 SUB SWAP1 REVERT JUMPDEST PUSH1 0x3 SLOAD PUSH2 0xC76 SWAP1 CALLER SWAP1 PUSH1 0x1 PUSH1 0x1 PUSH1 0xA0 SHL SUB AND PUSH2 0xC44 DUP5 DUP10 PUSH2 0x144A JUMP JUMPDEST PUSH1 0x1 PUSH1 0x1 PUSH1 0xA0 SHL SUB PUSH32 0x0 AND SWAP3 SWAP2 SWAP1 PUSH2 0x1123 JUMP JUMPDEST DUP1 ISZERO PUSH2 0xD20 JUMPI PUSH1 0x0 PUSH2 0xC89 PUSH1 0x2 DUP4 PUSH2 0x1428 JUMP JUMPDEST SWAP1 POP PUSH1 0x0 PUSH2 0xC97 DUP3 DUP5 PUSH2 0x144A JUMP JUMPDEST SWAP1 POP DUP2 ISZERO PUSH2 0xCDB JUMPI PUSH1 0x6 SLOAD PUSH2 0xCDB SWAP1 PUSH1 0x1 PUSH1 0x1 PUSH1 0xA0 SHL SUB PUSH32 0x0 DUP2 AND SWAP2 CALLER SWAP2 AND DUP6 PUSH2 0x1123 JUMP JUMPDEST DUP1 ISZERO PUSH2 0xD1D JUMPI PUSH1 0x7 SLOAD PUSH2 0xD1D SWAP1 PUSH1 0x1 PUSH1 0x1 PUSH1 0xA0 SHL SUB PUSH32 0x0 DUP2 AND SWAP2 CALLER SWAP2 AND DUP5 PUSH2 0x1123 JUMP JUMPDEST POP POP JUMPDEST PUSH1 0x40 MLOAD PUSH4 0x40C10F19 PUSH1 0xE0 SHL DUP2 MSTORE PUSH1 0x1 PUSH1 0x1 PUSH1 0xA0 SHL SUB DUP5 DUP2 AND PUSH1 0x4 DUP4 ADD MSTORE PUSH1 0x24 DUP3 ADD DUP5 SWAP1 MSTORE PUSH32 0x0 AND SWAP1 PUSH4 0x40C10F19 SWAP1 PUSH1 0x44 ADD PUSH1 0x0 PUSH1 0x40 MLOAD DUP1 DUP4 SUB DUP2 PUSH1 0x0 DUP8 DUP1 EXTCODESIZE ISZERO DUP1 ISZERO PUSH2 0xD8A JUMPI PUSH1 0x0 DUP1 REVERT JUMPDEST POP GAS CALL ISZERO DUP1 ISZERO PUSH2 0xD9E JUMPI RETURNDATASIZE PUSH1 0x0 DUP1 RETURNDATACOPY RETURNDATASIZE PUSH1 0x0 REVERT JUMPDEST POP POP PUSH1 0x40 DUP1 MLOAD DUP9 DUP2 MSTORE PUSH1 0x20 DUP2 ADD DUP7 SWAP1 MSTORE SWAP1 DUP2 ADD DUP5 SWAP1 MSTORE CALLER SWAP3 POP PUSH32 0x66FA0FB2E1329E637CAFDC009A8452680C58C0D101AE4C60E2152BC93F7BE603 SWAP2 POP PUSH1 0x60 ADD PUSH1 0x40 MLOAD DUP1 SWAP2 SUB SWAP1 LOG2 POP PUSH2 0xABB PUSH1 0x1 PUSH1 0x2 SSTORE JUMP JUMPDEST PUSH1 0x0 DUP3 DUP2 MSTORE PUSH1 0x20 DUP2 SWAP1 MSTORE PUSH1 0x40 SWAP1 KECCAK256 PUSH1 0x1 ADD SLOAD PUSH2 0xE0B DUP2 PUSH2 0xE15 JUMP JUMPDEST PUSH2 0x3F8 DUP4 DUP4 PUSH2 0xEB1 JUMP JUMPDEST PUSH2 0x468 DUP2 CALLER PUSH2 0x117D JUMP JUMPDEST PUSH1 0x0 PUSH2 0xE2B DUP4 DUP4 PUSH2 0x646 JUMP JUMPDEST PUSH2 0xEA9 JUMPI PUSH1 0x0 DUP4 DUP2 MSTORE PUSH1 0x20 DUP2 DUP2 MSTORE PUSH1 0x40 DUP1 DUP4 KECCAK256 PUSH1 0x1 PUSH1 0x1 PUSH1 0xA0 SHL SUB DUP7 AND DUP5 MSTORE SWAP1 SWAP2 MSTORE SWAP1 KECCAK256 DUP1 SLOAD PUSH1 0xFF NOT AND PUSH1 0x1 OR SWAP1 SSTORE PUSH2 0xE61 CALLER SWAP1 JUMP JUMPDEST PUSH1 0x1 PUSH1 0x1 PUSH1 0xA0 SHL SUB AND DUP3 PUSH1 0x1 PUSH1 0x1 PUSH1 0xA0 SHL SUB AND DUP5 PUSH32 0x2F8788117E7EFF1D82E926EC794901D17C78024A50270940304540A733656F0D PUSH1 0x40 MLOAD PUSH1 0x40 MLOAD DUP1 SWAP2 SUB SWAP1 LOG4 POP PUSH1 0x1 PUSH2 0x3CD JUMP JUMPDEST POP PUSH1 0x0 PUSH2 0x3CD JUMP JUMPDEST PUSH1 0x0 PUSH2 0xEBD DUP4 DUP4 PUSH2 0x646 JUMP JUMPDEST ISZERO PUSH2 0xEA9 JUMPI PUSH1 0x0 DUP4 DUP2 MSTORE PUSH1 0x20 DUP2 DUP2 MSTORE PUSH1 0x40 DUP1 DUP4 KECCAK256 PUSH1 0x1 PUSH1 0x1 PUSH1 0xA0 SHL SUB DUP7 AND DUP1 DUP6 MSTORE SWAP3 MSTORE DUP1 DUP4 KECCAK256 DUP1 SLOAD PUSH1 0xFF NOT AND SWAP1 SSTORE MLOAD CALLER SWAP3 DUP7 SWAP2 PUSH32 0xF6391F5C32D9C69D2A47EA670B442974B53935D1EDC7FD64EB21E047A839171B SWAP2 SWAP1 LOG4 POP PUSH1 0x1 PUSH2 0x3CD JUMP JUMPDEST PUSH2 0xF24 PUSH2 0x11BA JUMP JUMPDEST PUSH1 0x1 DUP1 SLOAD PUSH1 0xFF NOT AND SWAP1 SSTORE PUSH32 0x5DB9EE0A495BF2E6FF9C91A7834C1BA4FDD244A5E8AA4E537BD38AEAE4B073AA CALLER JUMPDEST PUSH1 0x40 MLOAD PUSH1 0x1 PUSH1 0x1 PUSH1 0xA0 SHL SUB SWAP1 SWAP2 AND DUP2 MSTORE PUSH1 0x20 ADD PUSH1 0x40 MLOAD DUP1 SWAP2 SUB SWAP1 LOG1 JUMP JUMPDEST PUSH2 0x2710 DUP2 GT ISZERO PUSH2 0x468 JUMPI PUSH1 0x40 MLOAD PUSH3 0x461BCD PUSH1 0xE5 SHL DUP2 MSTORE PUSH1 0x20 PUSH1 0x4 DUP3 ADD MSTORE PUSH1 0x12 PUSH1 0x24 DUP3 ADD MSTORE PUSH18 0x526F6C65733A20496E76616C696420425053 PUSH1 0x70 SHL PUSH1 0x44 DUP3 ADD MSTORE PUSH1 0x64 ADD PUSH2 0x5D6 JUMP JUMPDEST PUSH1 0x1 PUSH1 0x1 PUSH1 0xA0 SHL SUB DUP2 AND PUSH2 0x468 JUMPI PUSH1 0x40 MLOAD PUSH3 0x461BCD PUSH1 0xE5 SHL DUP2 MSTORE PUSH1 0x20 PUSH1 0x4 DUP3 ADD MSTORE PUSH1 0x13 PUSH1 0x24 DUP3 ADD MSTORE PUSH19 0x526F6C65733A205A65726F2061646472657373 PUSH1 0x68 SHL PUSH1 0x44 DUP3 ADD MSTORE PUSH1 0x64 ADD PUSH2 0x5D6 JUMP JUMPDEST PUSH2 0x1009 PUSH2 0x10BD JUMP JUMPDEST PUSH1 0x1 DUP1 SLOAD PUSH1 0xFF NOT AND DUP2 OR SWAP1 SSTORE PUSH32 0x62E78CEA01BEE320CD4E420270B5EA74000D11B0C9F74754EBDBFC544B05A258 CALLER PUSH2 0xF51 JUMP JUMPDEST PUSH1 0x0 DUP3 PUSH1 0x0 SUB PUSH2 0x104E JUMPI POP PUSH1 0x0 PUSH2 0x3CD JUMP JUMPDEST PUSH2 0x1058 DUP3 DUP5 PUSH2 0x1411 JUMP JUMPDEST SWAP1 POP DUP2 PUSH2 0x1065 DUP5 DUP4 PUSH2 0x1428 JUMP JUMPDEST EQ PUSH2 0x1083 JUMPI PUSH1 0x40 MLOAD PUSH4 0x4EAB2EA7 PUSH1 0xE1 SHL DUP2 MSTORE PUSH1 0x4 ADD PUSH1 0x40 MLOAD DUP1 SWAP2 SUB SWAP1 REVERT JUMPDEST PUSH2 0xABB PUSH8 0xDE0B6B3A7640000 DUP3 PUSH2 0x1428 JUMP JUMPDEST PUSH1 0x2 DUP1 SLOAD SUB PUSH2 0x10B7 JUMPI PUSH1 0x40 MLOAD PUSH4 0x3EE5AEB5 PUSH1 0xE0 SHL DUP2 MSTORE PUSH1 0x4 ADD PUSH1 0x40 MLOAD DUP1 SWAP2 SUB SWAP1 REVERT JUMPDEST PUSH1 0x2 DUP1 SSTORE JUMP JUMPDEST PUSH1 0x1 SLOAD PUSH1 0xFF AND ISZERO PUSH2 0x10E1 JUMPI PUSH1 0x40 MLOAD PUSH4 0xD93C0665 PUSH1 0xE0 SHL DUP2 MSTORE PUSH1 0x4 ADD PUSH1 0x40 MLOAD DUP1 SWAP2 SUB SWAP1 REVERT JUMPDEST JUMP JUMPDEST PUSH1 0x0 DUP2 PUSH1 0x0 SUB PUSH2 0x1106 JUMPI PUSH1 0x40 MLOAD PUSH4 0x23D359A3 PUSH1 0xE0 SHL DUP2 MSTORE PUSH1 0x4 ADD PUSH1 0x40 MLOAD DUP1 SWAP2 SUB SWAP1 REVERT JUMPDEST DUP2 PUSH2 0x1119 PUSH8 0xDE0B6B3A7640000 DUP6 PUSH2 0x1411 JUMP JUMPDEST PUSH2 0xABB SWAP2 SWAP1 PUSH2 0x1428 JUMP JUMPDEST PUSH1 0x40 DUP1 MLOAD PUSH1 0x1 PUSH1 0x1 PUSH1 0xA0 SHL SUB DUP6 DUP2 AND PUSH1 0x24 DUP4 ADD MSTORE DUP5 AND PUSH1 0x44 DUP3 ADD MSTORE PUSH1 0x64 DUP1 DUP3 ADD DUP5 SWAP1 MSTORE DUP3 MLOAD DUP1 DUP4 SUB SWAP1 SWAP2 ADD DUP2 MSTORE PUSH1 0x84 SWAP1 SWAP2 ADD SWAP1 SWAP2 MSTORE PUSH1 0x20 DUP2 ADD DUP1 MLOAD PUSH1 0x1 PUSH1 0x1 PUSH1 0xE0 SHL SUB AND PUSH4 0x23B872DD PUSH1 0xE0 SHL OR SWAP1 MSTORE PUSH2 0x3F8 SWAP1 DUP6 SWAP1 PUSH2 0x11DD JUMP JUMPDEST PUSH2 0x1187 DUP3 DUP3 PUSH2 0x646 JUMP JUMPDEST PUSH2 0x11B6 JUMPI PUSH1 0x40 MLOAD PUSH4 0xE2517D3F PUSH1 0xE0 SHL DUP2 MSTORE PUSH1 0x1 PUSH1 0x1 PUSH1 0xA0 SHL SUB DUP3 AND PUSH1 0x4 DUP3 ADD MSTORE PUSH1 0x24 DUP2 ADD DUP4 SWAP1 MSTORE PUSH1 0x44 ADD PUSH2 0x5D6 JUMP JUMPDEST POP POP JUMP JUMPDEST PUSH1 0x1 SLOAD PUSH1 0xFF AND PUSH2 0x10E1 JUMPI PUSH1 0x40 MLOAD PUSH4 0x8DFC202B PUSH1 0xE0 SHL DUP2 MSTORE PUSH1 0x4 ADD PUSH1 0x40 MLOAD DUP1 SWAP2 SUB SWAP1 REVERT JUMPDEST PUSH1 0x0 DUP1 PUSH1 0x20 PUSH1 0x0 DUP5 MLOAD PUSH1 0x20 DUP7 ADD PUSH1 0x0 DUP9 GAS CALL DUP1 PUSH2 0x1200 JUMPI PUSH1 0x40 MLOAD RETURNDATASIZE PUSH1 0x0 DUP3 RETURNDATACOPY RETURNDATASIZE DUP2 REVERT JUMPDEST POP POP PUSH1 0x0 MLOAD RETURNDATASIZE SWAP2 POP DUP2 ISZERO PUSH2 0x1218 JUMPI DUP1 PUSH1 0x1 EQ ISZERO PUSH2 0x1225 JUMP JUMPDEST PUSH1 0x1 PUSH1 0x1 PUSH1 0xA0 SHL SUB DUP5 AND EXTCODESIZE ISZERO JUMPDEST ISZERO PUSH2 0x3F8 JUMPI PUSH1 0x40 MLOAD PUSH4 0x5274AFE7 PUSH1 0xE0 SHL DUP2 MSTORE PUSH1 0x1 PUSH1 0x1 PUSH1 0xA0 SHL SUB DUP6 AND PUSH1 0x4 DUP3 ADD MSTORE PUSH1 0x24 ADD PUSH2 0x5D6 JUMP JUMPDEST PUSH1 0x0 PUSH1 0x20 DUP3 DUP5 SUB SLT ISZERO PUSH2 0x1260 JUMPI PUSH1 0x0 DUP1 REVERT JUMPDEST DUP2 CALLDATALOAD PUSH1 0x1 PUSH1 0x1 PUSH1 0xE0 SHL SUB NOT DUP2 AND DUP2 EQ PUSH2 0xABB JUMPI PUSH1 0x0 DUP1 REVERT JUMPDEST PUSH1 0x0 PUSH1 0x20 DUP3 DUP5 SUB SLT ISZERO PUSH2 0x128A JUMPI PUSH1 0x0 DUP1 REVERT JUMPDEST POP CALLDATALOAD SWAP2 SWAP1 POP JUMP JUMPDEST DUP1 CALLDATALOAD PUSH1 0x1 PUSH1 0x1 PUSH1 0xA0 SHL SUB DUP2 AND DUP2 EQ PUSH2 0x12A8 JUMPI PUSH1 0x0 DUP1 REVERT JUMPDEST SWAP2 SWAP1 POP JUMP JUMPDEST PUSH1 0x0 DUP1 PUSH1 0x40 DUP4 DUP6 SUB SLT ISZERO PUSH2 0x12C0 JUMPI PUSH1 0x0 DUP1 REVERT JUMPDEST DUP3 CALLDATALOAD SWAP2 POP PUSH2 0x12D0 PUSH1 0x20 DUP5 ADD PUSH2 0x1291 JUMP JUMPDEST SWAP1 POP SWAP3 POP SWAP3 SWAP1 POP JUMP JUMPDEST DUP2 MLOAD DUP2 MSTORE PUSH1 0x20 DUP1 DUP4 ADD MLOAD SWAP1 DUP3 ADD MSTORE PUSH1 0x40 DUP1 DUP4 ADD MLOAD PUSH1 0x1 PUSH1 0x1 PUSH1 0xA0 SHL SUB SWAP1 DUP2 AND SWAP2 DUP4 ADD SWAP2 SWAP1 SWAP2 MSTORE PUSH1 0x60 SWAP3 DUP4 ADD MLOAD AND SWAP2 DUP2 ADD SWAP2 SWAP1 SWAP2 MSTORE PUSH1 0x80 ADD SWAP1 JUMP JUMPDEST PUSH1 0x0 PUSH1 0x80 DUP3 DUP5 SUB SLT ISZERO PUSH2 0x1325 JUMPI PUSH1 0x0 DUP1 REVERT JUMPDEST PUSH1 0x40 MLOAD PUSH1 0x80 DUP2 ADD DUP2 DUP2 LT PUSH8 0xFFFFFFFFFFFFFFFF DUP3 GT OR ISZERO PUSH2 0x1356 JUMPI PUSH4 0x4E487B71 PUSH1 0xE0 SHL PUSH1 0x0 MSTORE PUSH1 0x41 PUSH1 0x4 MSTORE PUSH1 0x24 PUSH1 0x0 REVERT JUMPDEST DUP1 PUSH1 0x40 MSTORE POP DUP3 CALLDATALOAD DUP2 MSTORE PUSH1 0x20 DUP4 ADD CALLDATALOAD PUSH1 0x20 DUP3 ADD MSTORE PUSH2 0x1375 PUSH1 0x40 DUP5 ADD PUSH2 0x1291 JUMP JUMPDEST PUSH1 0x40 DUP3 ADD MSTORE PUSH2 0x1386 PUSH1 0x60 DUP5 ADD PUSH2 0x1291 JUMP JUMPDEST PUSH1 0x60 DUP3 ADD MSTORE SWAP4 SWAP3 POP POP POP JUMP JUMPDEST PUSH1 0x0 PUSH1 0x20 DUP3 DUP5 SUB SLT ISZERO PUSH2 0x13A4 JUMPI PUSH1 0x0 DUP1 REVERT JUMPDEST PUSH2 0xABB DUP3 PUSH2 0x1291 JUMP JUMPDEST PUSH1 0x0 DUP1 PUSH1 0x0 PUSH1 0x60 DUP5 DUP7 SUB SLT ISZERO PUSH2 0x13C2 JUMPI PUSH1 0x0 DUP1 REVERT JUMPDEST DUP4 CALLDATALOAD SWAP3 POP PUSH1 0x20 DUP5 ADD CALLDATALOAD SWAP2 POP PUSH2 0x13D9 PUSH1 0x40 DUP6 ADD PUSH2 0x1291 JUMP JUMPDEST SWAP1 POP SWAP3 POP SWAP3 POP SWAP3 JUMP JUMPDEST PUSH1 0x0 PUSH1 0x20 DUP3 DUP5 SUB SLT ISZERO PUSH2 0x13F4 JUMPI PUSH1 0x0 DUP1 REVERT JUMPDEST POP MLOAD SWAP2 SWAP1 POP JUMP JUMPDEST PUSH4 0x4E487B71 PUSH1 0xE0 SHL PUSH1 0x0 MSTORE PUSH1 0x11 PUSH1 0x4 MSTORE PUSH1 0x24 PUSH1 0x0 REVERT JUMPDEST DUP1 DUP3 MUL DUP2 ISZERO DUP3 DUP3 DIV DUP5 EQ OR PUSH2 0x3CD JUMPI PUSH2 0x3CD PUSH2 0x13FB JUMP JUMPDEST PUSH1 0x0 DUP3 PUSH2 0x1445 JUMPI PUSH4 0x4E487B71 PUSH1 0xE0 SHL PUSH1 0x0 MSTORE PUSH1 0x12 PUSH1 0x4 MSTORE PUSH1 0x24 PUSH1 0x0 REVERT JUMPDEST POP DIV SWAP1 JUMP JUMPDEST DUP2 DUP2 SUB DUP2 DUP2 GT ISZERO PUSH2 0x3CD JUMPI PUSH2 0x3CD PUSH2 0x13FB JUMP JUMPDEST DUP1 DUP3 ADD DUP1 DUP3 GT ISZERO PUSH2 0x3CD JUMPI PUSH2 0x3CD PUSH2 0x13FB JUMP INVALID LOG2 PUSH5 0x6970667358 0x22 SLT KECCAK256 0x22 0x28 0xC6 0xB5 GASPRICE MCOPY SWAP15 0xF8 SWAP8 COINBASE 0xC0 PUSH1 0xFF SWAP16 MOD 0xCF 0xCB 0xC9 GASLIMIT DUP5 SGT JUMP LOG4 SWAP10 0xDC 0xFB SWAP2 EXTCODECOPY 0xD5 0xF6 SWAP3 EXTCODESIZE PUSH5 0x736F6C6343 STOP ADDMOD XOR STOP CALLER "
        },
        "methodIdentifiers": {
          "DEFAULT_ADMIN_ROLE()": "a217fddf",
          "avgxToken()": "c97af5e6",
          "baseAsset()": "cdf456e1",
          "calculator()": "ce3e39c0",
          "getParams()": "5e615a6b",
          "getQuoteMint(uint256)": "c4d99bc2",
          "getQuoteRedeem(uint256)": "9b64fc3b",
          "getRoleAdmin(bytes32)": "248a9ca3",
          "grantRole(bytes32,address)": "2f2ff15d",
          "hasRole(bytes32,address)": "91d14854",
          "mintWithBase(uint256,uint256,address)": "cb5ff739",
          "pause()": "8456cb59",
          "paused()": "5c975abb",
          "redeemForBase(uint256,uint256,address)": "a805e0f5",
          "renounceRole(bytes32,address)": "36568abe",
          "revokeRole(bytes32,address)": "d547741f",
          "setVault(address)": "6817031b",
          "supportsInterface(bytes4)": "01ffc9a7",
          "unpause()": "3f4ba83a",
          "updateParams((uint256,uint256,address,address))": "6011544a",
          "vault()": "fbfa77cf"
        }
      },
      "storageLayout": {
        "storage": [
          {
            "astId": 27,
            "contract": "src/AVGXAMM.sol:AVGXAMM",
            "label": "_roles",
            "offset": 0,
            "slot": "0",
            "type": "t_mapping(t_bytes32,t_struct(RoleData)22_storage)"
          },
          {
            "astId": 1169,
            "contract": "src/AVGXAMM.sol:AVGXAMM",
            "label": "_paused",
            "offset": 0,
            "slot": "1",
            "type": "t_bool"
          },
          {
            "astId": 1279,
            "contract": "src/AVGXAMM.sol:AVGXAMM",
            "label": "_status",
            "offset": 0,
            "slot": "2",
            "type": "t_uint256"
          },
          {
            "astId": 1431,
            "contract": "src/AVGXAMM.sol:AVGXAMM",
            "label": "vault",
            "offset": 0,
            "slot": "3",
            "type": "t_contract(AVGXVault)2191"
          },
          {
            "astId": 1434,
            "contract": "src/AVGXAMM.sol:AVGXAMM",
            "label": "_params",
            "offset": 0,
            "slot": "4",
            "type": "t_struct(AMMParams)2203_storage"
          }
        ],
        "types": {
          "t_address": {
            "encoding": "inplace",
            "label": "address",
            "numberOfBytes": "20"
          },
          "t_bool": {
            "encoding": "inplace",
            "label": "bool",
            "numberOfBytes": "1"
          },
          "t_bytes32": {
            "encoding": "inplace",
            "label": "bytes32",
            "numberOfBytes": "32"
          },
          "t_contract(AVGXVault)2191": {
            "encoding": "inplace",
            "label": "contract AVGXVault",
            "numberOfBytes": "20"
          },
          "t_mapping(t_address,t_bool)": {
            "encoding": "mapping",
            "key": "t_address",
            "label": "mapping(address => bool)",
            "numberOfBytes": "32",
            "value": "t_bool"
          },
          "t_mapping(t_bytes32,t_struct(RoleData)22_storage)": {
            "encoding": "mapping",
            "key": "t_bytes32",
            "label": "mapping(bytes32 => struct AccessControl.RoleData)",
            "numberOfBytes": "32",
            "value": "t_struct(RoleData)22_storage"
          },
          "t_struct(AMMParams)2203_storage": {
            "encoding": "inplace",
            "label": "struct IAVGXAMM.AMMParams",
            "members": [
              {
                "astId": 2196,
                "contract": "src/AVGXAMM.sol:AVGXAMM",
                "label": "feeBps",
                "offset": 0,
                "slot": "0",
                "type": "t_uint256"
              },
              {
                "astId": 2198,
                "contract": "src/AVGXAMM.sol:AVGXAMM",
                "label": "spreadBps",
                "offset": 0,
                "slot": "1",
                "type": "t_uint256"
              },
              {
                "astId": 2200,
                "contract": "src/AVGXAMM.sol:AVGXAMM",
                "label": "feeRecipient",
                "offset": 0,
                "slot": "2",
                "type": "t_address"
              },
              {
                "astId": 2202,
                "contract": "src/AVGXAMM.sol:AVGXAMM",
                "label": "treasury",
                "offset": 0,
                "slot": "3",
                "type": "t_address"
              }
            ],
            "numberOfBytes": "128"
          },
          "t_struct(RoleData)22_storage": {
            "encoding": "inplace",
            "label": "struct AccessControl.RoleData",
            "members": [
              {
                "astId": 19,
                "contract": "src/AVGXAMM.sol:AVGXAMM",
                "label": "hasRole",
                "offset": 0,
                "slot": "0",
                "type": "t_mapping(t_address,t_bool)"
              },
              {
                "astId": 21,
                "contract": "src/AVGXAMM.sol:AVGXAMM",
                "label": "adminRole",
                "offset": 0,
                "slot": "1",
                "type": "t_bytes32"
              }
            ],
            "numberOfBytes": "64"
          },
          "t_uint256": {
            "encoding": "inplace",
            "label": "uint256",
            "numberOfBytes": "32"
          }
        }
      }
    }
  }
}