{
  "src/libraries/FixedPointMath.sol": {
    "FixedPointMath": {
      "abi": [
        {
          "inputs": [],
          "name": "DivisionByZero",
          "type": "error"
        },
        {
          "inputs": [],
          "name": "MathOverflow",
          "type": "error"
        },
        {
          "inputs": [],
          "name": "MAX_UINT256",
          "outputs": [
            {
              "internalType": "uint256",
              "name": "",
              "type": "uint256"
            }
          ],
          "stateMutability": "view",
          "type": "function"
        },
        {
          "inputs": [],
          "name": "ONE",
          "outputs": [
            {
              "internalType": "uint256",
              "name": "",
              "type": "uint256"
            }
          ],
          "stateMutability": "view",
          "type": "function"
        }
      ],
      "evm": {
        "bytecode": {
          "linkReferences": {},
          "object": "60a0610038600b82828239805160001a607314602b57634e487b7160e01b600052600060045260246000fd5b30600052607381538281f3fe7300000000000000000000000000000000000000003014608060405260043610603d5760003560e01c806333a581d2146042578063c2ee3a0814605c575b600080fd5b604a60001981565b60405190815260200160405180910390f35b604a670de0b6b3a76400008156fea2646970667358221220d342fcf5517c6c8940a477eed1674666517753f9f09ce6efa7306aad643ab31d64736f6c63430008180033",
          "opcodes": "PUSH1 0xA0 PUSH2 0x38 PUSH1 0xB DUP3 DUP3 DUP3 CODECOPY DUP1 MLOAD PUSH1 0x0 BYTE PUSH1 0x73 EQ PUSH1 0x2B JUMPI PUSH4 0x4E487B71 PUSH1 0xE0 SHL PUSH1 0x0 MSTORE PUSH1 0x0 PUSH1 0x4 MSTORE PUSH1 0x24 PUSH1 0x0 REVERT JUMPDEST ADDRESS PUSH1 0x0 MSTORE PUSH1 0x73 DUP2 MSTORE8 DUP3 DUP2 RETURN INVALID PUSH20 0x0 ADDRESS EQ PUSH1 0x80 PUSH1 0x40 MSTORE PUSH1 0x4 CALLDATASIZE LT PUSH1 0x3D JUMPI PUSH1 0x0 CALLDATALOAD PUSH1 0xE0 SHR DUP1 PUSH4 0x33A581D2 EQ PUSH1 0x42 JUMPI DUP1 PUSH4 0xC2EE3A08 EQ PUSH1 0x5C JUMPI JUMPDEST PUSH1 0x0 DUP1 REVERT JUMPDEST PUSH1 0x4A PUSH1 0x0 NOT DUP2 JUMP JUMPDEST PUSH1 0x40 MLOAD SWAP1 DUP2 MSTORE PUSH1 0x20 ADD PUSH1 0x40 MLOAD DUP1 SWAP2 SUB SWAP1 RETURN JUMPDEST PUSH1 0x4A PUSH8 0xDE0B6B3A7640000 DUP2 JUMP INVALID LOG2 PUSH5 0x6970667358 0x22 SLT KECCAK256 0xD3 TIMESTAMP 0xFC CREATE2 MLOAD PUSH29 0x6C8940A477EED1674666517753F9F09CE6EFA7306AAD643AB31D64736F PUSH13 0x63430008180033000000000000 "
        },
        "methodIdentifiers": {
          "MAX_UINT256()": "33a581d2",
          "ONE()": "c2ee3a08"
        }
      },
      "storageLayout": {
        "storage": [],
        "types": null
      }
    }
  }
}