{
  "src/AVGXOracleRouter.sol": {
    "AVGXOracleRouter": {
      "abi": [
        {
          "inputs": [],
          "stateMutability": "nonpayable",
          "type": "constructor"
        },
        {
          "inputs": [],
          "name": "AccessControlBadConfirmation",
          "type": "error"
        },
        {
          "inputs": [
            {
              "internalType": "address",
              "name": "account",
              "type": "address"
            },
            {
              "internalType": "bytes32",
              "name": "neededRole",
              "type": "bytes32"
            }
          ],
          "name": "AccessControlUnauthorizedAccount",
          "type": "error"
        },
        {
          "inputs": [],
          "name": "DivisionByZero",
          "type": "error"
        },
        {
          "inputs": [
            {
              "internalType": "bytes32",
              "name": "assetId",
              "type": "bytes32"
            }
          ],
          "name": "FeedNotFound",
          "type": "error"
        },
        {
          "inputs": [
            {
              "internalType": "bytes32",
              "name": "assetId",
              "type": "bytes32"
            }
          ],
          "name": "InvalidPrice",
          "type": "error"
        },
        {
          "inputs": [
            {
              "internalType": "bytes32",
              "name": "assetId",
              "type": "bytes32"
            }
          ],
          "name": "StalePrice",
          "type": "error"
        },
        {
          "anonymous": false,
          "inputs": [
            {
              "indexed": true,
              "internalType": "bytes32",
              "name": "assetId",
              "type": "bytes32"
            },
            {
              "indexed": false,
              "internalType": "address",
              "name": "aggregator",
              "type": "address"
            },
            {
              "indexed": false,
              "internalType": "bool",
              "name": "invert",
              "type": "bool"
            },
            {
              "indexed": false,
              "internalType": "uint8",
              "name": "decimals",
              "type": "uint8"
            }
          ],
          "name": "FeedSet",
          "type": "event"
        },
        {
          "anonymous": false,
          "inputs": [
            {
              "indexed": false,
              "internalType": "uint256",
              "name": "newMaxAge",
              "type": "uint256"
            }
          ],
          "name": "MaxAgeUpdated",
          "type": "event"
        },
        {
          "anonymous": false,
          "inputs": [
            {
              "indexed": true,
              "internalType": "bytes32",
              "name": "role",
              "type": "bytes32"
            },
            {
              "indexed": true,
              "internalType": "bytes32",
              "name": "previousAdminRole",
              "type": "bytes32"
            },
            {
              "indexed": true,
              "internalType": "bytes32",
              "name": "newAdminRole",
              "type": "bytes32"
            }
          ],
          "name": "RoleAdminChanged",
          "type": "event"
        },
        {
          "anonymous": false,
          "inputs": [
            {
              "indexed": true,
              "internalType": "bytes32",
              "name": "role",
              "type": "bytes32"
            },
            {
              "indexed": true,
              "internalType": "address",
              "name": "account",
              "type": "address"
            },
            {
              "indexed": true,
              "internalType": "address",
              "name": "sender",
              "type": "address"
            }
          ],
          "name": "RoleGranted",
          "type": "event"
        },
        {
          "anonymous": false,
          "inputs": [
            {
              "indexed": true,
              "internalType": "bytes32",
              "name": "role",
              "type": "bytes32"
            },
            {
              "indexed": true,
              "internalType": "address",
              "name": "account",
              "type": "address"
            },
            {
              "indexed": true,
              "internalType": "address",
              "name": "sender",
              "type": "address"
            }
          ],
          "name": "RoleRevoked",
          "type": "event"
        },
        {
          "inputs": [],
          "name": "DEFAULT_ADMIN_ROLE",
          "outputs": [
            {
              "internalType": "bytes32",
              "name": "",
              "type": "bytes32"
            }
          ],
          "stateMutability": "view",
          "type": "function"
        },
        {
          "inputs": [
            {
              "internalType": "bytes32",
              "name": "assetId",
              "type": "bytes32"
            }
          ],
          "name": "feedExists",
          "outputs": [
            {
              "internalType": "bool",
              "name": "exists",
              "type": "bool"
            }
          ],
          "stateMutability": "view",
          "type": "function"
        },
        {
          "inputs": [
            {
              "internalType": "bytes32",
              "name": "assetId",
              "type": "bytes32"
            }
          ],
          "name": "getFeedConfig",
          "outputs": [
            {
              "components": [
                {
                  "internalType": "address",
                  "name": "aggregator",
                  "type": "address"
                },
                {
                  "internalType": "bool",
                  "name": "invert",
                  "type": "bool"
                },
                {
                  "internalType": "uint8",
                  "name": "decimals",
                  "type": "uint8"
                },
                {
                  "internalType": "uint256",
                  "name": "maxAge",
                  "type": "uint256"
                }
              ],
              "internalType": "struct IAVGXOracleRouter.FeedConfig",
              "name": "config",
              "type": "tuple"
            }
          ],
          "stateMutability": "view",
          "type": "function"
        },
        {
          "inputs": [],
          "name": "getGlobalMaxAge",
          "outputs": [
            {
              "internalType": "uint256",
              "name": "maxAge",
              "type": "uint256"
            }
          ],
          "stateMutability": "view",
          "type": "function"
        },
        {
          "inputs": [
            {
              "internalType": "bytes32",
              "name": "role",
              "type": "bytes32"
            }
          ],
          "name": "getRoleAdmin",
          "outputs": [
            {
              "internalType": "bytes32",
              "name": "",
              "type": "bytes32"
            }
          ],
          "stateMutability": "view",
          "type": "function"
        },
        {
          "inputs": [
            {
              "internalType": "bytes32",
              "name": "role",
              "type": "bytes32"
            },
            {
              "internalType": "address",
              "name": "account",
              "type": "address"
            }
          ],
          "name": "grantRole",
          "outputs": [],
          "stateMutability": "nonpayable",
          "type": "function"
        },
        {
          "inputs": [
            {
              "internalType": "bytes32",
              "name": "role",
              "type": "bytes32"
            },
            {
              "internalType": "address",
              "name": "account",
              "type": "address"
            }
          ],
          "name": "hasRole",
          "outputs": [
            {
              "internalType": "bool",
              "name": "",
              "type": "bool"
            }
          ],
          "stateMutability": "view",
          "type": "function"
        },
        {
          "inputs": [
            {
              "internalType": "bytes32",
              "name": "assetId",
              "type": "bytes32"
            }
          ],
          "name": "latestPriceE18",
          "outputs": [
            {
              "internalType": "uint256",
              "name": "price",
              "type": "uint256"
            },
            {
              "internalType": "uint256",
              "name": "updatedAt",
              "type": "uint256"
            }
          ],
          "stateMutability": "view",
          "type": "function"
        },
        {
          "inputs": [
            {
              "internalType": "bytes32",
              "name": "role",
              "type": "bytes32"
            },
            {
              "internalType": "address",
              "name": "callerConfirmation",
              "type": "address"
            }
          ],
          "name": "renounceRole",
          "outputs": [],
          "stateMutability": "nonpayable",
          "type": "function"
        },
        {
          "inputs": [
            {
              "internalType": "bytes32",
              "name": "role",
              "type": "bytes32"
            },
            {
              "internalType": "address",
              "name": "account",
              "type": "address"
            }
          ],
          "name": "revokeRole",
          "outputs": [],
          "stateMutability": "nonpayable",
          "type": "function"
        },
        {
          "inputs": [
            {
              "internalType": "bytes32",
              "name": "assetId",
              "type": "bytes32"
            },
            {
              "internalType": "address",
              "name": "aggregator",
              "type": "address"
            },
            {
              "internalType": "bool",
              "name": "invert",
              "type": "bool"
            },
            {
              "internalType": "uint8",
              "name": "decimals",
              "type": "uint8"
            }
          ],
          "name": "setFeed",
          "outputs": [],
          "stateMutability": "nonpayable",
          "type": "function"
        },
        {
          "inputs": [
            {
              "internalType": "uint256",
              "name": "maxAge",
              "type": "uint256"
            }
          ],
          "name": "setMaxAge",
          "outputs": [],
          "stateMutability": "nonpayable",
          "type": "function"
        },
        {
          "inputs": [
            {
              "internalType": "bytes4",
              "name": "interfaceId",
              "type": "bytes4"
            }
          ],
          "name": "supportsInterface",
          "outputs": [
            {
              "internalType": "bool",
              "name": "",
              "type": "bool"
            }
          ],
          "stateMutability": "view",
          "type": "function"
        }
      ],
      "evm": {
        "bytecode": {
          "linkReferences": {},
          "object": "6080604052610e1060025534801561001657600080fd5b50610022600033610028565b506100d4565b6000828152602081815260408083206001600160a01b038516845290915281205460ff166100ca576000838152602081815260408083206001600160a01b03861684529091529020805460ff191660011790556100823390565b6001600160a01b0316826001600160a01b0316847f2f8788117e7eff1d82e926ec794901d17c78024a50270940304540a733656f0d60405160405180910390a45060016100ce565b5060005b92915050565b610c60806100e36000396000f3fe608060405234801561001057600080fd5b50600436106100cf5760003560e01c80635323fcc51161008c57806391d148541161006657806391d148541461027a578063a217fddf1461028d578063d547741f14610295578063ed1167c1146102a857600080fd5b80635323fcc5146102345780635ae28fc91461023c57806376ce58581461024f57600080fd5b806301ffc9a7146100d4578063248a9ca3146100fc5780632521adbd1461012d5780632f2ff15d146101f957806336568abe1461020e578063494e4c1614610221575b600080fd5b6100e76100e236600461096b565b6102d0565b60405190151581526020015b60405180910390f35b61011f61010a366004610995565b60009081526020819052604090206001015490565b6040519081526020016100f3565b6101b861013b366004610995565b60408051608081018252600080825260208201819052918101829052606081019190915250600090815260016020818152604092839020835160808101855281546001600160a01b038116825260ff600160a01b82048116151594830194909452600160a81b900490921693820193909352910154606082015290565b6040516100f3919081516001600160a01b0316815260208083015115159082015260408083015160ff16908201526060918201519181019190915260800190565b61020c6102073660046109ca565b610307565b005b61020c61021c3660046109ca565b610332565b61020c61022f3660046109f6565b61036a565b60025461011f565b61020c61024a366004610995565b610493565b6100e761025d366004610995565b6000908152600160205260409020546001600160a01b0316151590565b6100e76102883660046109ca565b610558565b61011f600081565b61020c6102a33660046109ca565b610581565b6102bb6102b6366004610995565b6105a6565b604080519283526020830191909152016100f3565b60006001600160e01b03198216637965db0b60e01b148061030157506301ffc9a760e01b6001600160e01b03198316145b92915050565b6000828152602081905260409020600101546103228161072a565b61032c8383610737565b50505050565b6001600160a01b038116331461035b5760405163334bd91960e11b815260040160405180910390fd5b61036582826107c9565b505050565b7fced6982f480260bdd8ad5cb18ff2854f0306d78d904ad6cc107e8f3a0f526c186103948161072a565b6103a6846001600160a01b0316610834565b604080516080810182526001600160a01b038087168252851515602080840191825260ff8088168587019081526002546060870190815260008d81526001948590528890209651875495519251909316600160a81b0260ff60a81b19921515600160a01b026001600160a81b031990961693909616929092179390931792909216929092178355519101555185907f8a4b32143ccf9e1e99f777d7db118e8ce44d583acefd7b81c4337c9644eb2b1a90610484908790879087906001600160a01b03939093168352901515602083015260ff16604082015260600190565b60405180910390a25050505050565b7fced6982f480260bdd8ad5cb18ff2854f0306d78d904ad6cc107e8f3a0f526c186104bd8161072a565b6000821161051c5760405162461bcd60e51b815260206004820152602160248201527f415647584f7261636c65526f757465723a20496e76616c6964206d61782061676044820152606560f81b60648201526084015b60405180910390fd5b60028290556040518281527feb54bc3c0c2087fc6c82f348282683ca3b4d2a80476b6c90f2dee3411a16fdc19060200160405180910390a15050565b6000918252602082815260408084206001600160a01b0393909316845291905290205460ff1690565b60008281526020819052604090206001015461059c8161072a565b61032c83836107c9565b6000818152600160208181526040808420815160808101835281546001600160a01b03811680835260ff600160a01b83048116151596840196909652600160a81b9091049094169281019290925290920154606083015282919061062057604051630138152d60e61b815260048101859052602401610513565b600081600001519050600080826001600160a01b031663feaf968c6040518163ffffffff1660e01b815260040160a060405180830381865afa15801561066a573d6000803e3d6000fd5b505050506040513d601f19601f8201168201806040525081019061068e9190610a6c565b50935050925050600082136106b95760405163cd97203f60e01b815260048101889052602401610513565b60608401516106c88242610ad2565b11156106ea57604051631b84448f60e21b815260048101889052602401610513565b60008290506106fd818660400151610880565b965084602001511561071e5761071b670de0b6b3a7640000886108e7565b96505b50949694955050505050565b610734813361092e565b50565b60006107438383610558565b6107c1576000838152602081815260408083206001600160a01b03861684529091529020805460ff191660011790556107793390565b6001600160a01b0316826001600160a01b0316847f2f8788117e7eff1d82e926ec794901d17c78024a50270940304540a733656f0d60405160405180910390a4506001610301565b506000610301565b60006107d58383610558565b156107c1576000838152602081815260408083206001600160a01b0386168085529252808320805460ff1916905551339286917ff6391f5c32d9c69d2a47ea670b442974b53935d1edc7fd64eb21e047a839171b9190a4506001610301565b6001600160a01b0381166107345760405162461bcd60e51b8152602060048201526013602482015272526f6c65733a205a65726f206164647265737360681b6044820152606401610513565b60008160ff16601203610894575081610301565b60128260ff1610156108c7576108ab826012610ae5565b6108b690600a610be2565b6108c09084610bf1565b9050610301565b6108d2601283610ae5565b6108dd90600a610be2565b6108c09084610c08565b60008160000361090a576040516323d359a360e01b815260040160405180910390fd5b8161091d670de0b6b3a764000085610bf1565b6109279190610c08565b9392505050565b6109388282610558565b6109675760405163e2517d3f60e01b81526001600160a01b038216600482015260248101839052604401610513565b5050565b60006020828403121561097d57600080fd5b81356001600160e01b03198116811461092757600080fd5b6000602082840312156109a757600080fd5b5035919050565b80356001600160a01b03811681146109c557600080fd5b919050565b600080604083850312156109dd57600080fd5b823591506109ed602084016109ae565b90509250929050565b60008060008060808587031215610a0c57600080fd5b84359350610a1c602086016109ae565b925060408501358015158114610a3157600080fd5b9150606085013560ff81168114610a4757600080fd5b939692955090935050565b805169ffffffffffffffffffff811681146109c557600080fd5b600080600080600060a08688031215610a8457600080fd5b610a8d86610a52565b9450602086015193506040860151925060608601519150610ab060808701610a52565b90509295509295909350565b634e487b7160e01b600052601160045260246000fd5b8181038181111561030157610301610abc565b60ff828116828216039081111561030157610301610abc565b600181815b80851115610b39578160001904821115610b1f57610b1f610abc565b80851615610b2c57918102915b93841c9390800290610b03565b509250929050565b600082610b5057506001610301565b81610b5d57506000610301565b8160018114610b735760028114610b7d57610b99565b6001915050610301565b60ff841115610b8e57610b8e610abc565b50506001821b610301565b5060208310610133831016604e8410600b8410161715610bbc575081810a610301565b610bc68383610afe565b8060001904821115610bda57610bda610abc565b029392505050565b600061092760ff841683610b41565b808202811582820484141761030157610301610abc565b600082610c2557634e487b7160e01b600052601260045260246000fd5b50049056fea26469706673582212209638b869b32315a271aeffb52c35b53bfc65c12b0ea4d7d265dfb857d8751f1264736f6c63430008180033",
          "opcodes": "PUSH1 0x80 PUSH1 0x40 MSTORE PUSH2 0xE10 PUSH1 0x2 SSTORE CALLVALUE DUP1 ISZERO PUSH2 0x16 JUMPI PUSH1 0x0 DUP1 REVERT JUMPDEST POP PUSH2 0x22 PUSH1 0x0 CALLER PUSH2 0x28 JUMP JUMPDEST POP PUSH2 0xD4 JUMP JUMPDEST PUSH1 0x0 DUP3 DUP2 MSTORE PUSH1 0x20 DUP2 DUP2 MSTORE PUSH1 0x40 DUP1 DUP4 KECCAK256 PUSH1 0x1 PUSH1 0x1 PUSH1 0xA0 SHL SUB DUP6 AND DUP5 MSTORE SWAP1 SWAP2 MSTORE DUP2 KECCAK256 SLOAD PUSH1 0xFF AND PUSH2 0xCA JUMPI PUSH1 0x0 DUP4 DUP2 MSTORE PUSH1 0x20 DUP2 DUP2 MSTORE PUSH1 0x40 DUP1 DUP4 KECCAK256 PUSH1 0x1 PUSH1 0x1 PUSH1 0xA0 SHL SUB DUP7 AND DUP5 MSTORE SWAP1 SWAP2 MSTORE SWAP1 KECCAK256 DUP1 SLOAD PUSH1 0xFF NOT AND PUSH1 0x1 OR SWAP1 SSTORE PUSH2 0x82 CALLER SWAP1 JUMP JUMPDEST PUSH1 0x1 PUSH1 0x1 PUSH1 0xA0 SHL SUB AND DUP3 PUSH1 0x1 PUSH1 0x1 PUSH1 0xA0 SHL SUB AND DUP5 PUSH32 0x2F8788117E7EFF1D82E926EC794901D17C78024A50270940304540A733656F0D PUSH1 0x40 MLOAD PUSH1 0x40 MLOAD DUP1 SWAP2 SUB SWAP1 LOG4 POP PUSH1 0x1 PUSH2 0xCE JUMP JUMPDEST POP PUSH1 0x0 JUMPDEST SWAP3 SWAP2 POP POP JUMP JUMPDEST PUSH2 0xC60 DUP1 PUSH2 0xE3 PUSH1 0x0 CODECOPY PUSH1 0x0 RETURN INVALID PUSH1 0x80 PUSH1 0x40 MSTORE CALLVALUE DUP1 ISZERO PUSH2 0x10 JUMPI PUSH1 0x0 DUP1 REVERT JUMPDEST POP PUSH1 0x4 CALLDATASIZE LT PUSH2 0xCF JUMPI PUSH1 0x0 CALLDATALOAD PUSH1 0xE0 SHR DUP1 PUSH4 0x5323FCC5 GT PUSH2 0x8C JUMPI DUP1 PUSH4 0x91D14854 GT PUSH2 0x66 JUMPI DUP1 PUSH4 0x91D14854 EQ PUSH2 0x27A JUMPI DUP1 PUSH4 0xA217FDDF EQ PUSH2 0x28D JUMPI DUP1 PUSH4 0xD547741F EQ PUSH2 0x295 JUMPI DUP1 PUSH4 0xED1167C1 EQ PUSH2 0x2A8 JUMPI PUSH1 0x0 DUP1 REVERT JUMPDEST DUP1 PUSH4 0x5323FCC5 EQ PUSH2 0x234 JUMPI DUP1 PUSH4 0x5AE28FC9 EQ PUSH2 0x23C JUMPI DUP1 PUSH4 0x76CE5858 EQ PUSH2 0x24F JUMPI PUSH1 0x0 DUP1 REVERT JUMPDEST DUP1 PUSH4 0x1FFC9A7 EQ PUSH2 0xD4 JUMPI DUP1 PUSH4 0x248A9CA3 EQ PUSH2 0xFC JUMPI DUP1 PUSH4 0x2521ADBD EQ PUSH2 0x12D JUMPI DUP1 PUSH4 0x2F2FF15D EQ PUSH2 0x1F9 JUMPI DUP1 PUSH4 0x36568ABE EQ PUSH2 0x20E JUMPI DUP1 PUSH4 0x494E4C16 EQ PUSH2 0x221 JUMPI JUMPDEST PUSH1 0x0 DUP1 REVERT JUMPDEST PUSH2 0xE7 PUSH2 0xE2 CALLDATASIZE PUSH1 0x4 PUSH2 0x96B JUMP JUMPDEST PUSH2 0x2D0 JUMP JUMPDEST PUSH1 0x40 MLOAD SWAP1 ISZERO ISZERO DUP2 MSTORE PUSH1 0x20 ADD JUMPDEST PUSH1 0x40 MLOAD DUP1 SWAP2 SUB SWAP1 RETURN JUMPDEST PUSH2 0x11F PUSH2 0x10A CALLDATASIZE PUSH1 0x4 PUSH2 0x995 JUMP JUMPDEST PUSH1 0x0 SWAP1 DUP2 MSTORE PUSH1 0x20 DUP2 SWAP1 MSTORE PUSH1 0x40 SWAP1 KECCAK256 PUSH1 0x1 ADD SLOAD SWAP1 JUMP JUMPDEST PUSH1 0x40 MLOAD SWAP1 DUP2 MSTORE PUSH1 0x20 ADD PUSH2 0xF3 JUMP JUMPDEST PUSH2 0x1B8 PUSH2 0x13B CALLDATASIZE PUSH1 0x4 PUSH2 0x995 JUMP JUMPDEST PUSH1 0x40 DUP1 MLOAD PUSH1 0x80 DUP2 ADD DUP3 MSTORE PUSH1 0x0 DUP1 DUP3 MSTORE PUSH1 0x20 DUP3 ADD DUP2 SWAP1 MSTORE SWAP2 DUP2 ADD DUP3 SWAP1 MSTORE PUSH1 0x60 DUP2 ADD SWAP2 SWAP1 SWAP2 MSTORE POP PUSH1 0x0 SWAP1 DUP2 MSTORE PUSH1 0x1 PUSH1 0x20 DUP2 DUP2 MSTORE PUSH1 0x40 SWAP3 DUP4 SWAP1 KECCAK256 DUP4 MLOAD PUSH1 0x80 DUP2 ADD DUP6 MSTORE DUP2 SLOAD PUSH1 0x1 PUSH1 0x1 PUSH1 0xA0 SHL SUB DUP2 AND DUP3 MSTORE PUSH1 0xFF PUSH1 0x1 PUSH1 0xA0 SHL DUP3 DIV DUP2 AND ISZERO ISZERO SWAP5 DUP4 ADD SWAP5 SWAP1 SWAP5 MSTORE PUSH1 0x1 PUSH1 0xA8 SHL SWAP1 DIV SWAP1 SWAP3 AND SWAP4 DUP3 ADD SWAP4 SWAP1 SWAP4 MSTORE SWAP2 ADD SLOAD PUSH1 0x60 DUP3 ADD MSTORE SWAP1 JUMP JUMPDEST PUSH1 0x40 MLOAD PUSH2 0xF3 SWAP2 SWAP1 DUP2 MLOAD PUSH1 0x1 PUSH1 0x1 PUSH1 0xA0 SHL SUB AND DUP2 MSTORE PUSH1 0x20 DUP1 DUP4 ADD MLOAD ISZERO ISZERO SWAP1 DUP3 ADD MSTORE PUSH1 0x40 DUP1 DUP4 ADD MLOAD PUSH1 0xFF AND SWAP1 DUP3 ADD MSTORE PUSH1 0x60 SWAP2 DUP3 ADD MLOAD SWAP2 DUP2 ADD SWAP2 SWAP1 SWAP2 MSTORE PUSH1 0x80 ADD SWAP1 JUMP JUMPDEST PUSH2 0x20C PUSH2 0x207 CALLDATASIZE PUSH1 0x4 PUSH2 0x9CA JUMP JUMPDEST PUSH2 0x307 JUMP JUMPDEST STOP JUMPDEST PUSH2 0x20C PUSH2 0x21C CALLDATASIZE PUSH1 0x4 PUSH2 0x9CA JUMP JUMPDEST PUSH2 0x332 JUMP JUMPDEST PUSH2 0x20C PUSH2 0x22F CALLDATASIZE PUSH1 0x4 PUSH2 0x9F6 JUMP JUMPDEST PUSH2 0x36A JUMP JUMPDEST PUSH1 0x2 SLOAD PUSH2 0x11F JUMP JUMPDEST PUSH2 0x20C PUSH2 0x24A CALLDATASIZE PUSH1 0x4 PUSH2 0x995 JUMP JUMPDEST PUSH2 0x493 JUMP JUMPDEST PUSH2 0xE7 PUSH2 0x25D CALLDATASIZE PUSH1 0x4 PUSH2 0x995 JUMP JUMPDEST PUSH1 0x0 SWAP1 DUP2 MSTORE PUSH1 0x1 PUSH1 0x20 MSTORE PUSH1 0x40 SWAP1 KECCAK256 SLOAD PUSH1 0x1 PUSH1 0x1 PUSH1 0xA0 SHL SUB AND ISZERO ISZERO SWAP1 JUMP JUMPDEST PUSH2 0xE7 PUSH2 0x288 CALLDATASIZE PUSH1 0x4 PUSH2 0x9CA JUMP JUMPDEST PUSH2 0x558 JUMP JUMPDEST PUSH2 0x11F PUSH1 0x0 DUP2 JUMP JUMPDEST PUSH2 0x20C PUSH2 0x2A3 CALLDATASIZE PUSH1 0x4 PUSH2 0x9CA JUMP JUMPDEST PUSH2 0x581 JUMP JUMPDEST PUSH2 0x2BB PUSH2 0x2B6 CALLDATASIZE PUSH1 0x4 PUSH2 0x995 JUMP JUMPDEST PUSH2 0x5A6 JUMP JUMPDEST PUSH1 0x40 DUP1 MLOAD SWAP3 DUP4 MSTORE PUSH1 0x20 DUP4 ADD SWAP2 SWAP1 SWAP2 MSTORE ADD PUSH2 0xF3 JUMP JUMPDEST PUSH1 0x0 PUSH1 0x1 PUSH1 0x1 PUSH1 0xE0 SHL SUB NOT DUP3 AND PUSH4 0x7965DB0B PUSH1 0xE0 SHL EQ DUP1 PUSH2 0x301 JUMPI POP PUSH4 0x1FFC9A7 PUSH1 0xE0 SHL PUSH1 0x1 PUSH1 0x1 PUSH1 0xE0 SHL SUB NOT DUP4 AND EQ JUMPDEST SWAP3 SWAP2 POP POP JUMP JUMPDEST PUSH1 0x0 DUP3 DUP2 MSTORE PUSH1 0x20 DUP2 SWAP1 MSTORE PUSH1 0x40 SWAP1 KECCAK256 PUSH1 0x1 ADD SLOAD PUSH2 0x322 DUP2 PUSH2 0x72A JUMP JUMPDEST PUSH2 0x32C DUP4 DUP4 PUSH2 0x737 JUMP JUMPDEST POP POP POP POP JUMP JUMPDEST PUSH1 0x1 PUSH1 0x1 PUSH1 0xA0 SHL SUB DUP2 AND CALLER EQ PUSH2 0x35B JUMPI PUSH1 0x40 MLOAD PUSH4 0x334BD919 PUSH1 0xE1 SHL DUP2 MSTORE PUSH1 0x4 ADD PUSH1 0x40 MLOAD DUP1 SWAP2 SUB SWAP1 REVERT JUMPDEST PUSH2 0x365 DUP3 DUP3 PUSH2 0x7C9 JUMP JUMPDEST POP POP POP JUMP JUMPDEST PUSH32 0xCED6982F480260BDD8AD5CB18FF2854F0306D78D904AD6CC107E8F3A0F526C18 PUSH2 0x394 DUP2 PUSH2 0x72A JUMP JUMPDEST PUSH2 0x3A6 DUP5 PUSH1 0x1 PUSH1 0x1 PUSH1 0xA0 SHL SUB AND PUSH2 0x834 JUMP JUMPDEST PUSH1 0x40 DUP1 MLOAD PUSH1 0x80 DUP2 ADD DUP3 MSTORE PUSH1 0x1 PUSH1 0x1 PUSH1 0xA0 SHL SUB DUP1 DUP8 AND DUP3 MSTORE DUP6 ISZERO ISZERO PUSH1 0x20 DUP1 DUP5 ADD SWAP2 DUP3 MSTORE PUSH1 0xFF DUP1 DUP9 AND DUP6 DUP8 ADD SWAP1 DUP2 MSTORE PUSH1 0x2 SLOAD PUSH1 0x60 DUP8 ADD SWAP1 DUP2 MSTORE PUSH1 0x0 DUP14 DUP2 MSTORE PUSH1 0x1 SWAP5 DUP6 SWAP1 MSTORE DUP9 SWAP1 KECCAK256 SWAP7 MLOAD DUP8 SLOAD SWAP6 MLOAD SWAP3 MLOAD SWAP1 SWAP4 AND PUSH1 0x1 PUSH1 0xA8 SHL MUL PUSH1 0xFF PUSH1 0xA8 SHL NOT SWAP3 ISZERO ISZERO PUSH1 0x1 PUSH1 0xA0 SHL MUL PUSH1 0x1 PUSH1 0x1 PUSH1 0xA8 SHL SUB NOT SWAP1 SWAP7 AND SWAP4 SWAP1 SWAP7 AND SWAP3 SWAP1 SWAP3 OR SWAP4 SWAP1 SWAP4 OR SWAP3 SWAP1 SWAP3 AND SWAP3 SWAP1 SWAP3 OR DUP4 SSTORE MLOAD SWAP2 ADD SSTORE MLOAD DUP6 SWAP1 PUSH32 0x8A4B32143CCF9E1E99F777D7DB118E8CE44D583ACEFD7B81C4337C9644EB2B1A SWAP1 PUSH2 0x484 SWAP1 DUP8 SWAP1 DUP8 SWAP1 DUP8 SWAP1 PUSH1 0x1 PUSH1 0x1 PUSH1 0xA0 SHL SUB SWAP4 SWAP1 SWAP4 AND DUP4 MSTORE SWAP1 ISZERO ISZERO PUSH1 0x20 DUP4 ADD MSTORE PUSH1 0xFF AND PUSH1 0x40 DUP3 ADD MSTORE PUSH1 0x60 ADD SWAP1 JUMP JUMPDEST PUSH1 0x40 MLOAD DUP1 SWAP2 SUB SWAP1 LOG2 POP POP POP POP POP JUMP JUMPDEST PUSH32 0xCED6982F480260BDD8AD5CB18FF2854F0306D78D904AD6CC107E8F3A0F526C18 PUSH2 0x4BD DUP2 PUSH2 0x72A JUMP JUMPDEST PUSH1 0x0 DUP3 GT PUSH2 0x51C JUMPI PUSH1 0x40 MLOAD PUSH3 0x461BCD PUSH1 0xE5 SHL DUP2 MSTORE PUSH1 0x20 PUSH1 0x4 DUP3 ADD MSTORE PUSH1 0x21 PUSH1 0x24 DUP3 ADD MSTORE PUSH32 0x415647584F7261636C65526F757465723A20496E76616C6964206D6178206167 PUSH1 0x44 DUP3 ADD MSTORE PUSH1 0x65 PUSH1 0xF8 SHL PUSH1 0x64 DUP3 ADD MSTORE PUSH1 0x84 ADD JUMPDEST PUSH1 0x40 MLOAD DUP1 SWAP2 SUB SWAP1 REVERT JUMPDEST PUSH1 0x2 DUP3 SWAP1 SSTORE PUSH1 0x40 MLOAD DUP3 DUP2 MSTORE PUSH32 0xEB54BC3C0C2087FC6C82F348282683CA3B4D2A80476B6C90F2DEE3411A16FDC1 SWAP1 PUSH1 0x20 ADD PUSH1 0x40 MLOAD DUP1 SWAP2 SUB SWAP1 LOG1 POP POP JUMP JUMPDEST PUSH1 0x0 SWAP2 DUP3 MSTORE PUSH1 0x20 DUP3 DUP2 MSTORE PUSH1 0x40 DUP1 DUP5 KECCAK256 PUSH1 0x1 PUSH1 0x1 PUSH1 0xA0 SHL SUB SWAP4 SWAP1 SWAP4 AND DUP5 MSTORE SWAP2 SWAP1 MSTORE SWAP1 KECCAK256 SLOAD PUSH1 0xFF AND SWAP1 JUMP JUMPDEST PUSH1 0x0 DUP3 DUP2 MSTORE PUSH1 0x20 DUP2 SWAP1 MSTORE PUSH1 0x40 SWAP1 KECCAK256 PUSH1 0x1 ADD SLOAD PUSH2 0x59C DUP2 PUSH2 0x72A JUMP JUMPDEST PUSH2 0x32C DUP4 DUP4 PUSH2 0x7C9 JUMP JUMPDEST PUSH1 0x0 DUP2 DUP2 MSTORE PUSH1 0x1 PUSH1 0x20 DUP2 DUP2 MSTORE PUSH1 0x40 DUP1 DUP5 KECCAK256 DUP2 MLOAD PUSH1 0x80 DUP2 ADD DUP4 MSTORE DUP2 SLOAD PUSH1 0x1 PUSH1 0x1 PUSH1 0xA0 SHL SUB DUP2 AND DUP1 DUP4 MSTORE PUSH1 0xFF PUSH1 0x1 PUSH1 0xA0 SHL DUP4 DIV DUP2 AND ISZERO ISZERO SWAP7 DUP5 ADD SWAP7 SWAP1 SWAP7 MSTORE PUSH1 0x1 PUSH1 0xA8 SHL SWAP1 SWAP2 DIV SWAP1 SWAP5 AND SWAP3 DUP2 ADD SWAP3 SWAP1 SWAP3 MSTORE SWAP1 SWAP3 ADD SLOAD PUSH1 0x60 DUP4 ADD MSTORE DUP3 SWAP2 SWAP1 PUSH2 0x620 JUMPI PUSH1 0x40 MLOAD PUSH4 0x138152D PUSH1 0xE6 SHL DUP2 MSTORE PUSH1 0x4 DUP2 ADD DUP6 SWAP1 MSTORE PUSH1 0x24 ADD PUSH2 0x513 JUMP JUMPDEST PUSH1 0x0 DUP2 PUSH1 0x0 ADD MLOAD SWAP1 POP PUSH1 0x0 DUP1 DUP3 PUSH1 0x1 PUSH1 0x1 PUSH1 0xA0 SHL SUB AND PUSH4 0xFEAF968C PUSH1 0x40 MLOAD DUP2 PUSH4 0xFFFFFFFF AND PUSH1 0xE0 SHL DUP2 MSTORE PUSH1 0x4 ADD PUSH1 0xA0 PUSH1 0x40 MLOAD DUP1 DUP4 SUB DUP2 DUP7 GAS STATICCALL ISZERO DUP1 ISZERO PUSH2 0x66A JUMPI RETURNDATASIZE PUSH1 0x0 DUP1 RETURNDATACOPY RETURNDATASIZE PUSH1 0x0 REVERT JUMPDEST POP POP POP POP PUSH1 0x40 MLOAD RETURNDATASIZE PUSH1 0x1F NOT PUSH1 0x1F DUP3 ADD AND DUP3 ADD DUP1 PUSH1 0x40 MSTORE POP DUP2 ADD SWAP1 PUSH2 0x68E SWAP2 SWAP1 PUSH2 0xA6C JUMP JUMPDEST POP SWAP4 POP POP SWAP3 POP POP PUSH1 0x0 DUP3 SGT PUSH2 0x6B9 JUMPI PUSH1 0x40 MLOAD PUSH4 0xCD97203F PUSH1 0xE0 SHL DUP2 MSTORE PUSH1 0x4 DUP2 ADD DUP9 SWAP1 MSTORE PUSH1 0x24 ADD PUSH2 0x513 JUMP JUMPDEST PUSH1 0x60 DUP5 ADD MLOAD PUSH2 0x6C8 DUP3 TIMESTAMP PUSH2 0xAD2 JUMP JUMPDEST GT ISZERO PUSH2 0x6EA JUMPI PUSH1 0x40 MLOAD PUSH4 0x1B84448F PUSH1 0xE2 SHL DUP2 MSTORE PUSH1 0x4 DUP2 ADD DUP9 SWAP1 MSTORE PUSH1 0x24 ADD PUSH2 0x513 JUMP JUMPDEST PUSH1 0x0 DUP3 SWAP1 POP PUSH2 0x6FD DUP2 DUP7 PUSH1 0x40 ADD MLOAD PUSH2 0x880 JUMP JUMPDEST SWAP7 POP DUP5 PUSH1 0x20 ADD MLOAD ISZERO PUSH2 0x71E JUMPI PUSH2 0x71B PUSH8 0xDE0B6B3A7640000 DUP9 PUSH2 0x8E7 JUMP JUMPDEST SWAP7 POP JUMPDEST POP SWAP5 SWAP7 SWAP5 SWAP6 POP POP POP POP POP JUMP JUMPDEST PUSH2 0x734 DUP2 CALLER PUSH2 0x92E JUMP JUMPDEST POP JUMP JUMPDEST PUSH1 0x0 PUSH2 0x743 DUP4 DUP4 PUSH2 0x558 JUMP JUMPDEST PUSH2 0x7C1 JUMPI PUSH1 0x0 DUP4 DUP2 MSTORE PUSH1 0x20 DUP2 DUP2 MSTORE PUSH1 0x40 DUP1 DUP4 KECCAK256 PUSH1 0x1 PUSH1 0x1 PUSH1 0xA0 SHL SUB DUP7 AND DUP5 MSTORE SWAP1 SWAP2 MSTORE SWAP1 KECCAK256 DUP1 SLOAD PUSH1 0xFF NOT AND PUSH1 0x1 OR SWAP1 SSTORE PUSH2 0x779 CALLER SWAP1 JUMP JUMPDEST PUSH1 0x1 PUSH1 0x1 PUSH1 0xA0 SHL SUB AND DUP3 PUSH1 0x1 PUSH1 0x1 PUSH1 0xA0 SHL SUB AND DUP5 PUSH32 0x2F8788117E7EFF1D82E926EC794901D17C78024A50270940304540A733656F0D PUSH1 0x40 MLOAD PUSH1 0x40 MLOAD DUP1 SWAP2 SUB SWAP1 LOG4 POP PUSH1 0x1 PUSH2 0x301 JUMP JUMPDEST POP PUSH1 0x0 PUSH2 0x301 JUMP JUMPDEST PUSH1 0x0 PUSH2 0x7D5 DUP4 DUP4 PUSH2 0x558 JUMP JUMPDEST ISZERO PUSH2 0x7C1 JUMPI PUSH1 0x0 DUP4 DUP2 MSTORE PUSH1 0x20 DUP2 DUP2 MSTORE PUSH1 0x40 DUP1 DUP4 KECCAK256 PUSH1 0x1 PUSH1 0x1 PUSH1 0xA0 SHL SUB DUP7 AND DUP1 DUP6 MSTORE SWAP3 MSTORE DUP1 DUP4 KECCAK256 DUP1 SLOAD PUSH1 0xFF NOT AND SWAP1 SSTORE MLOAD CALLER SWAP3 DUP7 SWAP2 PUSH32 0xF6391F5C32D9C69D2A47EA670B442974B53935D1EDC7FD64EB21E047A839171B SWAP2 SWAP1 LOG4 POP PUSH1 0x1 PUSH2 0x301 JUMP JUMPDEST PUSH1 0x1 PUSH1 0x1 PUSH1 0xA0 SHL SUB DUP2 AND PUSH2 0x734 JUMPI PUSH1 0x40 MLOAD PUSH3 0x461BCD PUSH1 0xE5 SHL DUP2 MSTORE PUSH1 0x20 PUSH1 0x4 DUP3 ADD MSTORE PUSH1 0x13 PUSH1 0x24 DUP3 ADD MSTORE PUSH19 0x526F6C65733A205A65726F2061646472657373 PUSH1 0x68 SHL PUSH1 0x44 DUP3 ADD MSTORE PUSH1 0x64 ADD PUSH2 0x513 JUMP JUMPDEST PUSH1 0x0 DUP2 PUSH1 0xFF AND PUSH1 0x12 SUB PUSH2 0x894 JUMPI POP DUP2 PUSH2 0x301 JUMP JUMPDEST PUSH1 0x12 DUP3 PUSH1 0xFF AND LT ISZERO PUSH2 0x8C7 JUMPI PUSH2 0x8AB DUP3 PUSH1 0x12 PUSH2 0xAE5 JUMP JUMPDEST PUSH2 0x8B6 SWAP1 PUSH1 0xA PUSH2 0xBE2 JUMP JUMPDEST PUSH2 0x8C0 SWAP1 DUP5 PUSH2 0xBF1 JUMP JUMPDEST SWAP1 POP PUSH2 0x301 JUMP JUMPDEST PUSH2 0x8D2 PUSH1 0x12 DUP4 PUSH2 0xAE5 JUMP JUMPDEST PUSH2 0x8DD SWAP1 PUSH1 0xA PUSH2 0xBE2 JUMP JUMPDEST PUSH2 0x8C0 SWAP1 DUP5 PUSH2 0xC08 JUMP JUMPDEST PUSH1 0x0 DUP2 PUSH1 0x0 SUB PUSH2 0x90A JUMPI PUSH1 0x40 MLOAD PUSH4 0x23D359A3 PUSH1 0xE0 SHL DUP2 MSTORE PUSH1 0x4 ADD PUSH1 0x40 MLOAD DUP1 SWAP2 SUB SWAP1 REVERT JUMPDEST DUP2 PUSH2 0x91D PUSH8 0xDE0B6B3A7640000 DUP6 PUSH2 0xBF1 JUMP JUMPDEST PUSH2 0x927 SWAP2 SWAP1 PUSH2 0xC08 JUMP JUMPDEST SWAP4 SWAP3 POP POP POP JUMP JUMPDEST PUSH2 0x938 DUP3 DUP3 PUSH2 0x558 JUMP JUMPDEST PUSH2 0x967 JUMPI PUSH1 0x40 MLOAD PUSH4 0xE2517D3F PUSH1 0xE0 SHL DUP2 MSTORE PUSH1 0x1 PUSH1 0x1 PUSH1 0xA0 SHL SUB DUP3 AND PUSH1 0x4 DUP3 ADD MSTORE PUSH1 0x24 DUP2 ADD DUP4 SWAP1 MSTORE PUSH1 0x44 ADD PUSH2 0x513 JUMP JUMPDEST POP POP JUMP JUMPDEST PUSH1 0x0 PUSH1 0x20 DUP3 DUP5 SUB SLT ISZERO PUSH2 0x97D JUMPI PUSH1 0x0 DUP1 REVERT JUMPDEST DUP2 CALLDATALOAD PUSH1 0x1 PUSH1 0x1 PUSH1 0xE0 SHL SUB NOT DUP2 AND DUP2 EQ PUSH2 0x927 JUMPI PUSH1 0x0 DUP1 REVERT JUMPDEST PUSH1 0x0 PUSH1 0x20 DUP3 DUP5 SUB SLT ISZERO PUSH2 0x9A7 JUMPI PUSH1 0x0 DUP1 REVERT JUMPDEST POP CALLDATALOAD SWAP2 SWAP1 POP JUMP JUMPDEST DUP1 CALLDATALOAD PUSH1 0x1 PUSH1 0x1 PUSH1 0xA0 SHL SUB DUP2 AND DUP2 EQ PUSH2 0x9C5 JUMPI PUSH1 0x0 DUP1 REVERT JUMPDEST SWAP2 SWAP1 POP JUMP JUMPDEST PUSH1 0x0 DUP1 PUSH1 0x40 DUP4 DUP6 SUB SLT ISZERO PUSH2 0x9DD JUMPI PUSH1 0x0 DUP1 REVERT JUMPDEST DUP3 CALLDATALOAD SWAP2 POP PUSH2 0x9ED PUSH1 0x20 DUP5 ADD PUSH2 0x9AE JUMP JUMPDEST SWAP1 POP SWAP3 POP SWAP3 SWAP1 POP JUMP JUMPDEST PUSH1 0x0 DUP1 PUSH1 0x0 DUP1 PUSH1 0x80 DUP6 DUP8 SUB SLT ISZERO PUSH2 0xA0C JUMPI PUSH1 0x0 DUP1 REVERT JUMPDEST DUP5 CALLDATALOAD SWAP4 POP PUSH2 0xA1C PUSH1 0x20 DUP7 ADD PUSH2 0x9AE JUMP JUMPDEST SWAP3 POP PUSH1 0x40 DUP6 ADD CALLDATALOAD DUP1 ISZERO ISZERO DUP2 EQ PUSH2 0xA31 JUMPI PUSH1 0x0 DUP1 REVERT JUMPDEST SWAP2 POP PUSH1 0x60 DUP6 ADD CALLDATALOAD PUSH1 0xFF DUP2 AND DUP2 EQ PUSH2 0xA47 JUMPI PUSH1 0x0 DUP1 REVERT JUMPDEST SWAP4 SWAP7 SWAP3 SWAP6 POP SWAP1 SWAP4 POP POP JUMP JUMPDEST DUP1 MLOAD PUSH10 0xFFFFFFFFFFFFFFFFFFFF DUP2 AND DUP2 EQ PUSH2 0x9C5 JUMPI PUSH1 0x0 DUP1 REVERT JUMPDEST PUSH1 0x0 DUP1 PUSH1 0x0 DUP1 PUSH1 0x0 PUSH1 0xA0 DUP7 DUP9 SUB SLT ISZERO PUSH2 0xA84 JUMPI PUSH1 0x0 DUP1 REVERT JUMPDEST PUSH2 0xA8D DUP7 PUSH2 0xA52 JUMP JUMPDEST SWAP5 POP PUSH1 0x20 DUP7 ADD MLOAD SWAP4 POP PUSH1 0x40 DUP7 ADD MLOAD SWAP3 POP PUSH1 0x60 DUP7 ADD MLOAD SWAP2 POP PUSH2 0xAB0 PUSH1 0x80 DUP8 ADD PUSH2 0xA52 JUMP JUMPDEST SWAP1 POP SWAP3 SWAP6 POP SWAP3 SWAP6 SWAP1 SWAP4 POP JUMP JUMPDEST PUSH4 0x4E487B71 PUSH1 0xE0 SHL PUSH1 0x0 MSTORE PUSH1 0x11 PUSH1 0x4 MSTORE PUSH1 0x24 PUSH1 0x0 REVERT JUMPDEST DUP2 DUP2 SUB DUP2 DUP2 GT ISZERO PUSH2 0x301 JUMPI PUSH2 0x301 PUSH2 0xABC JUMP JUMPDEST PUSH1 0xFF DUP3 DUP2 AND DUP3 DUP3 AND SUB SWAP1 DUP2 GT ISZERO PUSH2 0x301 JUMPI PUSH2 0x301 PUSH2 0xABC JUMP JUMPDEST PUSH1 0x1 DUP2 DUP2 JUMPDEST DUP1 DUP6 GT ISZERO PUSH2 0xB39 JUMPI DUP2 PUSH1 0x0 NOT DIV DUP3 GT ISZERO PUSH2 0xB1F JUMPI PUSH2 0xB1F PUSH2 0xABC JUMP JUMPDEST DUP1 DUP6 AND ISZERO PUSH2 0xB2C JUMPI SWAP2 DUP2 MUL SWAP2 JUMPDEST SWAP4 DUP5 SHR SWAP4 SWAP1 DUP1 MUL SWAP1 PUSH2 0xB03 JUMP JUMPDEST POP SWAP3 POP SWAP3 SWAP1 POP JUMP JUMPDEST PUSH1 0x0 DUP3 PUSH2 0xB50 JUMPI POP PUSH1 0x1 PUSH2 0x301 JUMP JUMPDEST DUP2 PUSH2 0xB5D JUMPI POP PUSH1 0x0 PUSH2 0x301 JUMP JUMPDEST DUP2 PUSH1 0x1 DUP2 EQ PUSH2 0xB73 JUMPI PUSH1 0x2 DUP2 EQ PUSH2 0xB7D JUMPI PUSH2 0xB99 JUMP JUMPDEST PUSH1 0x1 SWAP2 POP POP PUSH2 0x301 JUMP JUMPDEST PUSH1 0xFF DUP5 GT ISZERO PUSH2 0xB8E JUMPI PUSH2 0xB8E PUSH2 0xABC JUMP JUMPDEST POP POP PUSH1 0x1 DUP3 SHL PUSH2 0x301 JUMP JUMPDEST POP PUSH1 0x20 DUP4 LT PUSH2 0x133 DUP4 LT AND PUSH1 0x4E DUP5 LT PUSH1 0xB DUP5 LT AND OR ISZERO PUSH2 0xBBC JUMPI POP DUP2 DUP2 EXP PUSH2 0x301 JUMP JUMPDEST PUSH2 0xBC6 DUP4 DUP4 PUSH2 0xAFE JUMP JUMPDEST DUP1 PUSH1 0x0 NOT DIV DUP3 GT ISZERO PUSH2 0xBDA JUMPI PUSH2 0xBDA PUSH2 0xABC JUMP JUMPDEST MUL SWAP4 SWAP3 POP POP POP JUMP JUMPDEST PUSH1 0x0 PUSH2 0x927 PUSH1 0xFF DUP5 AND DUP4 PUSH2 0xB41 JUMP JUMPDEST DUP1 DUP3 MUL DUP2 ISZERO DUP3 DUP3 DIV DUP5 EQ OR PUSH2 0x301 JUMPI PUSH2 0x301 PUSH2 0xABC JUMP JUMPDEST PUSH1 0x0 DUP3 PUSH2 0xC25 JUMPI PUSH4 0x4E487B71 PUSH1 0xE0 SHL PUSH1 0x0 MSTORE PUSH1 0x12 PUSH1 0x4 MSTORE PUSH1 0x24 PUSH1 0x0 REVERT JUMPDEST POP DIV SWAP1 JUMP INVALID LOG2 PUSH5 0x6970667358 0x22 SLT KECCAK256 SWAP7 CODESIZE 0xB8 PUSH10 0xB32315A271AEFFB52C35 0xB5 EXTCODESIZE 0xFC PUSH6 0xC12B0EA4D7D2 PUSH6 0xDFB857D8751F SLT PUSH5 0x736F6C6343 STOP ADDMOD XOR STOP CALLER "
        },
        "methodIdentifiers": {
          "DEFAULT_ADMIN_ROLE()": "a217fddf",
          "feedExists(bytes32)": "76ce5858",
          "getFeedConfig(bytes32)": "2521adbd",
          "getGlobalMaxAge()": "5323fcc5",
          "getRoleAdmin(bytes32)": "248a9ca3",
          "grantRole(bytes32,address)": "2f2ff15d",
          "hasRole(bytes32,address)": "91d14854",
          "latestPriceE18(bytes32)": "ed1167c1",
          "renounceRole(bytes32,address)": "36568abe",
          "revokeRole(bytes32,address)": "d547741f",
          "setFeed(bytes32,address,bool,uint8)": "494e4c16",
          "setMaxAge(uint256)": "5ae28fc9",
          "supportsInterface(bytes4)": "01ffc9a7"
        }
      },
      "storageLayout": {
        "storage": [
          {
            "astId": 73,
            "contract": "src/AVGXOracleRouter.sol:AVGXOracleRouter",
            "label": "_roles",
            "offset": 0,
            "slot": "0",
            "type": "t_mapping(t_bytes32,t_struct(RoleData)68_storage)"
          },
          {
            "astId": 519,
            "contract": "src/AVGXOracleRouter.sol:AVGXOracleRouter",
            "label": "_feeds",
            "offset": 0,
            "slot": "1",
            "type": "t_mapping(t_bytes32,t_struct(FeedConfig)754_storage)"
          },
          {
            "astId": 523,
            "contract": "src/AVGXOracleRouter.sol:AVGXOracleRouter",
            "label": "_globalMaxAge",
            "offset": 0,
            "slot": "2",
            "type": "t_uint256"
          }
        ],
        "types": {
          "t_address": {
            "encoding": "inplace",
            "label": "address",
            "numberOfBytes": "20"
          },
          "t_bool": {
            "encoding": "inplace",
            "label": "bool",
            "numberOfBytes": "1"
          },
          "t_bytes32": {
            "encoding": "inplace",
            "label": "bytes32",
            "numberOfBytes": "32"
          },
          "t_mapping(t_address,t_bool)": {
            "encoding": "mapping",
            "key": "t_address",
            "label": "mapping(address => bool)",
            "numberOfBytes": "32",
            "value": "t_bool"
          },
          "t_mapping(t_bytes32,t_struct(FeedConfig)754_storage)": {
            "encoding": "mapping",
            "key": "t_bytes32",
            "label": "mapping(bytes32 => struct IAVGXOracleRouter.FeedConfig)",
            "numberOfBytes": "32",
            "value": "t_struct(FeedConfig)754_storage"
          },
          "t_mapping(t_bytes32,t_struct(RoleData)68_storage)": {
            "encoding": "mapping",
            "key": "t_bytes32",
            "label": "mapping(bytes32 => struct AccessControl.RoleData)",
            "numberOfBytes": "32",
            "value": "t_struct(RoleData)68_storage"
          },
          "t_struct(FeedConfig)754_storage": {
            "encoding": "inplace",
            "label": "struct IAVGXOracleRouter.FeedConfig",
            "members": [
              {
                "astId": 747,
                "contract": "src/AVGXOracleRouter.sol:AVGXOracleRouter",
                "label": "aggregator",
                "offset": 0,
                "slot": "0",
                "type": "t_address"
              },
              {
                "astId": 749,
                "contract": "src/AVGXOracleRouter.sol:AVGXOracleRouter",
                "label": "invert",
                "offset": 20,
                "slot": "0",
                "type": "t_bool"
              },
              {
                "astId": 751,
                "contract": "src/AVGXOracleRouter.sol:AVGXOracleRouter",
                "label": "decimals",
                "offset": 21,
                "slot": "0",
                "type": "t_uint8"
              },
              {
                "astId": 753,
                "contract": "src/AVGXOracleRouter.sol:AVGXOracleRouter",
                "label": "maxAge",
                "offset": 0,
                "slot": "1",
                "type": "t_uint256"
              }
            ],
            "numberOfBytes": "64"
          },
          "t_struct(RoleData)68_storage": {
            "encoding": "inplace",
            "label": "struct AccessControl.RoleData",
            "members": [
              {
                "astId": 65,
                "contract": "src/AVGXOracleRouter.sol:AVGXOracleRouter",
                "label": "hasRole",
                "offset": 0,
                "slot": "0",
                "type": "t_mapping(t_address,t_bool)"
              },
              {
                "astId": 67,
                "contract": "src/AVGXOracleRouter.sol:AVGXOracleRouter",
                "label": "adminRole",
                "offset": 0,
                "slot": "1",
                "type": "t_bytes32"
              }
            ],
            "numberOfBytes": "64"
          },
          "t_uint256": {
            "encoding": "inplace",
            "label": "uint256",
            "numberOfBytes": "32"
          },
          "t_uint8": {
            "encoding": "inplace",
            "label": "uint8",
            "numberOfBytes": "1"
          }
        }
      }
    }
  }
}