{
  "src/libraries/Roles.sol": {
    "Roles": {
      "abi": [
        {
          "inputs": [],
          "name": "BPS",
          "outputs": [
            {
              "internalType": "uint256",
              "name": "",
              "type": "uint256"
            }
          ],
          "stateMutability": "view",
          "type": "function"
        },
        {
          "inputs": [],
          "name": "DEFAULT_ADMIN_ROLE",
          "outputs": [
            {
              "internalType": "bytes32",
              "name": "",
              "type": "bytes32"
            }
          ],
          "stateMutability": "view",
          "type": "function"
        },
        {
          "inputs": [],
          "name": "DEFAULT_FEE_BPS",
          "outputs": [
            {
              "internalType": "uint256",
              "name": "",
              "type": "uint256"
            }
          ],
          "stateMutability": "view",
          "type": "function"
        },
        {
          "inputs": [],
          "name": "DEFAULT_MAX_AGE",
          "outputs": [
            {
              "internalType": "uint256",
              "name": "",
              "type": "uint256"
            }
          ],
          "stateMutability": "view",
          "type": "function"
        },
        {
          "inputs": [],
          "name": "DEFAULT_SPREAD_BPS",
          "outputs": [
            {
              "internalType": "uint256",
              "name": "",
              "type": "uint256"
            }
          ],
          "stateMutability": "view",
          "type": "function"
        },
        {
          "inputs": [],
          "name": "GOVERNOR_ROLE",
          "outputs": [
            {
              "internalType": "bytes32",
              "name": "",
              "type": "bytes32"
            }
          ],
          "stateMutability": "view",
          "type": "function"
        },
        {
          "inputs": [],
          "name": "MINTER_ROLE",
          "outputs": [
            {
              "internalType": "bytes32",
              "name": "",
              "type": "bytes32"
            }
          ],
          "stateMutability": "view",
          "type": "function"
        },
        {
          "inputs": [],
          "name": "ONE",
          "outputs": [
            {
              "internalType": "uint256",
              "name": "",
              "type": "uint256"
            }
          ],
          "stateMutability": "view",
          "type": "function"
        },
        {
          "inputs": [],
          "name": "ORACLE_MANAGER_ROLE",
          "outputs": [
            {
              "internalType": "bytes32",
              "name": "",
              "type": "bytes32"
            }
          ],
          "stateMutability": "view",
          "type": "function"
        },
        {
          "inputs": [],
          "name": "PAUSER_ROLE",
          "outputs": [
            {
              "internalType": "bytes32",
              "name": "",
              "type": "bytes32"
            }
          ],
          "stateMutability": "view",
          "type": "function"
        }
      ],
      "evm": {
        "bytecode": {
          "linkReferences": {},
          "object": "6101ca61003a600b82828239805160001a60731461002d57634e487b7160e01b600052600060045260246000fd5b30600052607381538281f3fe73000000000000000000000000000000000000000030146080604052600436106100a85760003560e01c8063bfc69e1c11610070578063bfc69e1c146100e9578063c2ee3a0814610110578063ccc574901461011f578063d539139314610146578063e63ab1e91461016d57600080fd5b8063249d39e9146100ad57806333d8262c146100c8578063a217fddf146100d0578063a7f0469c146100d8578063bbbbdc4c146100e1575b600080fd5b6100b661271081565b60405190815260200160405180910390f35b6100b6601e81565b6100b6600081565b6100b6610e1081565b6100b6600a81565b6100b67fced6982f480260bdd8ad5cb18ff2854f0306d78d904ad6cc107e8f3a0f526c1881565b6100b6670de0b6b3a764000081565b6100b67f7935bd0ae54bc31f548c14dba4d37c5c64b3f8ca900cb468fb8abd54d5894f5581565b6100b67f9f2df0fed2c77648de5860a4cc508cd0818c85b8b8a1ab4ceeef8d981c8956a681565b6100b67f65d7a28e3265b37a6474929f336521b332c1681b933f6cb9f3376673440d862a8156fea2646970667358221220b511c05da4a5f83ed60e5ee8461b40d9875c2a7ecdbc8329a036009fc3b607ef64736f6c63430008180033",
          "opcodes": "PUSH2 0x1CA PUSH2 0x3A PUSH1 0xB DUP3 DUP3 DUP3 CODECOPY DUP1 MLOAD PUSH1 0x0 BYTE PUSH1 0x73 EQ PUSH2 0x2D JUMPI PUSH4 0x4E487B71 PUSH1 0xE0 SHL PUSH1 0x0 MSTORE PUSH1 0x0 PUSH1 0x4 MSTORE PUSH1 0x24 PUSH1 0x0 REVERT JUMPDEST ADDRESS PUSH1 0x0 MSTORE PUSH1 0x73 DUP2 MSTORE8 DUP3 DUP2 RETURN INVALID PUSH20 0x0 ADDRESS EQ PUSH1 0x80 PUSH1 0x40 MSTORE PUSH1 0x4 CALLDATASIZE LT PUSH2 0xA8 JUMPI PUSH1 0x0 CALLDATALOAD PUSH1 0xE0 SHR DUP1 PUSH4 0xBFC69E1C GT PUSH2 0x70 JUMPI DUP1 PUSH4 0xBFC69E1C EQ PUSH2 0xE9 JUMPI DUP1 PUSH4 0xC2EE3A08 EQ PUSH2 0x110 JUMPI DUP1 PUSH4 0xCCC57490 EQ PUSH2 0x11F JUMPI DUP1 PUSH4 0xD5391393 EQ PUSH2 0x146 JUMPI DUP1 PUSH4 0xE63AB1E9 EQ PUSH2 0x16D JUMPI PUSH1 0x0 DUP1 REVERT JUMPDEST DUP1 PUSH4 0x249D39E9 EQ PUSH2 0xAD JUMPI DUP1 PUSH4 0x33D8262C EQ PUSH2 0xC8 JUMPI DUP1 PUSH4 0xA217FDDF EQ PUSH2 0xD0 JUMPI DUP1 PUSH4 0xA7F0469C EQ PUSH2 0xD8 JUMPI DUP1 PUSH4 0xBBBBDC4C EQ PUSH2 0xE1 JUMPI JUMPDEST PUSH1 0x0 DUP1 REVERT JUMPDEST PUSH2 0xB6 PUSH2 0x2710 DUP2 JUMP JUMPDEST PUSH1 0x40 MLOAD SWAP1 DUP2 MSTORE PUSH1 0x20 ADD PUSH1 0x40 MLOAD DUP1 SWAP2 SUB SWAP1 RETURN JUMPDEST PUSH2 0xB6 PUSH1 0x1E DUP2 JUMP JUMPDEST PUSH2 0xB6 PUSH1 0x0 DUP2 JUMP JUMPDEST PUSH2 0xB6 PUSH2 0xE10 DUP2 JUMP JUMPDEST PUSH2 0xB6 PUSH1 0xA DUP2 JUMP JUMPDEST PUSH2 0xB6 PUSH32 0xCED6982F480260BDD8AD5CB18FF2854F0306D78D904AD6CC107E8F3A0F526C18 DUP2 JUMP JUMPDEST PUSH2 0xB6 PUSH8 0xDE0B6B3A7640000 DUP2 JUMP JUMPDEST PUSH2 0xB6 PUSH32 0x7935BD0AE54BC31F548C14DBA4D37C5C64B3F8CA900CB468FB8ABD54D5894F55 DUP2 JUMP JUMPDEST PUSH2 0xB6 PUSH32 0x9F2DF0FED2C77648DE5860A4CC508CD0818C85B8B8A1AB4CEEEF8D981C8956A6 DUP2 JUMP JUMPDEST PUSH2 0xB6 PUSH32 0x65D7A28E3265B37A6474929F336521B332C1681B933F6CB9F3376673440D862A DUP2 JUMP INVALID LOG2 PUSH5 0x6970667358 0x22 SLT KECCAK256 0xB5 GT 0xC0 TSTORE LOG4 0xA5 0xF8 RETURNDATACOPY 0xD6 0xE MCOPY 0xE8 CHAINID SHL BLOCKHASH 0xD9 DUP8 TLOAD 0x2A PUSH31 0xCDBC8329A036009FC3B607EF64736F6C634300081800330000000000000000 "
        },
        "methodIdentifiers": {
          "BPS()": "249d39e9",
          "DEFAULT_ADMIN_ROLE()": "a217fddf",
          "DEFAULT_FEE_BPS()": "33d8262c",
          "DEFAULT_MAX_AGE()": "a7f0469c",
          "DEFAULT_SPREAD_BPS()": "bbbbdc4c",
          "GOVERNOR_ROLE()": "ccc57490",
          "MINTER_ROLE()": "d5391393",
          "ONE()": "c2ee3a08",
          "ORACLE_MANAGER_ROLE()": "bfc69e1c",
          "PAUSER_ROLE()": "e63ab1e9"
        }
      },
      "storageLayout": {
        "storage": [],
        "types": null
      }
    }
  }
}