{
  "src/AVGXCalculator.sol": {
    "AVGXCalculator2": {
      "abi": [
        {
          "inputs": [
            {
              "internalType": "address",
              "name": "accessController",
              "type": "address"
            },
            {
              "internalType": "address",
              "name": "oracleRouter_",
              "type": "address"
            }
          ],
          "stateMutability": "nonpayable",
          "type": "constructor"
        },
        {
          "inputs": [],
          "name": "AccessControlBadConfirmation",
          "type": "error"
        },
        {
          "inputs": [
            {
              "internalType": "address",
              "name": "account",
              "type": "address"
            },
            {
              "internalType": "bytes32",
              "name": "neededRole",
              "type": "bytes32"
            }
          ],
          "name": "AccessControlUnauthorizedAccount",
          "type": "error"
        },
        {
          "inputs": [],
          "name": "ComponentNotFound",
          "type": "error"
        },
        {
          "inputs": [],
          "name": "DuplicateComponent",
          "type": "error"
        },
        {
          "inputs": [],
          "name": "EnforcedPause",
          "type": "error"
        },
        {
          "inputs": [],
          "name": "ExpectedPause",
          "type": "error"
        },
        {
          "inputs": [],
          "name": "InvalidWeights",
          "type": "error"
        },
        {
          "inputs": [],
          "name": "MathOverflow",
          "type": "error"
        },
        {
          "anonymous": false,
          "inputs": [
            {
              "indexed": true,
              "internalType": "bytes32",
              "name": "assetId",
              "type": "bytes32"
            },
            {
              "indexed": false,
              "internalType": "bool",
              "name": "isFiat",
              "type": "bool"
            }
          ],
          "name": "ComponentRemoved",
          "type": "event"
        },
        {
          "anonymous": false,
          "inputs": [
            {
              "components": [
                {
                  "internalType": "bytes32",
                  "name": "assetId",
                  "type": "bytes32"
                },
                {
                  "internalType": "uint256",
                  "name": "weightBps",
                  "type": "uint256"
                },
                {
                  "internalType": "uint8",
                  "name": "decimals",
                  "type": "uint8"
                }
              ],
              "indexed": false,
              "internalType": "struct IAVGXCalculator.Component[]",
              "name": "fiatComponents",
              "type": "tuple[]"
            },
            {
              "components": [
                {
                  "internalType": "bytes32",
                  "name": "assetId",
                  "type": "bytes32"
                },
                {
                  "internalType": "uint256",
                  "name": "weightBps",
                  "type": "uint256"
                },
                {
                  "internalType": "uint8",
                  "name": "decimals",
                  "type": "uint8"
                }
              ],
              "indexed": false,
              "internalType": "struct IAVGXCalculator.Component[]",
              "name": "cryptoComponents",
              "type": "tuple[]"
            }
          ],
          "name": "ComponentsUpdated",
          "type": "event"
        },
        {
          "anonymous": false,
          "inputs": [
            {
              "indexed": true,
              "internalType": "bytes32",
              "name": "assetId",
              "type": "bytes32"
            },
            {
              "indexed": false,
              "internalType": "uint256",
              "name": "weightBps",
              "type": "uint256"
            }
          ],
          "name": "CryptoComponentAdded",
          "type": "event"
        },
        {
          "anonymous": false,
          "inputs": [
            {
              "indexed": true,
              "internalType": "bytes32",
              "name": "assetId",
              "type": "bytes32"
            },
            {
              "indexed": false,
              "internalType": "uint256",
              "name": "weightBps",
              "type": "uint256"
            }
          ],
          "name": "FiatComponentAdded",
          "type": "event"
        },
        {
          "anonymous": false,
          "inputs": [
            {
              "indexed": false,
              "internalType": "address",
              "name": "account",
              "type": "address"
            }
          ],
          "name": "Paused",
          "type": "event"
        },
        {
          "anonymous": false,
          "inputs": [
            {
              "indexed": true,
              "internalType": "bytes32",
              "name": "role",
              "type": "bytes32"
            },
            {
              "indexed": true,
              "internalType": "bytes32",
              "name": "previousAdminRole",
              "type": "bytes32"
            },
            {
              "indexed": true,
              "internalType": "bytes32",
              "name": "newAdminRole",
              "type": "bytes32"
            }
          ],
          "name": "RoleAdminChanged",
          "type": "event"
        },
        {
          "anonymous": false,
          "inputs": [
            {
              "indexed": true,
              "internalType": "bytes32",
              "name": "role",
              "type": "bytes32"
            },
            {
              "indexed": true,
              "internalType": "address",
              "name": "account",
              "type": "address"
            },
            {
              "indexed": true,
              "internalType": "address",
              "name": "sender",
              "type": "address"
            }
          ],
          "name": "RoleGranted",
          "type": "event"
        },
        {
          "anonymous": false,
          "inputs": [
            {
              "indexed": true,
              "internalType": "bytes32",
              "name": "role",
              "type": "bytes32"
            },
            {
              "indexed": true,
              "internalType": "address",
              "name": "account",
              "type": "address"
            },
            {
              "indexed": true,
              "internalType": "address",
              "name": "sender",
              "type": "address"
            }
          ],
          "name": "RoleRevoked",
          "type": "event"
        },
        {
          "anonymous": false,
          "inputs": [
            {
              "indexed": false,
              "internalType": "address",
              "name": "account",
              "type": "address"
            }
          ],
          "name": "Unpaused",
          "type": "event"
        },
        {
          "inputs": [],
          "name": "DEFAULT_ADMIN_ROLE",
          "outputs": [
            {
              "internalType": "bytes32",
              "name": "",
              "type": "bytes32"
            }
          ],
          "stateMutability": "view",
          "type": "function"
        },
        {
          "inputs": [
            {
              "internalType": "bytes32",
              "name": "assetId",
              "type": "bytes32"
            },
            {
              "internalType": "uint256",
              "name": "weightBps",
              "type": "uint256"
            },
            {
              "internalType": "uint8",
              "name": "decimals",
              "type": "uint8"
            }
          ],
          "name": "addCryptoComponent",
          "outputs": [],
          "stateMutability": "nonpayable",
          "type": "function"
        },
        {
          "inputs": [
            {
              "internalType": "bytes32",
              "name": "assetId",
              "type": "bytes32"
            },
            {
              "internalType": "uint256",
              "name": "weightBps",
              "type": "uint256"
            },
            {
              "internalType": "uint8",
              "name": "decimals",
              "type": "uint8"
            }
          ],
          "name": "addFiatComponent",
          "outputs": [],
          "stateMutability": "nonpayable",
          "type": "function"
        },
        {
          "inputs": [],
          "name": "currentIndex",
          "outputs": [
            {
              "internalType": "uint256",
              "name": "priceE18",
              "type": "uint256"
            }
          ],
          "stateMutability": "view",
          "type": "function"
        },
        {
          "inputs": [],
          "name": "getCryptoComponents",
          "outputs": [
            {
              "components": [
                {
                  "internalType": "bytes32",
                  "name": "assetId",
                  "type": "bytes32"
                },
                {
                  "internalType": "uint256",
                  "name": "weightBps",
                  "type": "uint256"
                },
                {
                  "internalType": "uint8",
                  "name": "decimals",
                  "type": "uint8"
                }
              ],
              "internalType": "struct IAVGXCalculator.Component[]",
              "name": "components",
              "type": "tuple[]"
            }
          ],
          "stateMutability": "view",
          "type": "function"
        },
        {
          "inputs": [],
          "name": "getFiatComponents",
          "outputs": [
            {
              "components": [
                {
                  "internalType": "bytes32",
                  "name": "assetId",
                  "type": "bytes32"
                },
                {
                  "internalType": "uint256",
                  "name": "weightBps",
                  "type": "uint256"
                },
                {
                  "internalType": "uint8",
                  "name": "decimals",
                  "type": "uint8"
                }
              ],
              "internalType": "struct IAVGXCalculator.Component[]",
              "name": "components",
              "type": "tuple[]"
            }
          ],
          "stateMutability": "view",
          "type": "function"
        },
        {
          "inputs": [
            {
              "internalType": "bytes32",
              "name": "role",
              "type": "bytes32"
            }
          ],
          "name": "getRoleAdmin",
          "outputs": [
            {
              "internalType": "bytes32",
              "name": "",
              "type": "bytes32"
            }
          ],
          "stateMutability": "view",
          "type": "function"
        },
        {
          "inputs": [],
          "name": "getTotalCryptoWeight",
          "outputs": [
            {
              "internalType": "uint256",
              "name": "totalWeight",
              "type": "uint256"
            }
          ],
          "stateMutability": "view",
          "type": "function"
        },
        {
          "inputs": [],
          "name": "getTotalFiatWeight",
          "outputs": [
            {
              "internalType": "uint256",
              "name": "totalWeight",
              "type": "uint256"
            }
          ],
          "stateMutability": "view",
          "type": "function"
        },
        {
          "inputs": [
            {
              "internalType": "bytes32",
              "name": "role",
              "type": "bytes32"
            },
            {
              "internalType": "address",
              "name": "account",
              "type": "address"
            }
          ],
          "name": "grantRole",
          "outputs": [],
          "stateMutability": "nonpayable",
          "type": "function"
        },
        {
          "inputs": [
            {
              "internalType": "bytes32",
              "name": "role",
              "type": "bytes32"
            },
            {
              "internalType": "address",
              "name": "account",
              "type": "address"
            }
          ],
          "name": "hasRole",
          "outputs": [
            {
              "internalType": "bool",
              "name": "",
              "type": "bool"
            }
          ],
          "stateMutability": "view",
          "type": "function"
        },
        {
          "inputs": [],
          "name": "oracleRouter",
          "outputs": [
            {
              "internalType": "contract IAVGXOracleRouter",
              "name": "",
              "type": "address"
            }
          ],
          "stateMutability": "view",
          "type": "function"
        },
        {
          "inputs": [],
          "name": "pause",
          "outputs": [],
          "stateMutability": "nonpayable",
          "type": "function"
        },
        {
          "inputs": [],
          "name": "paused",
          "outputs": [
            {
              "internalType": "bool",
              "name": "",
              "type": "bool"
            }
          ],
          "stateMutability": "view",
          "type": "function"
        },
        {
          "inputs": [
            {
              "internalType": "bytes32",
              "name": "assetId",
              "type": "bytes32"
            },
            {
              "internalType": "bool",
              "name": "isFiat",
              "type": "bool"
            }
          ],
          "name": "removeComponent",
          "outputs": [],
          "stateMutability": "nonpayable",
          "type": "function"
        },
        {
          "inputs": [
            {
              "internalType": "bytes32",
              "name": "role",
              "type": "bytes32"
            },
            {
              "internalType": "address",
              "name": "callerConfirmation",
              "type": "address"
            }
          ],
          "name": "renounceRole",
          "outputs": [],
          "stateMutability": "nonpayable",
          "type": "function"
        },
        {
          "inputs": [
            {
              "internalType": "bytes32",
              "name": "role",
              "type": "bytes32"
            },
            {
              "internalType": "address",
              "name": "account",
              "type": "address"
            }
          ],
          "name": "revokeRole",
          "outputs": [],
          "stateMutability": "nonpayable",
          "type": "function"
        },
        {
          "inputs": [
            {
              "internalType": "bytes4",
              "name": "interfaceId",
              "type": "bytes4"
            }
          ],
          "name": "supportsInterface",
          "outputs": [
            {
              "internalType": "bool",
              "name": "",
              "type": "bool"
            }
          ],
          "stateMutability": "view",
          "type": "function"
        },
        {
          "inputs": [],
          "name": "unpause",
          "outputs": [],
          "stateMutability": "nonpayable",
          "type": "function"
        },
        {
          "inputs": [
            {
              "internalType": "bytes32",
              "name": "assetId",
              "type": "bytes32"
            },
            {
              "internalType": "uint256",
              "name": "weightBps",
              "type": "uint256"
            },
            {
              "internalType": "bool",
              "name": "isFiat",
              "type": "bool"
            }
          ],
          "name": "updateComponentWeight",
          "outputs": [],
          "stateMutability": "nonpayable",
          "type": "function"
        }
      ],
      "evm": {
        "bytecode": {
          "linkReferences": {},
          "object": "60a06040523480156200001157600080fd5b506040516200185538038062001855833981016040819052620000349162000195565b6200003f826200006b565b6200004a816200006b565b62000057600083620000c9565b506001600160a01b031660805250620001cd565b6001600160a01b038116620000c65760405162461bcd60e51b815260206004820152601360248201527f526f6c65733a205a65726f206164647265737300000000000000000000000000604482015260640160405180910390fd5b50565b6000828152602081815260408083206001600160a01b038516845290915281205460ff166200016e576000838152602081815260408083206001600160a01b03861684529091529020805460ff19166001179055620001253390565b6001600160a01b0316826001600160a01b0316847f2f8788117e7eff1d82e926ec794901d17c78024a50270940304540a733656f0d60405160405180910390a450600162000172565b5060005b92915050565b80516001600160a01b03811681146200019057600080fd5b919050565b60008060408385031215620001a957600080fd5b620001b48362000178565b9150620001c46020840162000178565b90509250929050565b608051611665620001f0600039600081816101ed0152610c9e01526116656000f3fe608060405234801561001057600080fd5b506004361061012c5760003560e01c806371871187116100ad578063a217fddf11610071578063a217fddf1461027d578063b150fe2c14610285578063d547741f14610298578063e9099794146102ab578063e9d83142146102b357600080fd5b806371871187146102325780638456cb59146102475780638c06651e1461024f5780638c8708f81461025757806391d148541461026a57600080fd5b806336a4f825116100f457806336a4f825146101ba5780633f4ba83a146101cd5780634841aad1146101d557806355a29e91146101e85780635c975abb1461022757600080fd5b806301ffc9a714610131578063248a9ca31461015957806326987b601461018a5780632f2ff15d1461019257806336568abe146101a7575b600080fd5b61014461013f366004611332565b6102bb565b60405190151581526020015b60405180910390f35b61017c61016736600461135c565b60009081526020819052604090206001015490565b604051908152602001610150565b61017c6102f2565b6101a56101a0366004611375565b61041b565b005b6101a56101b5366004611375565b610446565b6101a56101c83660046113c6565b61047e565b6101a56105b4565b6101a56101e33660046113fb565b6105e9565b61020f7f000000000000000000000000000000000000000000000000000000000000000081565b6040516001600160a01b039091168152602001610150565b60015460ff16610144565b61023a61064e565b604051610150919061143a565b6101a56106ca565b61017c6106fc565b6101a56102653660046113fb565b610748565b610144610278366004611375565b61079f565b61017c600081565b6101a5610293366004611496565b6107c8565b6101a56102a6366004611375565b610abf565b61023a610ae4565b61017c610b56565b60006001600160e01b03198216637965db0b60e01b14806102ec57506301ffc9a760e01b6001600160e01b03198316145b92915050565b60006102fc610b9e565b610304610bc4565b60006103836002805480602002602001604051908101604052809291908181526020016000905b8282101561037a5760008481526020908190206040805160608101825260038602909201805483526001808201548486015260029091015460ff1691830191909152908352909201910161032b565b50505050610c8c565b905060006103fa6003805480602002602001604051908101604052809291908181526020016000908282101561037a5760008481526020908190206040805160608101825260038602909201805483526001808201548486015260029091015460ff1691830191909152908352909201910161032b565b905060006104088383610dfd565b905061041381610e5d565b935050505090565b60008281526020819052604090206001015461043681610ecf565b6104408383610ed9565b50505050565b6001600160a01b038116331461046f5760405163334bd91960e11b815260040160405180910390fd5b6104798282610f6b565b505050565b60008051602061161083398151915261049681610ecf565b61049f83610fd6565b811561050e57600084815260046020526040812054908190036104d557604051637d91856360e01b815260040160405180910390fd5b8360026104e36001846114d8565b815481106104f3576104f36114eb565b90600052602060002090600302016001018190555050610573565b6000848152600560205260408120549081900361053e57604051637d91856360e01b815260040160405180910390fd5b83600361054c6001846114d8565b8154811061055c5761055c6114eb565b906000526020600020906003020160010181905550505b7fd88f31685290e21dec91025c964bf29db2aad526d76829ee2e93a6ca900ff367600260036040516105a692919061155b565b60405180910390a150505050565b7f65d7a28e3265b37a6474929f336521b332c1681b933f6cb9f3376673440d862a6105de81610ecf565b6105e6611022565b50565b60008051602061161083398151915261060181610ecf565b61060e8484846000611074565b837fa460cacd45eaabab3756f62a65c9903ca11e9c14d14ded61f721adf9945a77268460405161064091815260200190565b60405180910390a250505050565b60606002805480602002602001604051908101604052809291908181526020016000905b828210156106c15760008481526020908190206040805160608101825260038602909201805483526001808201548486015260029091015460ff16918301919091529083529092019101610672565b50505050905090565b7f65d7a28e3265b37a6474929f336521b332c1681b933f6cb9f3376673440d862a6106f481610ecf565b6105e661129b565b6000805b600254811015610744576002818154811061071d5761071d6114eb565b9060005260206000209060030201600101548261073a9190611589565b9150600101610700565b5090565b60008051602061161083398151915261076081610ecf565b61076d8484846001611074565b837f4b17b913ece299c0103be8de1e3b17061de970550db78ffecc45acb798c73e7a8460405161064091815260200190565b6000918252602082815260408084206001600160a01b0393909316845291905290205460ff1690565b6000805160206116108339815191526107e081610ecf565b8115610932576000838152600460205260408120549081900361081657604051637d91856360e01b815260040160405180910390fd5b60028054610826906001906114d8565b81548110610836576108366114eb565b9060005260206000209060030201600260018361085391906114d8565b81548110610863576108636114eb565b600091825260208220835460039092020190815560018084015481830155600293840154918401805460ff191660ff909316929092179091558392600492916108ac90856114d8565b815481106108bc576108bc6114eb565b90600052602060002090600302016000015481526020019081526020016000208190555060028054806108f1576108f161159c565b6000828152602080822060036000199094019384020182815560018101839055600201805460ff191690559190925585825260049052604081205550610a7e565b6000838152600560205260408120549081900361096257604051637d91856360e01b815260040160405180910390fd5b60038054610972906001906114d8565b81548110610982576109826114eb565b9060005260206000209060030201600360018361099f91906114d8565b815481106109af576109af6114eb565b600091825260208220835460039283029091019081556001808501548183015560029485015494909101805460ff191660ff90951694909417909355839260059291906109fc90856114d8565b81548110610a0c57610a0c6114eb565b9060005260206000209060030201600001548152602001908152602001600020819055506003805480610a4157610a4161159c565b6000828152602080822060036000199094019384020182815560018101839055600201805460ff1916905591909255858252600590526040812055505b827f8ae47e1daa8dc53f1545a09bc0dfc8839ef0f1e5a66ec3d89fea378119be9ec083604051610ab2911515815260200190565b60405180910390a2505050565b600082815260208190526040902060010154610ada81610ecf565b6104408383610f6b565b6060600380548060200260200160405190810160405280929190818152602001600090828210156106c15760008481526020908190206040805160608101825260038602909201805483526001808201548486015260029091015460ff16918301919091529083529092019101610672565b6000805b6003548110156107445760038181548110610b7757610b776114eb565b90600052602060002090600302016001015482610b949190611589565b9150600101610b5a565b60015460ff1615610bc25760405163d93c066560e01b815260040160405180910390fd5b565b60008060005b600254811015610c0e5760028181548110610be757610be76114eb565b90600052602060002090600302016001015483610c049190611589565b9250600101610bca565b5060005b600354811015610c565760038181548110610c2f57610c2f6114eb565b90600052602060002090600302016001015482610c4c9190611589565b9150600101610c12565b5061271082141580610c6a57506127108114155b15610c885760405163108cef9d60e31b815260040160405180910390fd5b5050565b600080805b8351811015610dd75760007f00000000000000000000000000000000000000000000000000000000000000006001600160a01b031663ed1167c1868481518110610cdd57610cdd6114eb565b6020026020010151600001516040518263ffffffff1660e01b8152600401610d0791815260200190565b6040805180830381865afa158015610d23573d6000803e3d6000fd5b505050506040513d601f19601f82011682018060405250810190610d4791906115b2565b5090506000610d94612710670de0b6b3a7640000888681518110610d6d57610d6d6114eb565b602002602001015160200151610d8391906115d6565b610d8d91906115ed565b8390610dfd565b9050610da08186611589565b9450858381518110610db457610db46114eb565b60200260200101516020015184610dcb9190611589565b93505050600101610c91565b508015610df757610dea612710826115ed565b610df490836115ed565b91505b50919050565b600082600003610e0f575060006102ec565b610e1982846115d6565b905081610e2684836115ed565b14610e4457604051634eab2ea760e11b815260040160405180910390fd5b610e56670de0b6b3a7640000826115ed565b9392505050565b600081600003610e6f57506000919050565b60006002610e7e846001611589565b610e8891906115ed565b90508291505b81811015610ec157905080600281610ea681866115ed565b610eb09190611589565b610eba91906115ed565b9050610e8e565b610df482633b9aca006115d6565b6105e681336112d6565b6000610ee5838361079f565b610f63576000838152602081815260408083206001600160a01b03861684529091529020805460ff19166001179055610f1b3390565b6001600160a01b0316826001600160a01b0316847f2f8788117e7eff1d82e926ec794901d17c78024a50270940304540a733656f0d60405160405180910390a45060016102ec565b5060006102ec565b6000610f77838361079f565b15610f63576000838152602081815260408083206001600160a01b0386168085529252808320805460ff1916905551339286917ff6391f5c32d9c69d2a47ea670b442974b53935d1edc7fd64eb21e047a839171b9190a45060016102ec565b6127108111156105e65760405162461bcd60e51b8152602060048201526012602482015271526f6c65733a20496e76616c69642042505360701b60448201526064015b60405180910390fd5b61102a61130f565b6001805460ff191690557f5db9ee0a495bf2e6ff9c91a7834c1ba4fdd244a5e8aa4e537bd38aeae4b073aa335b6040516001600160a01b03909116815260200160405180910390a1565b61107d83610fd6565b801561117957600084815260046020526040902054156110b05760405163172dd05560e11b815260040160405180910390fd5b60408051606081018252858152602080820186815260ff86811684860190815260028054600181018255600082815296517f405787fa12a823e0f2b7631cc41b3ba8828b3321ca811111fa75cd3aa3bb5ace60039092029182015593517f405787fa12a823e0f2b7631cc41b3ba8828b3321ca811111fa75cd3aa3bb5acf85015590517f405787fa12a823e0f2b7631cc41b3ba8828b3321ca811111fa75cd3aa3bb5ad0909301805460ff19169390921692909217905554878352600490915291902055610573565b600084815260056020526040902054156111a65760405163172dd05560e11b815260040160405180910390fd5b60408051606081018252858152602080820186815260ff86811684860190815260038054600181018255600082815296517fc2575a0e9e593c00f959f8c92f12db2869c3395a3b0502d05e2516446f71f85b9183029182015593517fc2575a0e9e593c00f959f8c92f12db2869c3395a3b0502d05e2516446f71f85c85015590517fc2575a0e9e593c00f959f8c92f12db2869c3395a3b0502d05e2516446f71f85d909301805460ff19169390921692909217905580548884526005909252918390205590517fd88f31685290e21dec91025c964bf29db2aad526d76829ee2e93a6ca900ff367916105a6916002919061155b565b6112a3610b9e565b6001805460ff1916811790557f62e78cea01bee320cd4e420270b5ea74000d11b0c9f74754ebdbfc544b05a25833611057565b6112e0828261079f565b610c885760405163e2517d3f60e01b81526001600160a01b038216600482015260248101839052604401611019565b60015460ff16610bc257604051638dfc202b60e01b815260040160405180910390fd5b60006020828403121561134457600080fd5b81356001600160e01b031981168114610e5657600080fd5b60006020828403121561136e57600080fd5b5035919050565b6000806040838503121561138857600080fd5b8235915060208301356001600160a01b03811681146113a657600080fd5b809150509250929050565b803580151581146113c157600080fd5b919050565b6000806000606084860312156113db57600080fd5b83359250602084013591506113f2604085016113b1565b90509250925092565b60008060006060848603121561141057600080fd5b8335925060208401359150604084013560ff8116811461142f57600080fd5b809150509250925092565b602080825282518282018190526000919060409081850190868401855b8281101561148957815180518552868101518786015285015160ff168585015260609093019290850190600101611457565b5091979650505050505050565b600080604083850312156114a957600080fd5b823591506114b9602084016113b1565b90509250929050565b634e487b7160e01b600052601160045260246000fd5b818103818111156102ec576102ec6114c2565b634e487b7160e01b600052603260045260246000fd5b600081548084526020808501945083600052602060002060005b83811015611550578154875260018083015484890152600283015460ff1660408901526060909701966003909201910161151b565b509495945050505050565b60408152600061156e6040830185611501565b82810360208401526115808185611501565b95945050505050565b808201808211156102ec576102ec6114c2565b634e487b7160e01b600052603160045260246000fd5b600080604083850312156115c557600080fd5b505080516020909101519092909150565b80820281158282048414176102ec576102ec6114c2565b60008261160a57634e487b7160e01b600052601260045260246000fd5b50049056fe7935bd0ae54bc31f548c14dba4d37c5c64b3f8ca900cb468fb8abd54d5894f55a2646970667358221220cbb647bfc90641dfd56c8991b296a2b0523ce82eb27ca4730eeae1ebf9bfaa9364736f6c63430008180033",
          "opcodes": "PUSH1 0xA0 PUSH1 0x40 MSTORE CALLVALUE DUP1 ISZERO PUSH3 0x11 JUMPI PUSH1 0x0 DUP1 REVERT JUMPDEST POP PUSH1 0x40 MLOAD PUSH3 0x1855 CODESIZE SUB DUP1 PUSH3 0x1855 DUP4 CODECOPY DUP2 ADD PUSH1 0x40 DUP2 SWAP1 MSTORE PUSH3 0x34 SWAP2 PUSH3 0x195 JUMP JUMPDEST PUSH3 0x3F DUP3 PUSH3 0x6B JUMP JUMPDEST PUSH3 0x4A DUP2 PUSH3 0x6B JUMP JUMPDEST PUSH3 0x57 PUSH1 0x0 DUP4 PUSH3 0xC9 JUMP JUMPDEST POP PUSH1 0x1 PUSH1 0x1 PUSH1 0xA0 SHL SUB AND PUSH1 0x80 MSTORE POP PUSH3 0x1CD JUMP JUMPDEST PUSH1 0x1 PUSH1 0x1 PUSH1 0xA0 SHL SUB DUP2 AND PUSH3 0xC6 JUMPI PUSH1 0x40 MLOAD PUSH3 0x461BCD PUSH1 0xE5 SHL DUP2 MSTORE PUSH1 0x20 PUSH1 0x4 DUP3 ADD MSTORE PUSH1 0x13 PUSH1 0x24 DUP3 ADD MSTORE PUSH32 0x526F6C65733A205A65726F206164647265737300000000000000000000000000 PUSH1 0x44 DUP3 ADD MSTORE PUSH1 0x64 ADD PUSH1 0x40 MLOAD DUP1 SWAP2 SUB SWAP1 REVERT JUMPDEST POP JUMP JUMPDEST PUSH1 0x0 DUP3 DUP2 MSTORE PUSH1 0x20 DUP2 DUP2 MSTORE PUSH1 0x40 DUP1 DUP4 KECCAK256 PUSH1 0x1 PUSH1 0x1 PUSH1 0xA0 SHL SUB DUP6 AND DUP5 MSTORE SWAP1 SWAP2 MSTORE DUP2 KECCAK256 SLOAD PUSH1 0xFF AND PUSH3 0x16E JUMPI PUSH1 0x0 DUP4 DUP2 MSTORE PUSH1 0x20 DUP2 DUP2 MSTORE PUSH1 0x40 DUP1 DUP4 KECCAK256 PUSH1 0x1 PUSH1 0x1 PUSH1 0xA0 SHL SUB DUP7 AND DUP5 MSTORE SWAP1 SWAP2 MSTORE SWAP1 KECCAK256 DUP1 SLOAD PUSH1 0xFF NOT AND PUSH1 0x1 OR SWAP1 SSTORE PUSH3 0x125 CALLER SWAP1 JUMP JUMPDEST PUSH1 0x1 PUSH1 0x1 PUSH1 0xA0 SHL SUB AND DUP3 PUSH1 0x1 PUSH1 0x1 PUSH1 0xA0 SHL SUB AND DUP5 PUSH32 0x2F8788117E7EFF1D82E926EC794901D17C78024A50270940304540A733656F0D PUSH1 0x40 MLOAD PUSH1 0x40 MLOAD DUP1 SWAP2 SUB SWAP1 LOG4 POP PUSH1 0x1 PUSH3 0x172 JUMP JUMPDEST POP PUSH1 0x0 JUMPDEST SWAP3 SWAP2 POP POP JUMP JUMPDEST DUP1 MLOAD PUSH1 0x1 PUSH1 0x1 PUSH1 0xA0 SHL SUB DUP2 AND DUP2 EQ PUSH3 0x190 JUMPI PUSH1 0x0 DUP1 REVERT JUMPDEST SWAP2 SWAP1 POP JUMP JUMPDEST PUSH1 0x0 DUP1 PUSH1 0x40 DUP4 DUP6 SUB SLT ISZERO PUSH3 0x1A9 JUMPI PUSH1 0x0 DUP1 REVERT JUMPDEST PUSH3 0x1B4 DUP4 PUSH3 0x178 JUMP JUMPDEST SWAP2 POP PUSH3 0x1C4 PUSH1 0x20 DUP5 ADD PUSH3 0x178 JUMP JUMPDEST SWAP1 POP SWAP3 POP SWAP3 SWAP1 POP JUMP JUMPDEST PUSH1 0x80 MLOAD PUSH2 0x1665 PUSH3 0x1F0 PUSH1 0x0 CODECOPY PUSH1 0x0 DUP2 DUP2 PUSH2 0x1ED ADD MSTORE PUSH2 0xC9E ADD MSTORE PUSH2 0x1665 PUSH1 0x0 RETURN INVALID PUSH1 0x80 PUSH1 0x40 MSTORE CALLVALUE DUP1 ISZERO PUSH2 0x10 JUMPI PUSH1 0x0 DUP1 REVERT JUMPDEST POP PUSH1 0x4 CALLDATASIZE LT PUSH2 0x12C JUMPI PUSH1 0x0 CALLDATALOAD PUSH1 0xE0 SHR DUP1 PUSH4 0x71871187 GT PUSH2 0xAD JUMPI DUP1 PUSH4 0xA217FDDF GT PUSH2 0x71 JUMPI DUP1 PUSH4 0xA217FDDF EQ PUSH2 0x27D JUMPI DUP1 PUSH4 0xB150FE2C EQ PUSH2 0x285 JUMPI DUP1 PUSH4 0xD547741F EQ PUSH2 0x298 JUMPI DUP1 PUSH4 0xE9099794 EQ PUSH2 0x2AB JUMPI DUP1 PUSH4 0xE9D83142 EQ PUSH2 0x2B3 JUMPI PUSH1 0x0 DUP1 REVERT JUMPDEST DUP1 PUSH4 0x71871187 EQ PUSH2 0x232 JUMPI DUP1 PUSH4 0x8456CB59 EQ PUSH2 0x247 JUMPI DUP1 PUSH4 0x8C06651E EQ PUSH2 0x24F JUMPI DUP1 PUSH4 0x8C8708F8 EQ PUSH2 0x257 JUMPI DUP1 PUSH4 0x91D14854 EQ PUSH2 0x26A JUMPI PUSH1 0x0 DUP1 REVERT JUMPDEST DUP1 PUSH4 0x36A4F825 GT PUSH2 0xF4 JUMPI DUP1 PUSH4 0x36A4F825 EQ PUSH2 0x1BA JUMPI DUP1 PUSH4 0x3F4BA83A EQ PUSH2 0x1CD JUMPI DUP1 PUSH4 0x4841AAD1 EQ PUSH2 0x1D5 JUMPI DUP1 PUSH4 0x55A29E91 EQ PUSH2 0x1E8 JUMPI DUP1 PUSH4 0x5C975ABB EQ PUSH2 0x227 JUMPI PUSH1 0x0 DUP1 REVERT JUMPDEST DUP1 PUSH4 0x1FFC9A7 EQ PUSH2 0x131 JUMPI DUP1 PUSH4 0x248A9CA3 EQ PUSH2 0x159 JUMPI DUP1 PUSH4 0x26987B60 EQ PUSH2 0x18A JUMPI DUP1 PUSH4 0x2F2FF15D EQ PUSH2 0x192 JUMPI DUP1 PUSH4 0x36568ABE EQ PUSH2 0x1A7 JUMPI JUMPDEST PUSH1 0x0 DUP1 REVERT JUMPDEST PUSH2 0x144 PUSH2 0x13F CALLDATASIZE PUSH1 0x4 PUSH2 0x1332 JUMP JUMPDEST PUSH2 0x2BB JUMP JUMPDEST PUSH1 0x40 MLOAD SWAP1 ISZERO ISZERO DUP2 MSTORE PUSH1 0x20 ADD JUMPDEST PUSH1 0x40 MLOAD DUP1 SWAP2 SUB SWAP1 RETURN JUMPDEST PUSH2 0x17C PUSH2 0x167 CALLDATASIZE PUSH1 0x4 PUSH2 0x135C JUMP JUMPDEST PUSH1 0x0 SWAP1 DUP2 MSTORE PUSH1 0x20 DUP2 SWAP1 MSTORE PUSH1 0x40 SWAP1 KECCAK256 PUSH1 0x1 ADD SLOAD SWAP1 JUMP JUMPDEST PUSH1 0x40 MLOAD SWAP1 DUP2 MSTORE PUSH1 0x20 ADD PUSH2 0x150 JUMP JUMPDEST PUSH2 0x17C PUSH2 0x2F2 JUMP JUMPDEST PUSH2 0x1A5 PUSH2 0x1A0 CALLDATASIZE PUSH1 0x4 PUSH2 0x1375 JUMP JUMPDEST PUSH2 0x41B JUMP JUMPDEST STOP JUMPDEST PUSH2 0x1A5 PUSH2 0x1B5 CALLDATASIZE PUSH1 0x4 PUSH2 0x1375 JUMP JUMPDEST PUSH2 0x446 JUMP JUMPDEST PUSH2 0x1A5 PUSH2 0x1C8 CALLDATASIZE PUSH1 0x4 PUSH2 0x13C6 JUMP JUMPDEST PUSH2 0x47E JUMP JUMPDEST PUSH2 0x1A5 PUSH2 0x5B4 JUMP JUMPDEST PUSH2 0x1A5 PUSH2 0x1E3 CALLDATASIZE PUSH1 0x4 PUSH2 0x13FB JUMP JUMPDEST PUSH2 0x5E9 JUMP JUMPDEST PUSH2 0x20F PUSH32 0x0 DUP2 JUMP JUMPDEST PUSH1 0x40 MLOAD PUSH1 0x1 PUSH1 0x1 PUSH1 0xA0 SHL SUB SWAP1 SWAP2 AND DUP2 MSTORE PUSH1 0x20 ADD PUSH2 0x150 JUMP JUMPDEST PUSH1 0x1 SLOAD PUSH1 0xFF AND PUSH2 0x144 JUMP JUMPDEST PUSH2 0x23A PUSH2 0x64E JUMP JUMPDEST PUSH1 0x40 MLOAD PUSH2 0x150 SWAP2 SWAP1 PUSH2 0x143A JUMP JUMPDEST PUSH2 0x1A5 PUSH2 0x6CA JUMP JUMPDEST PUSH2 0x17C PUSH2 0x6FC JUMP JUMPDEST PUSH2 0x1A5 PUSH2 0x265 CALLDATASIZE PUSH1 0x4 PUSH2 0x13FB JUMP JUMPDEST PUSH2 0x748 JUMP JUMPDEST PUSH2 0x144 PUSH2 0x278 CALLDATASIZE PUSH1 0x4 PUSH2 0x1375 JUMP JUMPDEST PUSH2 0x79F JUMP JUMPDEST PUSH2 0x17C PUSH1 0x0 DUP2 JUMP JUMPDEST PUSH2 0x1A5 PUSH2 0x293 CALLDATASIZE PUSH1 0x4 PUSH2 0x1496 JUMP JUMPDEST PUSH2 0x7C8 JUMP JUMPDEST PUSH2 0x1A5 PUSH2 0x2A6 CALLDATASIZE PUSH1 0x4 PUSH2 0x1375 JUMP JUMPDEST PUSH2 0xABF JUMP JUMPDEST PUSH2 0x23A PUSH2 0xAE4 JUMP JUMPDEST PUSH2 0x17C PUSH2 0xB56 JUMP JUMPDEST PUSH1 0x0 PUSH1 0x1 PUSH1 0x1 PUSH1 0xE0 SHL SUB NOT DUP3 AND PUSH4 0x7965DB0B PUSH1 0xE0 SHL EQ DUP1 PUSH2 0x2EC JUMPI POP PUSH4 0x1FFC9A7 PUSH1 0xE0 SHL PUSH1 0x1 PUSH1 0x1 PUSH1 0xE0 SHL SUB NOT DUP4 AND EQ JUMPDEST SWAP3 SWAP2 POP POP JUMP JUMPDEST PUSH1 0x0 PUSH2 0x2FC PUSH2 0xB9E JUMP JUMPDEST PUSH2 0x304 PUSH2 0xBC4 JUMP JUMPDEST PUSH1 0x0 PUSH2 0x383 PUSH1 0x2 DUP1 SLOAD DUP1 PUSH1 0x20 MUL PUSH1 0x20 ADD PUSH1 0x40 MLOAD SWAP1 DUP2 ADD PUSH1 0x40 MSTORE DUP1 SWAP3 SWAP2 SWAP1 DUP2 DUP2 MSTORE PUSH1 0x20 ADD PUSH1 0x0 SWAP1 JUMPDEST DUP3 DUP3 LT ISZERO PUSH2 0x37A JUMPI PUSH1 0x0 DUP5 DUP2 MSTORE PUSH1 0x20 SWAP1 DUP2 SWAP1 KECCAK256 PUSH1 0x40 DUP1 MLOAD PUSH1 0x60 DUP2 ADD DUP3 MSTORE PUSH1 0x3 DUP7 MUL SWAP1 SWAP3 ADD DUP1 SLOAD DUP4 MSTORE PUSH1 0x1 DUP1 DUP3 ADD SLOAD DUP5 DUP7 ADD MSTORE PUSH1 0x2 SWAP1 SWAP2 ADD SLOAD PUSH1 0xFF AND SWAP2 DUP4 ADD SWAP2 SWAP1 SWAP2 MSTORE SWAP1 DUP4 MSTORE SWAP1 SWAP3 ADD SWAP2 ADD PUSH2 0x32B JUMP JUMPDEST POP POP POP POP PUSH2 0xC8C JUMP JUMPDEST SWAP1 POP PUSH1 0x0 PUSH2 0x3FA PUSH1 0x3 DUP1 SLOAD DUP1 PUSH1 0x20 MUL PUSH1 0x20 ADD PUSH1 0x40 MLOAD SWAP1 DUP2 ADD PUSH1 0x40 MSTORE DUP1 SWAP3 SWAP2 SWAP1 DUP2 DUP2 MSTORE PUSH1 0x20 ADD PUSH1 0x0 SWAP1 DUP3 DUP3 LT ISZERO PUSH2 0x37A JUMPI PUSH1 0x0 DUP5 DUP2 MSTORE PUSH1 0x20 SWAP1 DUP2 SWAP1 KECCAK256 PUSH1 0x40 DUP1 MLOAD PUSH1 0x60 DUP2 ADD DUP3 MSTORE PUSH1 0x3 DUP7 MUL SWAP1 SWAP3 ADD DUP1 SLOAD DUP4 MSTORE PUSH1 0x1 DUP1 DUP3 ADD SLOAD DUP5 DUP7 ADD MSTORE PUSH1 0x2 SWAP1 SWAP2 ADD SLOAD PUSH1 0xFF AND SWAP2 DUP4 ADD SWAP2 SWAP1 SWAP2 MSTORE SWAP1 DUP4 MSTORE SWAP1 SWAP3 ADD SWAP2 ADD PUSH2 0x32B JUMP JUMPDEST SWAP1 POP PUSH1 0x0 PUSH2 0x408 DUP4 DUP4 PUSH2 0xDFD JUMP JUMPDEST SWAP1 POP PUSH2 0x413 DUP2 PUSH2 0xE5D JUMP JUMPDEST SWAP4 POP POP POP POP SWAP1 JUMP JUMPDEST PUSH1 0x0 DUP3 DUP2 MSTORE PUSH1 0x20 DUP2 SWAP1 MSTORE PUSH1 0x40 SWAP1 KECCAK256 PUSH1 0x1 ADD SLOAD PUSH2 0x436 DUP2 PUSH2 0xECF JUMP JUMPDEST PUSH2 0x440 DUP4 DUP4 PUSH2 0xED9 JUMP JUMPDEST POP POP POP POP JUMP JUMPDEST PUSH1 0x1 PUSH1 0x1 PUSH1 0xA0 SHL SUB DUP2 AND CALLER EQ PUSH2 0x46F JUMPI PUSH1 0x40 MLOAD PUSH4 0x334BD919 PUSH1 0xE1 SHL DUP2 MSTORE PUSH1 0x4 ADD PUSH1 0x40 MLOAD DUP1 SWAP2 SUB SWAP1 REVERT JUMPDEST PUSH2 0x479 DUP3 DUP3 PUSH2 0xF6B JUMP JUMPDEST POP POP POP JUMP JUMPDEST PUSH1 0x0 DUP1 MLOAD PUSH1 0x20 PUSH2 0x1610 DUP4 CODECOPY DUP2 MLOAD SWAP2 MSTORE PUSH2 0x496 DUP2 PUSH2 0xECF JUMP JUMPDEST PUSH2 0x49F DUP4 PUSH2 0xFD6 JUMP JUMPDEST DUP2 ISZERO PUSH2 0x50E JUMPI PUSH1 0x0 DUP5 DUP2 MSTORE PUSH1 0x4 PUSH1 0x20 MSTORE PUSH1 0x40 DUP2 KECCAK256 SLOAD SWAP1 DUP2 SWAP1 SUB PUSH2 0x4D5 JUMPI PUSH1 0x40 MLOAD PUSH4 0x7D918563 PUSH1 0xE0 SHL DUP2 MSTORE PUSH1 0x4 ADD PUSH1 0x40 MLOAD DUP1 SWAP2 SUB SWAP1 REVERT JUMPDEST DUP4 PUSH1 0x2 PUSH2 0x4E3 PUSH1 0x1 DUP5 PUSH2 0x14D8 JUMP JUMPDEST DUP2 SLOAD DUP2 LT PUSH2 0x4F3 JUMPI PUSH2 0x4F3 PUSH2 0x14EB JUMP JUMPDEST SWAP1 PUSH1 0x0 MSTORE PUSH1 0x20 PUSH1 0x0 KECCAK256 SWAP1 PUSH1 0x3 MUL ADD PUSH1 0x1 ADD DUP2 SWAP1 SSTORE POP POP PUSH2 0x573 JUMP JUMPDEST PUSH1 0x0 DUP5 DUP2 MSTORE PUSH1 0x5 PUSH1 0x20 MSTORE PUSH1 0x40 DUP2 KECCAK256 SLOAD SWAP1 DUP2 SWAP1 SUB PUSH2 0x53E JUMPI PUSH1 0x40 MLOAD PUSH4 0x7D918563 PUSH1 0xE0 SHL DUP2 MSTORE PUSH1 0x4 ADD PUSH1 0x40 MLOAD DUP1 SWAP2 SUB SWAP1 REVERT JUMPDEST DUP4 PUSH1 0x3 PUSH2 0x54C PUSH1 0x1 DUP5 PUSH2 0x14D8 JUMP JUMPDEST DUP2 SLOAD DUP2 LT PUSH2 0x55C JUMPI PUSH2 0x55C PUSH2 0x14EB JUMP JUMPDEST SWAP1 PUSH1 0x0 MSTORE PUSH1 0x20 PUSH1 0x0 KECCAK256 SWAP1 PUSH1 0x3 MUL ADD PUSH1 0x1 ADD DUP2 SWAP1 SSTORE POP POP JUMPDEST PUSH32 0xD88F31685290E21DEC91025C964BF29DB2AAD526D76829EE2E93A6CA900FF367 PUSH1 0x2 PUSH1 0x3 PUSH1 0x40 MLOAD PUSH2 0x5A6 SWAP3 SWAP2 SWAP1 PUSH2 0x155B JUMP JUMPDEST PUSH1 0x40 MLOAD DUP1 SWAP2 SUB SWAP1 LOG1 POP POP POP POP JUMP JUMPDEST PUSH32 0x65D7A28E3265B37A6474929F336521B332C1681B933F6CB9F3376673440D862A PUSH2 0x5DE DUP2 PUSH2 0xECF JUMP JUMPDEST PUSH2 0x5E6 PUSH2 0x1022 JUMP JUMPDEST POP JUMP JUMPDEST PUSH1 0x0 DUP1 MLOAD PUSH1 0x20 PUSH2 0x1610 DUP4 CODECOPY DUP2 MLOAD SWAP2 MSTORE PUSH2 0x601 DUP2 PUSH2 0xECF JUMP JUMPDEST PUSH2 0x60E DUP5 DUP5 DUP5 PUSH1 0x0 PUSH2 0x1074 JUMP JUMPDEST DUP4 PUSH32 0xA460CACD45EAABAB3756F62A65C9903CA11E9C14D14DED61F721ADF9945A7726 DUP5 PUSH1 0x40 MLOAD PUSH2 0x640 SWAP2 DUP2 MSTORE PUSH1 0x20 ADD SWAP1 JUMP JUMPDEST PUSH1 0x40 MLOAD DUP1 SWAP2 SUB SWAP1 LOG2 POP POP POP POP JUMP JUMPDEST PUSH1 0x60 PUSH1 0x2 DUP1 SLOAD DUP1 PUSH1 0x20 MUL PUSH1 0x20 ADD PUSH1 0x40 MLOAD SWAP1 DUP2 ADD PUSH1 0x40 MSTORE DUP1 SWAP3 SWAP2 SWAP1 DUP2 DUP2 MSTORE PUSH1 0x20 ADD PUSH1 0x0 SWAP1 JUMPDEST DUP3 DUP3 LT ISZERO PUSH2 0x6C1 JUMPI PUSH1 0x0 DUP5 DUP2 MSTORE PUSH1 0x20 SWAP1 DUP2 SWAP1 KECCAK256 PUSH1 0x40 DUP1 MLOAD PUSH1 0x60 DUP2 ADD DUP3 MSTORE PUSH1 0x3 DUP7 MUL SWAP1 SWAP3 ADD DUP1 SLOAD DUP4 MSTORE PUSH1 0x1 DUP1 DUP3 ADD SLOAD DUP5 DUP7 ADD MSTORE PUSH1 0x2 SWAP1 SWAP2 ADD SLOAD PUSH1 0xFF AND SWAP2 DUP4 ADD SWAP2 SWAP1 SWAP2 MSTORE SWAP1 DUP4 MSTORE SWAP1 SWAP3 ADD SWAP2 ADD PUSH2 0x672 JUMP JUMPDEST POP POP POP POP SWAP1 POP SWAP1 JUMP JUMPDEST PUSH32 0x65D7A28E3265B37A6474929F336521B332C1681B933F6CB9F3376673440D862A PUSH2 0x6F4 DUP2 PUSH2 0xECF JUMP JUMPDEST PUSH2 0x5E6 PUSH2 0x129B JUMP JUMPDEST PUSH1 0x0 DUP1 JUMPDEST PUSH1 0x2 SLOAD DUP2 LT ISZERO PUSH2 0x744 JUMPI PUSH1 0x2 DUP2 DUP2 SLOAD DUP2 LT PUSH2 0x71D JUMPI PUSH2 0x71D PUSH2 0x14EB JUMP JUMPDEST SWAP1 PUSH1 0x0 MSTORE PUSH1 0x20 PUSH1 0x0 KECCAK256 SWAP1 PUSH1 0x3 MUL ADD PUSH1 0x1 ADD SLOAD DUP3 PUSH2 0x73A SWAP2 SWAP1 PUSH2 0x1589 JUMP JUMPDEST SWAP2 POP PUSH1 0x1 ADD PUSH2 0x700 JUMP JUMPDEST POP SWAP1 JUMP JUMPDEST PUSH1 0x0 DUP1 MLOAD PUSH1 0x20 PUSH2 0x1610 DUP4 CODECOPY DUP2 MLOAD SWAP2 MSTORE PUSH2 0x760 DUP2 PUSH2 0xECF JUMP JUMPDEST PUSH2 0x76D DUP5 DUP5 DUP5 PUSH1 0x1 PUSH2 0x1074 JUMP JUMPDEST DUP4 PUSH32 0x4B17B913ECE299C0103BE8DE1E3B17061DE970550DB78FFECC45ACB798C73E7A DUP5 PUSH1 0x40 MLOAD PUSH2 0x640 SWAP2 DUP2 MSTORE PUSH1 0x20 ADD SWAP1 JUMP JUMPDEST PUSH1 0x0 SWAP2 DUP3 MSTORE PUSH1 0x20 DUP3 DUP2 MSTORE PUSH1 0x40 DUP1 DUP5 KECCAK256 PUSH1 0x1 PUSH1 0x1 PUSH1 0xA0 SHL SUB SWAP4 SWAP1 SWAP4 AND DUP5 MSTORE SWAP2 SWAP1 MSTORE SWAP1 KECCAK256 SLOAD PUSH1 0xFF AND SWAP1 JUMP JUMPDEST PUSH1 0x0 DUP1 MLOAD PUSH1 0x20 PUSH2 0x1610 DUP4 CODECOPY DUP2 MLOAD SWAP2 MSTORE PUSH2 0x7E0 DUP2 PUSH2 0xECF JUMP JUMPDEST DUP2 ISZERO PUSH2 0x932 JUMPI PUSH1 0x0 DUP4 DUP2 MSTORE PUSH1 0x4 PUSH1 0x20 MSTORE PUSH1 0x40 DUP2 KECCAK256 SLOAD SWAP1 DUP2 SWAP1 SUB PUSH2 0x816 JUMPI PUSH1 0x40 MLOAD PUSH4 0x7D918563 PUSH1 0xE0 SHL DUP2 MSTORE PUSH1 0x4 ADD PUSH1 0x40 MLOAD DUP1 SWAP2 SUB SWAP1 REVERT JUMPDEST PUSH1 0x2 DUP1 SLOAD PUSH2 0x826 SWAP1 PUSH1 0x1 SWAP1 PUSH2 0x14D8 JUMP JUMPDEST DUP2 SLOAD DUP2 LT PUSH2 0x836 JUMPI PUSH2 0x836 PUSH2 0x14EB JUMP JUMPDEST SWAP1 PUSH1 0x0 MSTORE PUSH1 0x20 PUSH1 0x0 KECCAK256 SWAP1 PUSH1 0x3 MUL ADD PUSH1 0x2 PUSH1 0x1 DUP4 PUSH2 0x853 SWAP2 SWAP1 PUSH2 0x14D8 JUMP JUMPDEST DUP2 SLOAD DUP2 LT PUSH2 0x863 JUMPI PUSH2 0x863 PUSH2 0x14EB JUMP JUMPDEST PUSH1 0x0 SWAP2 DUP3 MSTORE PUSH1 0x20 DUP3 KECCAK256 DUP4 SLOAD PUSH1 0x3 SWAP1 SWAP3 MUL ADD SWAP1 DUP2 SSTORE PUSH1 0x1 DUP1 DUP5 ADD SLOAD DUP2 DUP4 ADD SSTORE PUSH1 0x2 SWAP4 DUP5 ADD SLOAD SWAP2 DUP5 ADD DUP1 SLOAD PUSH1 0xFF NOT AND PUSH1 0xFF SWAP1 SWAP4 AND SWAP3 SWAP1 SWAP3 OR SWAP1 SWAP2 SSTORE DUP4 SWAP3 PUSH1 0x4 SWAP3 SWAP2 PUSH2 0x8AC SWAP1 DUP6 PUSH2 0x14D8 JUMP JUMPDEST DUP2 SLOAD DUP2 LT PUSH2 0x8BC JUMPI PUSH2 0x8BC PUSH2 0x14EB JUMP JUMPDEST SWAP1 PUSH1 0x0 MSTORE PUSH1 0x20 PUSH1 0x0 KECCAK256 SWAP1 PUSH1 0x3 MUL ADD PUSH1 0x0 ADD SLOAD DUP2 MSTORE PUSH1 0x20 ADD SWAP1 DUP2 MSTORE PUSH1 0x20 ADD PUSH1 0x0 KECCAK256 DUP2 SWAP1 SSTORE POP PUSH1 0x2 DUP1 SLOAD DUP1 PUSH2 0x8F1 JUMPI PUSH2 0x8F1 PUSH2 0x159C JUMP JUMPDEST PUSH1 0x0 DUP3 DUP2 MSTORE PUSH1 0x20 DUP1 DUP3 KECCAK256 PUSH1 0x3 PUSH1 0x0 NOT SWAP1 SWAP5 ADD SWAP4 DUP5 MUL ADD DUP3 DUP2 SSTORE PUSH1 0x1 DUP2 ADD DUP4 SWAP1 SSTORE PUSH1 0x2 ADD DUP1 SLOAD PUSH1 0xFF NOT AND SWAP1 SSTORE SWAP2 SWAP1 SWAP3 SSTORE DUP6 DUP3 MSTORE PUSH1 0x4 SWAP1 MSTORE PUSH1 0x40 DUP2 KECCAK256 SSTORE POP PUSH2 0xA7E JUMP JUMPDEST PUSH1 0x0 DUP4 DUP2 MSTORE PUSH1 0x5 PUSH1 0x20 MSTORE PUSH1 0x40 DUP2 KECCAK256 SLOAD SWAP1 DUP2 SWAP1 SUB PUSH2 0x962 JUMPI PUSH1 0x40 MLOAD PUSH4 0x7D918563 PUSH1 0xE0 SHL DUP2 MSTORE PUSH1 0x4 ADD PUSH1 0x40 MLOAD DUP1 SWAP2 SUB SWAP1 REVERT JUMPDEST PUSH1 0x3 DUP1 SLOAD PUSH2 0x972 SWAP1 PUSH1 0x1 SWAP1 PUSH2 0x14D8 JUMP JUMPDEST DUP2 SLOAD DUP2 LT PUSH2 0x982 JUMPI PUSH2 0x982 PUSH2 0x14EB JUMP JUMPDEST SWAP1 PUSH1 0x0 MSTORE PUSH1 0x20 PUSH1 0x0 KECCAK256 SWAP1 PUSH1 0x3 MUL ADD PUSH1 0x3 PUSH1 0x1 DUP4 PUSH2 0x99F SWAP2 SWAP1 PUSH2 0x14D8 JUMP JUMPDEST DUP2 SLOAD DUP2 LT PUSH2 0x9AF JUMPI PUSH2 0x9AF PUSH2 0x14EB JUMP JUMPDEST PUSH1 0x0 SWAP2 DUP3 MSTORE PUSH1 0x20 DUP3 KECCAK256 DUP4 SLOAD PUSH1 0x3 SWAP3 DUP4 MUL SWAP1 SWAP2 ADD SWAP1 DUP2 SSTORE PUSH1 0x1 DUP1 DUP6 ADD SLOAD DUP2 DUP4 ADD SSTORE PUSH1 0x2 SWAP5 DUP6 ADD SLOAD SWAP5 SWAP1 SWAP2 ADD DUP1 SLOAD PUSH1 0xFF NOT AND PUSH1 0xFF SWAP1 SWAP6 AND SWAP5 SWAP1 SWAP5 OR SWAP1 SWAP4 SSTORE DUP4 SWAP3 PUSH1 0x5 SWAP3 SWAP2 SWAP1 PUSH2 0x9FC SWAP1 DUP6 PUSH2 0x14D8 JUMP JUMPDEST DUP2 SLOAD DUP2 LT PUSH2 0xA0C JUMPI PUSH2 0xA0C PUSH2 0x14EB JUMP JUMPDEST SWAP1 PUSH1 0x0 MSTORE PUSH1 0x20 PUSH1 0x0 KECCAK256 SWAP1 PUSH1 0x3 MUL ADD PUSH1 0x0 ADD SLOAD DUP2 MSTORE PUSH1 0x20 ADD SWAP1 DUP2 MSTORE PUSH1 0x20 ADD PUSH1 0x0 KECCAK256 DUP2 SWAP1 SSTORE POP PUSH1 0x3 DUP1 SLOAD DUP1 PUSH2 0xA41 JUMPI PUSH2 0xA41 PUSH2 0x159C JUMP JUMPDEST PUSH1 0x0 DUP3 DUP2 MSTORE PUSH1 0x20 DUP1 DUP3 KECCAK256 PUSH1 0x3 PUSH1 0x0 NOT SWAP1 SWAP5 ADD SWAP4 DUP5 MUL ADD DUP3 DUP2 SSTORE PUSH1 0x1 DUP2 ADD DUP4 SWAP1 SSTORE PUSH1 0x2 ADD DUP1 SLOAD PUSH1 0xFF NOT AND SWAP1 SSTORE SWAP2 SWAP1 SWAP3 SSTORE DUP6 DUP3 MSTORE PUSH1 0x5 SWAP1 MSTORE PUSH1 0x40 DUP2 KECCAK256 SSTORE POP JUMPDEST DUP3 PUSH32 0x8AE47E1DAA8DC53F1545A09BC0DFC8839EF0F1E5A66EC3D89FEA378119BE9EC0 DUP4 PUSH1 0x40 MLOAD PUSH2 0xAB2 SWAP2 ISZERO ISZERO DUP2 MSTORE PUSH1 0x20 ADD SWAP1 JUMP JUMPDEST PUSH1 0x40 MLOAD DUP1 SWAP2 SUB SWAP1 LOG2 POP POP POP JUMP JUMPDEST PUSH1 0x0 DUP3 DUP2 MSTORE PUSH1 0x20 DUP2 SWAP1 MSTORE PUSH1 0x40 SWAP1 KECCAK256 PUSH1 0x1 ADD SLOAD PUSH2 0xADA DUP2 PUSH2 0xECF JUMP JUMPDEST PUSH2 0x440 DUP4 DUP4 PUSH2 0xF6B JUMP JUMPDEST PUSH1 0x60 PUSH1 0x3 DUP1 SLOAD DUP1 PUSH1 0x20 MUL PUSH1 0x20 ADD PUSH1 0x40 MLOAD SWAP1 DUP2 ADD PUSH1 0x40 MSTORE DUP1 SWAP3 SWAP2 SWAP1 DUP2 DUP2 MSTORE PUSH1 0x20 ADD PUSH1 0x0 SWAP1 DUP3 DUP3 LT ISZERO PUSH2 0x6C1 JUMPI PUSH1 0x0 DUP5 DUP2 MSTORE PUSH1 0x20 SWAP1 DUP2 SWAP1 KECCAK256 PUSH1 0x40 DUP1 MLOAD PUSH1 0x60 DUP2 ADD DUP3 MSTORE PUSH1 0x3 DUP7 MUL SWAP1 SWAP3 ADD DUP1 SLOAD DUP4 MSTORE PUSH1 0x1 DUP1 DUP3 ADD SLOAD DUP5 DUP7 ADD MSTORE PUSH1 0x2 SWAP1 SWAP2 ADD SLOAD PUSH1 0xFF AND SWAP2 DUP4 ADD SWAP2 SWAP1 SWAP2 MSTORE SWAP1 DUP4 MSTORE SWAP1 SWAP3 ADD SWAP2 ADD PUSH2 0x672 JUMP JUMPDEST PUSH1 0x0 DUP1 JUMPDEST PUSH1 0x3 SLOAD DUP2 LT ISZERO PUSH2 0x744 JUMPI PUSH1 0x3 DUP2 DUP2 SLOAD DUP2 LT PUSH2 0xB77 JUMPI PUSH2 0xB77 PUSH2 0x14EB JUMP JUMPDEST SWAP1 PUSH1 0x0 MSTORE PUSH1 0x20 PUSH1 0x0 KECCAK256 SWAP1 PUSH1 0x3 MUL ADD PUSH1 0x1 ADD SLOAD DUP3 PUSH2 0xB94 SWAP2 SWAP1 PUSH2 0x1589 JUMP JUMPDEST SWAP2 POP PUSH1 0x1 ADD PUSH2 0xB5A JUMP JUMPDEST PUSH1 0x1 SLOAD PUSH1 0xFF AND ISZERO PUSH2 0xBC2 JUMPI PUSH1 0x40 MLOAD PUSH4 0xD93C0665 PUSH1 0xE0 SHL DUP2 MSTORE PUSH1 0x4 ADD PUSH1 0x40 MLOAD DUP1 SWAP2 SUB SWAP1 REVERT JUMPDEST JUMP JUMPDEST PUSH1 0x0 DUP1 PUSH1 0x0 JUMPDEST PUSH1 0x2 SLOAD DUP2 LT ISZERO PUSH2 0xC0E JUMPI PUSH1 0x2 DUP2 DUP2 SLOAD DUP2 LT PUSH2 0xBE7 JUMPI PUSH2 0xBE7 PUSH2 0x14EB JUMP JUMPDEST SWAP1 PUSH1 0x0 MSTORE PUSH1 0x20 PUSH1 0x0 KECCAK256 SWAP1 PUSH1 0x3 MUL ADD PUSH1 0x1 ADD SLOAD DUP4 PUSH2 0xC04 SWAP2 SWAP1 PUSH2 0x1589 JUMP JUMPDEST SWAP3 POP PUSH1 0x1 ADD PUSH2 0xBCA JUMP JUMPDEST POP PUSH1 0x0 JUMPDEST PUSH1 0x3 SLOAD DUP2 LT ISZERO PUSH2 0xC56 JUMPI PUSH1 0x3 DUP2 DUP2 SLOAD DUP2 LT PUSH2 0xC2F JUMPI PUSH2 0xC2F PUSH2 0x14EB JUMP JUMPDEST SWAP1 PUSH1 0x0 MSTORE PUSH1 0x20 PUSH1 0x0 KECCAK256 SWAP1 PUSH1 0x3 MUL ADD PUSH1 0x1 ADD SLOAD DUP3 PUSH2 0xC4C SWAP2 SWAP1 PUSH2 0x1589 JUMP JUMPDEST SWAP2 POP PUSH1 0x1 ADD PUSH2 0xC12 JUMP JUMPDEST POP PUSH2 0x2710 DUP3 EQ ISZERO DUP1 PUSH2 0xC6A JUMPI POP PUSH2 0x2710 DUP2 EQ ISZERO JUMPDEST ISZERO PUSH2 0xC88 JUMPI PUSH1 0x40 MLOAD PUSH4 0x108CEF9D PUSH1 0xE3 SHL DUP2 MSTORE PUSH1 0x4 ADD PUSH1 0x40 MLOAD DUP1 SWAP2 SUB SWAP1 REVERT JUMPDEST POP POP JUMP JUMPDEST PUSH1 0x0 DUP1 DUP1 JUMPDEST DUP4 MLOAD DUP2 LT ISZERO PUSH2 0xDD7 JUMPI PUSH1 0x0 PUSH32 0x0 PUSH1 0x1 PUSH1 0x1 PUSH1 0xA0 SHL SUB AND PUSH4 0xED1167C1 DUP7 DUP5 DUP2 MLOAD DUP2 LT PUSH2 0xCDD JUMPI PUSH2 0xCDD PUSH2 0x14EB JUMP JUMPDEST PUSH1 0x20 MUL PUSH1 0x20 ADD ADD MLOAD PUSH1 0x0 ADD MLOAD PUSH1 0x40 MLOAD DUP3 PUSH4 0xFFFFFFFF AND PUSH1 0xE0 SHL DUP2 MSTORE PUSH1 0x4 ADD PUSH2 0xD07 SWAP2 DUP2 MSTORE PUSH1 0x20 ADD SWAP1 JUMP JUMPDEST PUSH1 0x40 DUP1 MLOAD DUP1 DUP4 SUB DUP2 DUP7 GAS STATICCALL ISZERO DUP1 ISZERO PUSH2 0xD23 JUMPI RETURNDATASIZE PUSH1 0x0 DUP1 RETURNDATACOPY RETURNDATASIZE PUSH1 0x0 REVERT JUMPDEST POP POP POP POP PUSH1 0x40 MLOAD RETURNDATASIZE PUSH1 0x1F NOT PUSH1 0x1F DUP3 ADD AND DUP3 ADD DUP1 PUSH1 0x40 MSTORE POP DUP2 ADD SWAP1 PUSH2 0xD47 SWAP2 SWAP1 PUSH2 0x15B2 JUMP JUMPDEST POP SWAP1 POP PUSH1 0x0 PUSH2 0xD94 PUSH2 0x2710 PUSH8 0xDE0B6B3A7640000 DUP9 DUP7 DUP2 MLOAD DUP2 LT PUSH2 0xD6D JUMPI PUSH2 0xD6D PUSH2 0x14EB JUMP JUMPDEST PUSH1 0x20 MUL PUSH1 0x20 ADD ADD MLOAD PUSH1 0x20 ADD MLOAD PUSH2 0xD83 SWAP2 SWAP1 PUSH2 0x15D6 JUMP JUMPDEST PUSH2 0xD8D SWAP2 SWAP1 PUSH2 0x15ED JUMP JUMPDEST DUP4 SWAP1 PUSH2 0xDFD JUMP JUMPDEST SWAP1 POP PUSH2 0xDA0 DUP2 DUP7 PUSH2 0x1589 JUMP JUMPDEST SWAP5 POP DUP6 DUP4 DUP2 MLOAD DUP2 LT PUSH2 0xDB4 JUMPI PUSH2 0xDB4 PUSH2 0x14EB JUMP JUMPDEST PUSH1 0x20 MUL PUSH1 0x20 ADD ADD MLOAD PUSH1 0x20 ADD MLOAD DUP5 PUSH2 0xDCB SWAP2 SWAP1 PUSH2 0x1589 JUMP JUMPDEST SWAP4 POP POP POP PUSH1 0x1 ADD PUSH2 0xC91 JUMP JUMPDEST POP DUP1 ISZERO PUSH2 0xDF7 JUMPI PUSH2 0xDEA PUSH2 0x2710 DUP3 PUSH2 0x15ED JUMP JUMPDEST PUSH2 0xDF4 SWAP1 DUP4 PUSH2 0x15ED JUMP JUMPDEST SWAP2 POP JUMPDEST POP SWAP2 SWAP1 POP JUMP JUMPDEST PUSH1 0x0 DUP3 PUSH1 0x0 SUB PUSH2 0xE0F JUMPI POP PUSH1 0x0 PUSH2 0x2EC JUMP JUMPDEST PUSH2 0xE19 DUP3 DUP5 PUSH2 0x15D6 JUMP JUMPDEST SWAP1 POP DUP2 PUSH2 0xE26 DUP5 DUP4 PUSH2 0x15ED JUMP JUMPDEST EQ PUSH2 0xE44 JUMPI PUSH1 0x40 MLOAD PUSH4 0x4EAB2EA7 PUSH1 0xE1 SHL DUP2 MSTORE PUSH1 0x4 ADD PUSH1 0x40 MLOAD DUP1 SWAP2 SUB SWAP1 REVERT JUMPDEST PUSH2 0xE56 PUSH8 0xDE0B6B3A7640000 DUP3 PUSH2 0x15ED JUMP JUMPDEST SWAP4 SWAP3 POP POP POP JUMP JUMPDEST PUSH1 0x0 DUP2 PUSH1 0x0 SUB PUSH2 0xE6F JUMPI POP PUSH1 0x0 SWAP2 SWAP1 POP JUMP JUMPDEST PUSH1 0x0 PUSH1 0x2 PUSH2 0xE7E DUP5 PUSH1 0x1 PUSH2 0x1589 JUMP JUMPDEST PUSH2 0xE88 SWAP2 SWAP1 PUSH2 0x15ED JUMP JUMPDEST SWAP1 POP DUP3 SWAP2 POP JUMPDEST DUP2 DUP2 LT ISZERO PUSH2 0xEC1 JUMPI SWAP1 POP DUP1 PUSH1 0x2 DUP2 PUSH2 0xEA6 DUP2 DUP7 PUSH2 0x15ED JUMP JUMPDEST PUSH2 0xEB0 SWAP2 SWAP1 PUSH2 0x1589 JUMP JUMPDEST PUSH2 0xEBA SWAP2 SWAP1 PUSH2 0x15ED JUMP JUMPDEST SWAP1 POP PUSH2 0xE8E JUMP JUMPDEST PUSH2 0xDF4 DUP3 PUSH4 0x3B9ACA00 PUSH2 0x15D6 JUMP JUMPDEST PUSH2 0x5E6 DUP2 CALLER PUSH2 0x12D6 JUMP JUMPDEST PUSH1 0x0 PUSH2 0xEE5 DUP4 DUP4 PUSH2 0x79F JUMP JUMPDEST PUSH2 0xF63 JUMPI PUSH1 0x0 DUP4 DUP2 MSTORE PUSH1 0x20 DUP2 DUP2 MSTORE PUSH1 0x40 DUP1 DUP4 KECCAK256 PUSH1 0x1 PUSH1 0x1 PUSH1 0xA0 SHL SUB DUP7 AND DUP5 MSTORE SWAP1 SWAP2 MSTORE SWAP1 KECCAK256 DUP1 SLOAD PUSH1 0xFF NOT AND PUSH1 0x1 OR SWAP1 SSTORE PUSH2 0xF1B CALLER SWAP1 JUMP JUMPDEST PUSH1 0x1 PUSH1 0x1 PUSH1 0xA0 SHL SUB AND DUP3 PUSH1 0x1 PUSH1 0x1 PUSH1 0xA0 SHL SUB AND DUP5 PUSH32 0x2F8788117E7EFF1D82E926EC794901D17C78024A50270940304540A733656F0D PUSH1 0x40 MLOAD PUSH1 0x40 MLOAD DUP1 SWAP2 SUB SWAP1 LOG4 POP PUSH1 0x1 PUSH2 0x2EC JUMP JUMPDEST POP PUSH1 0x0 PUSH2 0x2EC JUMP JUMPDEST PUSH1 0x0 PUSH2 0xF77 DUP4 DUP4 PUSH2 0x79F JUMP JUMPDEST ISZERO PUSH2 0xF63 JUMPI PUSH1 0x0 DUP4 DUP2 MSTORE PUSH1 0x20 DUP2 DUP2 MSTORE PUSH1 0x40 DUP1 DUP4 KECCAK256 PUSH1 0x1 PUSH1 0x1 PUSH1 0xA0 SHL SUB DUP7 AND DUP1 DUP6 MSTORE SWAP3 MSTORE DUP1 DUP4 KECCAK256 DUP1 SLOAD PUSH1 0xFF NOT AND SWAP1 SSTORE MLOAD CALLER SWAP3 DUP7 SWAP2 PUSH32 0xF6391F5C32D9C69D2A47EA670B442974B53935D1EDC7FD64EB21E047A839171B SWAP2 SWAP1 LOG4 POP PUSH1 0x1 PUSH2 0x2EC JUMP JUMPDEST PUSH2 0x2710 DUP2 GT ISZERO PUSH2 0x5E6 JUMPI PUSH1 0x40 MLOAD PUSH3 0x461BCD PUSH1 0xE5 SHL DUP2 MSTORE PUSH1 0x20 PUSH1 0x4 DUP3 ADD MSTORE PUSH1 0x12 PUSH1 0x24 DUP3 ADD MSTORE PUSH18 0x526F6C65733A20496E76616C696420425053 PUSH1 0x70 SHL PUSH1 0x44 DUP3 ADD MSTORE PUSH1 0x64 ADD JUMPDEST PUSH1 0x40 MLOAD DUP1 SWAP2 SUB SWAP1 REVERT JUMPDEST PUSH2 0x102A PUSH2 0x130F JUMP JUMPDEST PUSH1 0x1 DUP1 SLOAD PUSH1 0xFF NOT AND SWAP1 SSTORE PUSH32 0x5DB9EE0A495BF2E6FF9C91A7834C1BA4FDD244A5E8AA4E537BD38AEAE4B073AA CALLER JUMPDEST PUSH1 0x40 MLOAD PUSH1 0x1 PUSH1 0x1 PUSH1 0xA0 SHL SUB SWAP1 SWAP2 AND DUP2 MSTORE PUSH1 0x20 ADD PUSH1 0x40 MLOAD DUP1 SWAP2 SUB SWAP1 LOG1 JUMP JUMPDEST PUSH2 0x107D DUP4 PUSH2 0xFD6 JUMP JUMPDEST DUP1 ISZERO PUSH2 0x1179 JUMPI PUSH1 0x0 DUP5 DUP2 MSTORE PUSH1 0x4 PUSH1 0x20 MSTORE PUSH1 0x40 SWAP1 KECCAK256 SLOAD ISZERO PUSH2 0x10B0 JUMPI PUSH1 0x40 MLOAD PUSH4 0x172DD055 PUSH1 0xE1 SHL DUP2 MSTORE PUSH1 0x4 ADD PUSH1 0x40 MLOAD DUP1 SWAP2 SUB SWAP1 REVERT JUMPDEST PUSH1 0x40 DUP1 MLOAD PUSH1 0x60 DUP2 ADD DUP3 MSTORE DUP6 DUP2 MSTORE PUSH1 0x20 DUP1 DUP3 ADD DUP7 DUP2 MSTORE PUSH1 0xFF DUP7 DUP2 AND DUP5 DUP7 ADD SWAP1 DUP2 MSTORE PUSH1 0x2 DUP1 SLOAD PUSH1 0x1 DUP2 ADD DUP3 SSTORE PUSH1 0x0 DUP3 DUP2 MSTORE SWAP7 MLOAD PUSH32 0x405787FA12A823E0F2B7631CC41B3BA8828B3321CA811111FA75CD3AA3BB5ACE PUSH1 0x3 SWAP1 SWAP3 MUL SWAP2 DUP3 ADD SSTORE SWAP4 MLOAD PUSH32 0x405787FA12A823E0F2B7631CC41B3BA8828B3321CA811111FA75CD3AA3BB5ACF DUP6 ADD SSTORE SWAP1 MLOAD PUSH32 0x405787FA12A823E0F2B7631CC41B3BA8828B3321CA811111FA75CD3AA3BB5AD0 SWAP1 SWAP4 ADD DUP1 SLOAD PUSH1 0xFF NOT AND SWAP4 SWAP1 SWAP3 AND SWAP3 SWAP1 SWAP3 OR SWAP1 SSTORE SLOAD DUP8 DUP4 MSTORE PUSH1 0x4 SWAP1 SWAP2 MSTORE SWAP2 SWAP1 KECCAK256 SSTORE PUSH2 0x573 JUMP JUMPDEST PUSH1 0x0 DUP5 DUP2 MSTORE PUSH1 0x5 PUSH1 0x20 MSTORE PUSH1 0x40 SWAP1 KECCAK256 SLOAD ISZERO PUSH2 0x11A6 JUMPI PUSH1 0x40 MLOAD PUSH4 0x172DD055 PUSH1 0xE1 SHL DUP2 MSTORE PUSH1 0x4 ADD PUSH1 0x40 MLOAD DUP1 SWAP2 SUB SWAP1 REVERT JUMPDEST PUSH1 0x40 DUP1 MLOAD PUSH1 0x60 DUP2 ADD DUP3 MSTORE DUP6 DUP2 MSTORE PUSH1 0x20 DUP1 DUP3 ADD DUP7 DUP2 MSTORE PUSH1 0xFF DUP7 DUP2 AND DUP5 DUP7 ADD SWAP1 DUP2 MSTORE PUSH1 0x3 DUP1 SLOAD PUSH1 0x1 DUP2 ADD DUP3 SSTORE PUSH1 0x0 DUP3 DUP2 MSTORE SWAP7 MLOAD PUSH32 0xC2575A0E9E593C00F959F8C92F12DB2869C3395A3B0502D05E2516446F71F85B SWAP2 DUP4 MUL SWAP2 DUP3 ADD SSTORE SWAP4 MLOAD PUSH32 0xC2575A0E9E593C00F959F8C92F12DB2869C3395A3B0502D05E2516446F71F85C DUP6 ADD SSTORE SWAP1 MLOAD PUSH32 0xC2575A0E9E593C00F959F8C92F12DB2869C3395A3B0502D05E2516446F71F85D SWAP1 SWAP4 ADD DUP1 SLOAD PUSH1 0xFF NOT AND SWAP4 SWAP1 SWAP3 AND SWAP3 SWAP1 SWAP3 OR SWAP1 SSTORE DUP1 SLOAD DUP9 DUP5 MSTORE PUSH1 0x5 SWAP1 SWAP3 MSTORE SWAP2 DUP4 SWAP1 KECCAK256 SSTORE SWAP1 MLOAD PUSH32 0xD88F31685290E21DEC91025C964BF29DB2AAD526D76829EE2E93A6CA900FF367 SWAP2 PUSH2 0x5A6 SWAP2 PUSH1 0x2 SWAP2 SWAP1 PUSH2 0x155B JUMP JUMPDEST PUSH2 0x12A3 PUSH2 0xB9E JUMP JUMPDEST PUSH1 0x1 DUP1 SLOAD PUSH1 0xFF NOT AND DUP2 OR SWAP1 SSTORE PUSH32 0x62E78CEA01BEE320CD4E420270B5EA74000D11B0C9F74754EBDBFC544B05A258 CALLER PUSH2 0x1057 JUMP JUMPDEST PUSH2 0x12E0 DUP3 DUP3 PUSH2 0x79F JUMP JUMPDEST PUSH2 0xC88 JUMPI PUSH1 0x40 MLOAD PUSH4 0xE2517D3F PUSH1 0xE0 SHL DUP2 MSTORE PUSH1 0x1 PUSH1 0x1 PUSH1 0xA0 SHL SUB DUP3 AND PUSH1 0x4 DUP3 ADD MSTORE PUSH1 0x24 DUP2 ADD DUP4 SWAP1 MSTORE PUSH1 0x44 ADD PUSH2 0x1019 JUMP JUMPDEST PUSH1 0x1 SLOAD PUSH1 0xFF AND PUSH2 0xBC2 JUMPI PUSH1 0x40 MLOAD PUSH4 0x8DFC202B PUSH1 0xE0 SHL DUP2 MSTORE PUSH1 0x4 ADD PUSH1 0x40 MLOAD DUP1 SWAP2 SUB SWAP1 REVERT JUMPDEST PUSH1 0x0 PUSH1 0x20 DUP3 DUP5 SUB SLT ISZERO PUSH2 0x1344 JUMPI PUSH1 0x0 DUP1 REVERT JUMPDEST DUP2 CALLDATALOAD PUSH1 0x1 PUSH1 0x1 PUSH1 0xE0 SHL SUB NOT DUP2 AND DUP2 EQ PUSH2 0xE56 JUMPI PUSH1 0x0 DUP1 REVERT JUMPDEST PUSH1 0x0 PUSH1 0x20 DUP3 DUP5 SUB SLT ISZERO PUSH2 0x136E JUMPI PUSH1 0x0 DUP1 REVERT JUMPDEST POP CALLDATALOAD SWAP2 SWAP1 POP JUMP JUMPDEST PUSH1 0x0 DUP1 PUSH1 0x40 DUP4 DUP6 SUB SLT ISZERO PUSH2 0x1388 JUMPI PUSH1 0x0 DUP1 REVERT JUMPDEST DUP3 CALLDATALOAD SWAP2 POP PUSH1 0x20 DUP4 ADD CALLDATALOAD PUSH1 0x1 PUSH1 0x1 PUSH1 0xA0 SHL SUB DUP2 AND DUP2 EQ PUSH2 0x13A6 JUMPI PUSH1 0x0 DUP1 REVERT JUMPDEST DUP1 SWAP2 POP POP SWAP3 POP SWAP3 SWAP1 POP JUMP JUMPDEST DUP1 CALLDATALOAD DUP1 ISZERO ISZERO DUP2 EQ PUSH2 0x13C1 JUMPI PUSH1 0x0 DUP1 REVERT JUMPDEST SWAP2 SWAP1 POP JUMP JUMPDEST PUSH1 0x0 DUP1 PUSH1 0x0 PUSH1 0x60 DUP5 DUP7 SUB SLT ISZERO PUSH2 0x13DB JUMPI PUSH1 0x0 DUP1 REVERT JUMPDEST DUP4 CALLDATALOAD SWAP3 POP PUSH1 0x20 DUP5 ADD CALLDATALOAD SWAP2 POP PUSH2 0x13F2 PUSH1 0x40 DUP6 ADD PUSH2 0x13B1 JUMP JUMPDEST SWAP1 POP SWAP3 POP SWAP3 POP SWAP3 JUMP JUMPDEST PUSH1 0x0 DUP1 PUSH1 0x0 PUSH1 0x60 DUP5 DUP7 SUB SLT ISZERO PUSH2 0x1410 JUMPI PUSH1 0x0 DUP1 REVERT JUMPDEST DUP4 CALLDATALOAD SWAP3 POP PUSH1 0x20 DUP5 ADD CALLDATALOAD SWAP2 POP PUSH1 0x40 DUP5 ADD CALLDATALOAD PUSH1 0xFF DUP2 AND DUP2 EQ PUSH2 0x142F JUMPI PUSH1 0x0 DUP1 REVERT JUMPDEST DUP1 SWAP2 POP POP SWAP3 POP SWAP3 POP SWAP3 JUMP JUMPDEST PUSH1 0x20 DUP1 DUP3 MSTORE DUP3 MLOAD DUP3 DUP3 ADD DUP2 SWAP1 MSTORE PUSH1 0x0 SWAP2 SWAP1 PUSH1 0x40 SWAP1 DUP2 DUP6 ADD SWAP1 DUP7 DUP5 ADD DUP6 JUMPDEST DUP3 DUP2 LT ISZERO PUSH2 0x1489 JUMPI DUP2 MLOAD DUP1 MLOAD DUP6 MSTORE DUP7 DUP2 ADD MLOAD DUP8 DUP7 ADD MSTORE DUP6 ADD MLOAD PUSH1 0xFF AND DUP6 DUP6 ADD MSTORE PUSH1 0x60 SWAP1 SWAP4 ADD SWAP3 SWAP1 DUP6 ADD SWAP1 PUSH1 0x1 ADD PUSH2 0x1457 JUMP JUMPDEST POP SWAP2 SWAP8 SWAP7 POP POP POP POP POP POP POP JUMP JUMPDEST PUSH1 0x0 DUP1 PUSH1 0x40 DUP4 DUP6 SUB SLT ISZERO PUSH2 0x14A9 JUMPI PUSH1 0x0 DUP1 REVERT JUMPDEST DUP3 CALLDATALOAD SWAP2 POP PUSH2 0x14B9 PUSH1 0x20 DUP5 ADD PUSH2 0x13B1 JUMP JUMPDEST SWAP1 POP SWAP3 POP SWAP3 SWAP1 POP JUMP JUMPDEST PUSH4 0x4E487B71 PUSH1 0xE0 SHL PUSH1 0x0 MSTORE PUSH1 0x11 PUSH1 0x4 MSTORE PUSH1 0x24 PUSH1 0x0 REVERT JUMPDEST DUP2 DUP2 SUB DUP2 DUP2 GT ISZERO PUSH2 0x2EC JUMPI PUSH2 0x2EC PUSH2 0x14C2 JUMP JUMPDEST PUSH4 0x4E487B71 PUSH1 0xE0 SHL PUSH1 0x0 MSTORE PUSH1 0x32 PUSH1 0x4 MSTORE PUSH1 0x24 PUSH1 0x0 REVERT JUMPDEST PUSH1 0x0 DUP2 SLOAD DUP1 DUP5 MSTORE PUSH1 0x20 DUP1 DUP6 ADD SWAP5 POP DUP4 PUSH1 0x0 MSTORE PUSH1 0x20 PUSH1 0x0 KECCAK256 PUSH1 0x0 JUMPDEST DUP4 DUP2 LT ISZERO PUSH2 0x1550 JUMPI DUP2 SLOAD DUP8 MSTORE PUSH1 0x1 DUP1 DUP4 ADD SLOAD DUP5 DUP10 ADD MSTORE PUSH1 0x2 DUP4 ADD SLOAD PUSH1 0xFF AND PUSH1 0x40 DUP10 ADD MSTORE PUSH1 0x60 SWAP1 SWAP8 ADD SWAP7 PUSH1 0x3 SWAP1 SWAP3 ADD SWAP2 ADD PUSH2 0x151B JUMP JUMPDEST POP SWAP5 SWAP6 SWAP5 POP POP POP POP POP JUMP JUMPDEST PUSH1 0x40 DUP2 MSTORE PUSH1 0x0 PUSH2 0x156E PUSH1 0x40 DUP4 ADD DUP6 PUSH2 0x1501 JUMP JUMPDEST DUP3 DUP2 SUB PUSH1 0x20 DUP5 ADD MSTORE PUSH2 0x1580 DUP2 DUP6 PUSH2 0x1501 JUMP JUMPDEST SWAP6 SWAP5 POP POP POP POP POP JUMP JUMPDEST DUP1 DUP3 ADD DUP1 DUP3 GT ISZERO PUSH2 0x2EC JUMPI PUSH2 0x2EC PUSH2 0x14C2 JUMP JUMPDEST PUSH4 0x4E487B71 PUSH1 0xE0 SHL PUSH1 0x0 MSTORE PUSH1 0x31 PUSH1 0x4 MSTORE PUSH1 0x24 PUSH1 0x0 REVERT JUMPDEST PUSH1 0x0 DUP1 PUSH1 0x40 DUP4 DUP6 SUB SLT ISZERO PUSH2 0x15C5 JUMPI PUSH1 0x0 DUP1 REVERT JUMPDEST POP POP DUP1 MLOAD PUSH1 0x20 SWAP1 SWAP2 ADD MLOAD SWAP1 SWAP3 SWAP1 SWAP2 POP JUMP JUMPDEST DUP1 DUP3 MUL DUP2 ISZERO DUP3 DUP3 DIV DUP5 EQ OR PUSH2 0x2EC JUMPI PUSH2 0x2EC PUSH2 0x14C2 JUMP JUMPDEST PUSH1 0x0 DUP3 PUSH2 0x160A JUMPI PUSH4 0x4E487B71 PUSH1 0xE0 SHL PUSH1 0x0 MSTORE PUSH1 0x12 PUSH1 0x4 MSTORE PUSH1 0x24 PUSH1 0x0 REVERT JUMPDEST POP DIV SWAP1 JUMP INVALID PUSH26 0x35BD0AE54BC31F548C14DBA4D37C5C64B3F8CA900CB468FB8ABD SLOAD 0xD5 DUP10 0x4F SSTORE LOG2 PUSH5 0x6970667358 0x22 SLT KECCAK256 0xCB 0xB6 SELFBALANCE 0xBF 0xC9 MOD COINBASE 0xDF 0xD5 PUSH13 0x8991B296A2B0523CE82EB27CA4 PUSH20 0xEEAE1EBF9BFAA9364736F6C6343000818003300 "
        },
        "methodIdentifiers": {
          "DEFAULT_ADMIN_ROLE()": "a217fddf",
          "addCryptoComponent(bytes32,uint256,uint8)": "4841aad1",
          "addFiatComponent(bytes32,uint256,uint8)": "8c8708f8",
          "currentIndex()": "26987b60",
          "getCryptoComponents()": "e9099794",
          "getFiatComponents()": "71871187",
          "getRoleAdmin(bytes32)": "248a9ca3",
          "getTotalCryptoWeight()": "e9d83142",
          "getTotalFiatWeight()": "8c06651e",
          "grantRole(bytes32,address)": "2f2ff15d",
          "hasRole(bytes32,address)": "91d14854",
          "oracleRouter()": "55a29e91",
          "pause()": "8456cb59",
          "paused()": "5c975abb",
          "removeComponent(bytes32,bool)": "b150fe2c",
          "renounceRole(bytes32,address)": "36568abe",
          "revokeRole(bytes32,address)": "d547741f",
          "supportsInterface(bytes4)": "01ffc9a7",
          "unpause()": "3f4ba83a",
          "updateComponentWeight(bytes32,uint256,bool)": "36a4f825"
        }
      },
      "storageLayout": {
        "storage": [
          {
            "astId": 27,
            "contract": "src/AVGXCalculator.sol:AVGXCalculator2",
            "label": "_roles",
            "offset": 0,
            "slot": "0",
            "type": "t_mapping(t_bytes32,t_struct(RoleData)22_storage)"
          },
          {
            "astId": 1169,
            "contract": "src/AVGXCalculator.sol:AVGXCalculator2",
            "label": "_paused",
            "offset": 0,
            "slot": "1",
            "type": "t_bool"
          },
          {
            "astId": 1990,
            "contract": "src/AVGXCalculator.sol:AVGXCalculator2",
            "label": "_fiatComponents",
            "offset": 0,
            "slot": "2",
            "type": "t_array(t_struct(Component)2955_storage)dyn_storage"
          },
          {
            "astId": 1994,
            "contract": "src/AVGXCalculator.sol:AVGXCalculator2",
            "label": "_cryptoComponents",
            "offset": 0,
            "slot": "3",
            "type": "t_array(t_struct(Component)2955_storage)dyn_storage"
          },
          {
            "astId": 1998,
            "contract": "src/AVGXCalculator.sol:AVGXCalculator2",
            "label": "_fiatIndexes",
            "offset": 0,
            "slot": "4",
            "type": "t_mapping(t_bytes32,t_uint256)"
          },
          {
            "astId": 2002,
            "contract": "src/AVGXCalculator.sol:AVGXCalculator2",
            "label": "_cryptoIndexes",
            "offset": 0,
            "slot": "5",
            "type": "t_mapping(t_bytes32,t_uint256)"
          }
        ],
        "types": {
          "t_address": {
            "encoding": "inplace",
            "label": "address",
            "numberOfBytes": "20"
          },
          "t_array(t_struct(Component)2955_storage)dyn_storage": {
            "base": "t_struct(Component)2955_storage",
            "encoding": "dynamic_array",
            "label": "struct IAVGXCalculator.Component[]",
            "numberOfBytes": "32"
          },
          "t_bool": {
            "encoding": "inplace",
            "label": "bool",
            "numberOfBytes": "1"
          },
          "t_bytes32": {
            "encoding": "inplace",
            "label": "bytes32",
            "numberOfBytes": "32"
          },
          "t_mapping(t_address,t_bool)": {
            "encoding": "mapping",
            "key": "t_address",
            "label": "mapping(address => bool)",
            "numberOfBytes": "32",
            "value": "t_bool"
          },
          "t_mapping(t_bytes32,t_struct(RoleData)22_storage)": {
            "encoding": "mapping",
            "key": "t_bytes32",
            "label": "mapping(bytes32 => struct AccessControl.RoleData)",
            "numberOfBytes": "32",
            "value": "t_struct(RoleData)22_storage"
          },
          "t_mapping(t_bytes32,t_uint256)": {
            "encoding": "mapping",
            "key": "t_bytes32",
            "label": "mapping(bytes32 => uint256)",
            "numberOfBytes": "32",
            "value": "t_uint256"
          },
          "t_struct(Component)2955_storage": {
            "encoding": "inplace",
            "label": "struct IAVGXCalculator.Component",
            "members": [
              {
                "astId": 2950,
                "contract": "src/AVGXCalculator.sol:AVGXCalculator2",
                "label": "assetId",
                "offset": 0,
                "slot": "0",
                "type": "t_bytes32"
              },
              {
                "astId": 2952,
                "contract": "src/AVGXCalculator.sol:AVGXCalculator2",
                "label": "weightBps",
                "offset": 0,
                "slot": "1",
                "type": "t_uint256"
              },
              {
                "astId": 2954,
                "contract": "src/AVGXCalculator.sol:AVGXCalculator2",
                "label": "decimals",
                "offset": 0,
                "slot": "2",
                "type": "t_uint8"
              }
            ],
            "numberOfBytes": "96"
          },
          "t_struct(RoleData)22_storage": {
            "encoding": "inplace",
            "label": "struct AccessControl.RoleData",
            "members": [
              {
                "astId": 19,
                "contract": "src/AVGXCalculator.sol:AVGXCalculator2",
                "label": "hasRole",
                "offset": 0,
                "slot": "0",
                "type": "t_mapping(t_address,t_bool)"
              },
              {
                "astId": 21,
                "contract": "src/AVGXCalculator.sol:AVGXCalculator2",
                "label": "adminRole",
                "offset": 0,
                "slot": "1",
                "type": "t_bytes32"
              }
            ],
            "numberOfBytes": "64"
          },
          "t_uint256": {
            "encoding": "inplace",
            "label": "uint256",
            "numberOfBytes": "32"
          },
          "t_uint8": {
            "encoding": "inplace",
            "label": "uint8",
            "numberOfBytes": "1"
          }
        }
      }
    }
  }
}