{
  "src/AVGXAMM.sol": {
    "AVGXAMM": {
      "abi": [
        {
          "inputs": [
            {
              "internalType": "address",
              "name": "accessController",
              "type": "address"
            },
            {
              "internalType": "address",
              "name": "avgxToken_",
              "type": "address"
            },
            {
              "internalType": "address",
              "name": "calculator_",
              "type": "address"
            },
            {
              "internalType": "address",
              "name": "baseAsset_",
              "type": "address"
            },
            {
              "internalType": "address",
              "name": "vault_",
              "type": "address"
            }
          ],
          "stateMutability": "nonpayable",
          "type": "constructor"
        },
        {
          "inputs": [],
          "name": "AccessControlBadConfirmation",
          "type": "error"
        },
        {
          "inputs": [
            {
              "internalType": "address",
              "name": "account",
              "type": "address"
            },
            {
              "internalType": "bytes32",
              "name": "neededRole",
              "type": "bytes32"
            }
          ],
          "name": "AccessControlUnauthorizedAccount",
          "type": "error"
        },
        {
          "inputs": [],
          "name": "DivisionByZero",
          "type": "error"
        },
        {
          "inputs": [],
          "name": "EnforcedPause",
          "type": "error"
        },
        {
          "inputs": [],
          "name": "ExpectedPause",
          "type": "error"
        },
        {
          "inputs": [],
          "name": "InsufficientLiquidity",
          "type": "error"
        },
        {
          "inputs": [],
          "name": "InvalidAmount",
          "type": "error"
        },
        {
          "inputs": [],
          "name": "MathOverflow",
          "type": "error"
        },
        {
          "inputs": [],
          "name": "ReentrancyGuardReentrantCall",
          "type": "error"
        },
        {
          "inputs": [
            {
              "internalType": "address",
              "name": "token",
              "type": "address"
            }
          ],
          "name": "SafeERC20FailedOperation",
          "type": "error"
        },
        {
          "inputs": [],
          "name": "SlippageExceeded",
          "type": "error"
        },
        {
          "anonymous": false,
          "inputs": [
            {
              "indexed": true,
              "internalType": "address",
              "name": "user",
              "type": "address"
            },
            {
              "indexed": false,
              "internalType": "uint256",
              "name": "baseIn",
              "type": "uint256"
            },
            {
              "indexed": false,
              "internalType": "uint256",
              "name": "avgxOut",
              "type": "uint256"
            },
            {
              "indexed": false,
              "internalType": "uint256",
              "name": "fee",
              "type": "uint256"
            }
          ],
          "name": "MintedWithBase",
          "type": "event"
        },
        {
          "anonymous": false,
          "inputs": [
            {
              "components": [
                {
                  "internalType": "uint256",
                  "name": "feeBps",
                  "type": "uint256"
                },
                {
                  "internalType": "uint256",
                  "name": "spreadBps",
                  "type": "uint256"
                },
                {
                  "internalType": "address",
                  "name": "feeRecipient",
                  "type": "address"
                },
                {
                  "internalType": "address",
                  "name": "treasury",
                  "type": "address"
                }
              ],
              "indexed": false,
              "internalType": "struct IAVGXAMM.AMMParams",
              "name": "params",
              "type": "tuple"
            }
          ],
          "name": "ParamsUpdated",
          "type": "event"
        },
        {
          "anonymous": false,
          "inputs": [
            {
              "indexed": false,
              "internalType": "address",
              "name": "account",
              "type": "address"
            }
          ],
          "name": "Paused",
          "type": "event"
        },
        {
          "anonymous": false,
          "inputs": [
            {
              "indexed": true,
              "internalType": "address",
              "name": "user",
              "type": "address"
            },
            {
              "indexed": false,
              "internalType": "uint256",
              "name": "avgxIn",
              "type": "uint256"
            },
            {
              "indexed": false,
              "internalType": "uint256",
              "name": "baseOut",
              "type": "uint256"
            },
            {
              "indexed": false,
              "internalType": "uint256",
              "name": "fee",
              "type": "uint256"
            }
          ],
          "name": "RedeemedForBase",
          "type": "event"
        },
        {
          "anonymous": false,
          "inputs": [
            {
              "indexed": true,
              "internalType": "bytes32",
              "name": "role",
              "type": "bytes32"
            },
            {
              "indexed": true,
              "internalType": "bytes32",
              "name": "previousAdminRole",
              "type": "bytes32"
            },
            {
              "indexed": true,
              "internalType": "bytes32",
              "name": "newAdminRole",
              "type": "bytes32"
            }
          ],
          "name": "RoleAdminChanged",
          "type": "event"
        },
        {
          "anonymous": false,
          "inputs": [
            {
              "indexed": true,
              "internalType": "bytes32",
              "name": "role",
              "type": "bytes32"
            },
            {
              "indexed": true,
              "internalType": "address",
              "name": "account",
              "type": "address"
            },
            {
              "indexed": true,
              "internalType": "address",
              "name": "sender",
              "type": "address"
            }
          ],
          "name": "RoleGranted",
          "type": "event"
        },
        {
          "anonymous": false,
          "inputs": [
            {
              "indexed": true,
              "internalType": "bytes32",
              "name": "role",
              "type": "bytes32"
            },
            {
              "indexed": true,
              "internalType": "address",
              "name": "account",
              "type": "address"
            },
            {
              "indexed": true,
              "internalType": "address",
              "name": "sender",
              "type": "address"
            }
          ],
          "name": "RoleRevoked",
          "type": "event"
        },
        {
          "anonymous": false,
          "inputs": [
            {
              "indexed": false,
              "internalType": "address",
              "name": "account",
              "type": "address"
            }
          ],
          "name": "Unpaused",
          "type": "event"
        },
        {
          "inputs": [],
          "name": "DEFAULT_ADMIN_ROLE",
          "outputs": [
            {
              "internalType": "bytes32",
              "name": "",
              "type": "bytes32"
            }
          ],
          "stateMutability": "view",
          "type": "function"
        },
        {
          "inputs": [],
          "name": "avgxToken",
          "outputs": [
            {
              "internalType": "contract IAVGXToken",
              "name": "",
              "type": "address"
            }
          ],
          "stateMutability": "view",
          "type": "function"
        },
        {
          "inputs": [],
          "name": "baseAsset",
          "outputs": [
            {
              "internalType": "contract IERC20",
              "name": "",
              "type": "address"
            }
          ],
          "stateMutability": "view",
          "type": "function"
        },
        {
          "inputs": [],
          "name": "calculator",
          "outputs": [
            {
              "internalType": "contract IAVGXCalculator",
              "name": "",
              "type": "address"
            }
          ],
          "stateMutability": "view",
          "type": "function"
        },
        {
          "inputs": [],
          "name": "getParams",
          "outputs": [
            {
              "components": [
                {
                  "internalType": "uint256",
                  "name": "feeBps",
                  "type": "uint256"
                },
                {
                  "internalType": "uint256",
                  "name": "spreadBps",
                  "type": "uint256"
                },
                {
                  "internalType": "address",
                  "name": "feeRecipient",
                  "type": "address"
                },
                {
                  "internalType": "address",
                  "name": "treasury",
                  "type": "address"
                }
              ],
              "internalType": "struct IAVGXAMM.AMMParams",
              "name": "params",
              "type": "tuple"
            }
          ],
          "stateMutability": "view",
          "type": "function"
        },
        {
          "inputs": [
            {
              "internalType": "uint256",
              "name": "baseIn",
              "type": "uint256"
            }
          ],
          "name": "getQuoteMint",
          "outputs": [
            {
              "internalType": "uint256",
              "name": "avgxOut",
              "type": "uint256"
            },
            {
              "internalType": "uint256",
              "name": "fee",
              "type": "uint256"
            }
          ],
          "stateMutability": "view",
          "type": "function"
        },
        {
          "inputs": [
            {
              "internalType": "uint256",
              "name": "avgxIn",
              "type": "uint256"
            }
          ],
          "name": "getQuoteRedeem",
          "outputs": [
            {
              "internalType": "uint256",
              "name": "baseOut",
              "type": "uint256"
            },
            {
              "internalType": "uint256",
              "name": "fee",
              "type": "uint256"
            }
          ],
          "stateMutability": "view",
          "type": "function"
        },
        {
          "inputs": [
            {
              "internalType": "bytes32",
              "name": "role",
              "type": "bytes32"
            }
          ],
          "name": "getRoleAdmin",
          "outputs": [
            {
              "internalType": "bytes32",
              "name": "",
              "type": "bytes32"
            }
          ],
          "stateMutability": "view",
          "type": "function"
        },
        {
          "inputs": [
            {
              "internalType": "bytes32",
              "name": "role",
              "type": "bytes32"
            },
            {
              "internalType": "address",
              "name": "account",
              "type": "address"
            }
          ],
          "name": "grantRole",
          "outputs": [],
          "stateMutability": "nonpayable",
          "type": "function"
        },
        {
          "inputs": [
            {
              "internalType": "bytes32",
              "name": "role",
              "type": "bytes32"
            },
            {
              "internalType": "address",
              "name": "account",
              "type": "address"
            }
          ],
          "name": "hasRole",
          "outputs": [
            {
              "internalType": "bool",
              "name": "",
              "type": "bool"
            }
          ],
          "stateMutability": "view",
          "type": "function"
        },
        {
          "inputs": [
            {
              "internalType": "uint256",
              "name": "baseIn",
              "type": "uint256"
            },
            {
              "internalType": "uint256",
              "name": "minAvgxOut",
              "type": "uint256"
            },
            {
              "internalType": "address",
              "name": "to",
              "type": "address"
            }
          ],
          "name": "mintWithBase",
          "outputs": [
            {
              "internalType": "uint256",
              "name": "avgxOut",
              "type": "uint256"
            }
          ],
          "stateMutability": "nonpayable",
          "type": "function"
        },
        {
          "inputs": [],
          "name": "pause",
          "outputs": [],
          "stateMutability": "nonpayable",
          "type": "function"
        },
        {
          "inputs": [],
          "name": "paused",
          "outputs": [
            {
              "internalType": "bool",
              "name": "",
              "type": "bool"
            }
          ],
          "stateMutability": "view",
          "type": "function"
        },
        {
          "inputs": [
            {
              "internalType": "uint256",
              "name": "avgxIn",
              "type": "uint256"
            },
            {
              "internalType": "uint256",
              "name": "minBaseOut",
              "type": "uint256"
            },
            {
              "internalType": "address",
              "name": "to",
              "type": "address"
            }
          ],
          "name": "redeemForBase",
          "outputs": [
            {
              "internalType": "uint256",
              "name": "baseOut",
              "type": "uint256"
            }
          ],
          "stateMutability": "nonpayable",
          "type": "function"
        },
        {
          "inputs": [
            {
              "internalType": "bytes32",
              "name": "role",
              "type": "bytes32"
            },
            {
              "internalType": "address",
              "name": "callerConfirmation",
              "type": "address"
            }
          ],
          "name": "renounceRole",
          "outputs": [],
          "stateMutability": "nonpayable",
          "type": "function"
        },
        {
          "inputs": [
            {
              "internalType": "bytes32",
              "name": "role",
              "type": "bytes32"
            },
            {
              "internalType": "address",
              "name": "account",
              "type": "address"
            }
          ],
          "name": "revokeRole",
          "outputs": [],
          "stateMutability": "nonpayable",
          "type": "function"
        },
        {
          "inputs": [
            {
              "internalType": "bytes4",
              "name": "interfaceId",
              "type": "bytes4"
            }
          ],
          "name": "supportsInterface",
          "outputs": [
            {
              "internalType": "bool",
              "name": "",
              "type": "bool"
            }
          ],
          "stateMutability": "view",
          "type": "function"
        },
        {
          "inputs": [],
          "name": "unpause",
          "outputs": [],
          "stateMutability": "nonpayable",
          "type": "function"
        },
        {
          "inputs": [
            {
              "components": [
                {
                  "internalType": "uint256",
                  "name": "feeBps",
                  "type": "uint256"
                },
                {
                  "internalType": "uint256",
                  "name": "spreadBps",
                  "type": "uint256"
                },
                {
                  "internalType": "address",
                  "name": "feeRecipient",
                  "type": "address"
                },
                {
                  "internalType": "address",
                  "name": "treasury",
                  "type": "address"
                }
              ],
              "internalType": "struct IAVGXAMM.AMMParams",
              "name": "params",
              "type": "tuple"
            }
          ],
          "name": "updateParams",
          "outputs": [],
          "stateMutability": "nonpayable",
          "type": "function"
        },
        {
          "inputs": [],
          "name": "vault",
          "outputs": [
            {
              "internalType": "contract AVGXVault",
              "name": "",
              "type": "address"
            }
          ],
          "stateMutability": "view",
          "type": "function"
        }
      ],
      "evm": {
        "bytecode": {
          "linkReferences": {},
          "object": "6101006040523480156200001257600080fd5b506040516200179238038062001792833981016040819052620000359162000253565b60016002556200004e6001600160a01b03861662000129565b620000626001600160a01b03851662000129565b620000766001600160a01b03841662000129565b6200008a6001600160a01b03831662000129565b6200009e6001600160a01b03821662000129565b620000ab60008662000187565b506001600160a01b03938416608090815292841660a05290831660c052821660e052604080519182018152601e808352600a60208401819052949093169082018190526060909101819052600391909155600491909155600580546001600160a01b03199081168317909155600680549091169091179055620002c3565b6001600160a01b038116620001845760405162461bcd60e51b815260206004820152601360248201527f526f6c65733a205a65726f206164647265737300000000000000000000000000604482015260640160405180910390fd5b50565b6000828152602081815260408083206001600160a01b038516845290915281205460ff166200022c576000838152602081815260408083206001600160a01b03861684529091529020805460ff19166001179055620001e33390565b6001600160a01b0316826001600160a01b0316847f2f8788117e7eff1d82e926ec794901d17c78024a50270940304540a733656f0d60405160405180910390a450600162000230565b5060005b92915050565b80516001600160a01b03811681146200024e57600080fd5b919050565b600080600080600060a086880312156200026c57600080fd5b620002778662000236565b9450620002876020870162000236565b9350620002976040870162000236565b9250620002a76060870162000236565b9150620002b76080870162000236565b90509295509295909350565b60805160a05160c05160e051611441620003516000396000818161037001528181610724015281816108670152818161091a015281816109a80152610bcc01526000818161030f01528181610bff01528181610c610152610ca3015260008181610336015281816105af0152610a670152600081816102bd015281816107df0152610cf701526114416000f3fe608060405234801561001057600080fd5b506004361061012c5760003560e01c80639b64fc3b116100ad578063cb5ff73911610071578063cb5ff739146102f7578063cdf456e11461030a578063ce3e39c014610331578063d547741f14610358578063fbfa77cf1461036b57600080fd5b80639b64fc3b14610262578063a217fddf1461028a578063a805e0f514610292578063c4d99bc2146102a5578063c97af5e6146102b857600080fd5b80635c975abb116100f45780635c975abb146101ba5780635e615a6b146101c55780636011544a146102345780638456cb591461024757806391d148541461024f57600080fd5b806301ffc9a714610131578063248a9ca3146101595780632f2ff15d1461018a57806336568abe1461019f5780633f4ba83a146101b2575b600080fd5b61014461013f366004611204565b610392565b60405190151581526020015b60405180910390f35b61017c61016736600461122e565b60009081526020819052604090206001015490565b604051908152602001610150565b61019d610198366004611263565b6103c9565b005b61019d6101ad366004611263565b6103f4565b61019d61042c565b60015460ff16610144565b6102276040805160808101825260008082526020820181905291810182905260608101919091525060408051608081018252600354815260045460208201526005546001600160a01b0390811692820192909252600654909116606082015290565b604051610150919061128f565b61019d6102423660046112c9565b610461565b61019d61054d565b61014461025d366004611263565b61057f565b61027561027036600461122e565b6105a8565b60408051928352602083019190915201610150565b61017c600081565b61017c6102a0366004611348565b61069d565b6102756102b336600461122e565b610a60565b6102df7f000000000000000000000000000000000000000000000000000000000000000081565b6040516001600160a01b039091168152602001610150565b61017c610305366004611348565b610b50565b6102df7f000000000000000000000000000000000000000000000000000000000000000081565b6102df7f000000000000000000000000000000000000000000000000000000000000000081565b61019d610366366004611263565b610da1565b6102df7f000000000000000000000000000000000000000000000000000000000000000081565b60006001600160e01b03198216637965db0b60e01b14806103c357506301ffc9a760e01b6001600160e01b03198316145b92915050565b6000828152602081905260409020600101546103e481610dc6565b6103ee8383610dd0565b50505050565b6001600160a01b038116331461041d5760405163334bd91960e11b815260040160405180910390fd5b6104278282610e62565b505050565b7f65d7a28e3265b37a6474929f336521b332c1681b933f6cb9f3376673440d862a61045681610dc6565b61045e610ecd565b50565b7f7935bd0ae54bc31f548c14dba4d37c5c64b3f8ca900cb468fb8abd54d5894f5561048b81610dc6565b815161049690610f1f565b6104a38260200151610f1f565b6104b982604001516001600160a01b0316610f6b565b6104cf82606001516001600160a01b0316610f6b565b81516003556020820151600455604080830151600580546001600160a01b039283166001600160a01b031991821617909155606085015160068054919093169116179055517f46ef251c0ef10f7ddea3a753076c89fade5f9a67a24da6d959fb68da1cdabf689061054190849061128f565b60405180910390a15050565b7f65d7a28e3265b37a6474929f336521b332c1681b933f6cb9f3376673440d862a61057781610dc6565b61045e610fb7565b6000918252602082815260408084206001600160a01b0393909316845291905290205460ff1690565b60008060007f00000000000000000000000000000000000000000000000000000000000000006001600160a01b03166326987b606040518163ffffffff1660e01b8152600401602060405180830381865afa15801561060b573d6000803e3d6000fd5b505050506040513d601f19601f8201168201806040525081019061062f919061137d565b905060006127106003600101548361064791906113ac565b61065191906113c3565b61065b90836113e5565b905060006106698683610ff2565b6003549091506127109061067d90836113ac565b61068791906113c3565b935061069384826113e5565b9450505050915091565b60006106a761104b565b6106af611073565b836000036106d05760405163162908e360e11b815260040160405180910390fd5b6106e2826001600160a01b0316610f6b565b60006106ed856105a8565b90925090508382101561071357604051638199f5f360e01b815260040160405180910390fd5b600061071f82846113e5565b9050807f00000000000000000000000000000000000000000000000000000000000000006001600160a01b03166312065fe06040518163ffffffff1660e01b8152600401602060405180830381865afa158015610780573d6000803e3d6000fd5b505050506040513d601f19601f820116820180604052508101906107a4919061137d565b10156107c35760405163bb55fd2760e01b815260040160405180910390fd5b60405163079cc67960e41b8152336004820152602481018790527f00000000000000000000000000000000000000000000000000000000000000006001600160a01b0316906379cc679090604401600060405180830381600087803b15801561082b57600080fd5b505af115801561083f573d6000803e3d6000fd5b505060405163f3fef3a360e01b81526001600160a01b038781166004830152602482018590527f000000000000000000000000000000000000000000000000000000000000000016925063f3fef3a39150604401600060405180830381600087803b1580156108ad57600080fd5b505af11580156108c1573d6000803e3d6000fd5b505050506000821115610a0a5760006108db6002846113c3565b905060006108e982856113e5565b905081156109795760055460405163f3fef3a360e01b81526001600160a01b039182166004820152602481018490527f00000000000000000000000000000000000000000000000000000000000000009091169063f3fef3a390604401600060405180830381600087803b15801561096057600080fd5b505af1158015610974573d6000803e3d6000fd5b505050505b8015610a075760065460405163f3fef3a360e01b81526001600160a01b039182166004820152602481018390527f00000000000000000000000000000000000000000000000000000000000000009091169063f3fef3a390604401600060405180830381600087803b1580156109ee57600080fd5b505af1158015610a02573d6000803e3d6000fd5b505050505b50505b604080518781526020810185905290810183905233907fc5bb42eb8f717e0d9a9c590214247246f8e74ac766178692d81b3ee05904c78d9060600160405180910390a25050610a596001600255565b9392505050565b60008060007f00000000000000000000000000000000000000000000000000000000000000006001600160a01b03166326987b606040518163ffffffff1660e01b8152600401602060405180830381865afa158015610ac3573d6000803e3d6000fd5b505050506040513d601f19601f82011682018060405250810190610ae7919061137d565b60035490915061271090610afb90866113ac565b610b0591906113c3565b9150600061271060036001015483610b1d91906113ac565b610b2791906113c3565b610b3190836113f8565b9050610b4781610b4185886113e5565b90611099565b93505050915091565b6000610b5a61104b565b610b62611073565b83600003610b835760405163162908e360e11b815260040160405180910390fd5b610b95826001600160a01b0316610f6b565b6000610ba085610a60565b909250905083821015610bc657604051638199f5f360e01b815260040160405180910390fd5b610c27337f0000000000000000000000000000000000000000000000000000000000000000610bf584896113e5565b6001600160a01b037f0000000000000000000000000000000000000000000000000000000000000000169291906110d9565b8015610cd1576000610c3a6002836113c3565b90506000610c4882846113e5565b90508115610c8c57600554610c8c906001600160a01b037f0000000000000000000000000000000000000000000000000000000000000000811691339116856110d9565b8015610cce57600654610cce906001600160a01b037f0000000000000000000000000000000000000000000000000000000000000000811691339116846110d9565b50505b6040516340c10f1960e01b81526001600160a01b038481166004830152602482018490527f000000000000000000000000000000000000000000000000000000000000000016906340c10f1990604401600060405180830381600087803b158015610d3b57600080fd5b505af1158015610d4f573d6000803e3d6000fd5b505060408051888152602081018690529081018490523392507f66fa0fb2e1329e637cafdc009a8452680c58c0d101ae4c60e2152bc93f7be603915060600160405180910390a250610a596001600255565b600082815260208190526040902060010154610dbc81610dc6565b6103ee8383610e62565b61045e8133611133565b6000610ddc838361057f565b610e5a576000838152602081815260408083206001600160a01b03861684529091529020805460ff19166001179055610e123390565b6001600160a01b0316826001600160a01b0316847f2f8788117e7eff1d82e926ec794901d17c78024a50270940304540a733656f0d60405160405180910390a45060016103c3565b5060006103c3565b6000610e6e838361057f565b15610e5a576000838152602081815260408083206001600160a01b0386168085529252808320805460ff1916905551339286917ff6391f5c32d9c69d2a47ea670b442974b53935d1edc7fd64eb21e047a839171b9190a45060016103c3565b610ed5611170565b6001805460ff191690557f5db9ee0a495bf2e6ff9c91a7834c1ba4fdd244a5e8aa4e537bd38aeae4b073aa335b6040516001600160a01b03909116815260200160405180910390a1565b61271081111561045e5760405162461bcd60e51b8152602060048201526012602482015271526f6c65733a20496e76616c69642042505360701b60448201526064015b60405180910390fd5b6001600160a01b03811661045e5760405162461bcd60e51b8152602060048201526013602482015272526f6c65733a205a65726f206164647265737360681b6044820152606401610f62565b610fbf611073565b6001805460ff1916811790557f62e78cea01bee320cd4e420270b5ea74000d11b0c9f74754ebdbfc544b05a25833610f02565b600082600003611004575060006103c3565b61100e82846113ac565b90508161101b84836113c3565b1461103957604051634eab2ea760e11b815260040160405180910390fd5b610a59670de0b6b3a7640000826113c3565b600280540361106d57604051633ee5aeb560e01b815260040160405180910390fd5b60028055565b60015460ff16156110975760405163d93c066560e01b815260040160405180910390fd5b565b6000816000036110bc576040516323d359a360e01b815260040160405180910390fd5b816110cf670de0b6b3a7640000856113ac565b610a5991906113c3565b604080516001600160a01b0385811660248301528416604482015260648082018490528251808303909101815260849091019091526020810180516001600160e01b03166323b872dd60e01b1790526103ee908590611193565b61113d828261057f565b61116c5760405163e2517d3f60e01b81526001600160a01b038216600482015260248101839052604401610f62565b5050565b60015460ff1661109757604051638dfc202b60e01b815260040160405180910390fd5b600080602060008451602086016000885af1806111b6576040513d6000823e3d81fd5b50506000513d915081156111ce5780600114156111db565b6001600160a01b0384163b155b156103ee57604051635274afe760e01b81526001600160a01b0385166004820152602401610f62565b60006020828403121561121657600080fd5b81356001600160e01b031981168114610a5957600080fd5b60006020828403121561124057600080fd5b5035919050565b80356001600160a01b038116811461125e57600080fd5b919050565b6000806040838503121561127657600080fd5b8235915061128660208401611247565b90509250929050565b81518152602080830151908201526040808301516001600160a01b0390811691830191909152606092830151169181019190915260800190565b6000608082840312156112db57600080fd5b6040516080810181811067ffffffffffffffff8211171561130c57634e487b7160e01b600052604160045260246000fd5b8060405250823581526020830135602082015261132b60408401611247565b604082015261133c60608401611247565b60608201529392505050565b60008060006060848603121561135d57600080fd5b833592506020840135915061137460408501611247565b90509250925092565b60006020828403121561138f57600080fd5b5051919050565b634e487b7160e01b600052601160045260246000fd5b80820281158282048414176103c3576103c3611396565b6000826113e057634e487b7160e01b600052601260045260246000fd5b500490565b818103818111156103c3576103c3611396565b808201808211156103c3576103c361139656fea26469706673582212202f7318371547b7b970e7ffabf602400e717fb444961f9bd4d8c444ba0e7e1fc564736f6c63430008180033",
          "opcodes": "PUSH2 0x100 PUSH1 0x40 MSTORE CALLVALUE DUP1 ISZERO PUSH3 0x12 JUMPI PUSH1 0x0 DUP1 REVERT JUMPDEST POP PUSH1 0x40 MLOAD PUSH3 0x1792 CODESIZE SUB DUP1 PUSH3 0x1792 DUP4 CODECOPY DUP2 ADD PUSH1 0x40 DUP2 SWAP1 MSTORE PUSH3 0x35 SWAP2 PUSH3 0x253 JUMP JUMPDEST PUSH1 0x1 PUSH1 0x2 SSTORE PUSH3 0x4E PUSH1 0x1 PUSH1 0x1 PUSH1 0xA0 SHL SUB DUP7 AND PUSH3 0x129 JUMP JUMPDEST PUSH3 0x62 PUSH1 0x1 PUSH1 0x1 PUSH1 0xA0 SHL SUB DUP6 AND PUSH3 0x129 JUMP JUMPDEST PUSH3 0x76 PUSH1 0x1 PUSH1 0x1 PUSH1 0xA0 SHL SUB DUP5 AND PUSH3 0x129 JUMP JUMPDEST PUSH3 0x8A PUSH1 0x1 PUSH1 0x1 PUSH1 0xA0 SHL SUB DUP4 AND PUSH3 0x129 JUMP JUMPDEST PUSH3 0x9E PUSH1 0x1 PUSH1 0x1 PUSH1 0xA0 SHL SUB DUP3 AND PUSH3 0x129 JUMP JUMPDEST PUSH3 0xAB PUSH1 0x0 DUP7 PUSH3 0x187 JUMP JUMPDEST POP PUSH1 0x1 PUSH1 0x1 PUSH1 0xA0 SHL SUB SWAP4 DUP5 AND PUSH1 0x80 SWAP1 DUP2 MSTORE SWAP3 DUP5 AND PUSH1 0xA0 MSTORE SWAP1 DUP4 AND PUSH1 0xC0 MSTORE DUP3 AND PUSH1 0xE0 MSTORE PUSH1 0x40 DUP1 MLOAD SWAP2 DUP3 ADD DUP2 MSTORE PUSH1 0x1E DUP1 DUP4 MSTORE PUSH1 0xA PUSH1 0x20 DUP5 ADD DUP2 SWAP1 MSTORE SWAP5 SWAP1 SWAP4 AND SWAP1 DUP3 ADD DUP2 SWAP1 MSTORE PUSH1 0x60 SWAP1 SWAP2 ADD DUP2 SWAP1 MSTORE PUSH1 0x3 SWAP2 SWAP1 SWAP2 SSTORE PUSH1 0x4 SWAP2 SWAP1 SWAP2 SSTORE PUSH1 0x5 DUP1 SLOAD PUSH1 0x1 PUSH1 0x1 PUSH1 0xA0 SHL SUB NOT SWAP1 DUP2 AND DUP4 OR SWAP1 SWAP2 SSTORE PUSH1 0x6 DUP1 SLOAD SWAP1 SWAP2 AND SWAP1 SWAP2 OR SWAP1 SSTORE PUSH3 0x2C3 JUMP JUMPDEST PUSH1 0x1 PUSH1 0x1 PUSH1 0xA0 SHL SUB DUP2 AND PUSH3 0x184 JUMPI PUSH1 0x40 MLOAD PUSH3 0x461BCD PUSH1 0xE5 SHL DUP2 MSTORE PUSH1 0x20 PUSH1 0x4 DUP3 ADD MSTORE PUSH1 0x13 PUSH1 0x24 DUP3 ADD MSTORE PUSH32 0x526F6C65733A205A65726F206164647265737300000000000000000000000000 PUSH1 0x44 DUP3 ADD MSTORE PUSH1 0x64 ADD PUSH1 0x40 MLOAD DUP1 SWAP2 SUB SWAP1 REVERT JUMPDEST POP JUMP JUMPDEST PUSH1 0x0 DUP3 DUP2 MSTORE PUSH1 0x20 DUP2 DUP2 MSTORE PUSH1 0x40 DUP1 DUP4 KECCAK256 PUSH1 0x1 PUSH1 0x1 PUSH1 0xA0 SHL SUB DUP6 AND DUP5 MSTORE SWAP1 SWAP2 MSTORE DUP2 KECCAK256 SLOAD PUSH1 0xFF AND PUSH3 0x22C JUMPI PUSH1 0x0 DUP4 DUP2 MSTORE PUSH1 0x20 DUP2 DUP2 MSTORE PUSH1 0x40 DUP1 DUP4 KECCAK256 PUSH1 0x1 PUSH1 0x1 PUSH1 0xA0 SHL SUB DUP7 AND DUP5 MSTORE SWAP1 SWAP2 MSTORE SWAP1 KECCAK256 DUP1 SLOAD PUSH1 0xFF NOT AND PUSH1 0x1 OR SWAP1 SSTORE PUSH3 0x1E3 CALLER SWAP1 JUMP JUMPDEST PUSH1 0x1 PUSH1 0x1 PUSH1 0xA0 SHL SUB AND DUP3 PUSH1 0x1 PUSH1 0x1 PUSH1 0xA0 SHL SUB AND DUP5 PUSH32 0x2F8788117E7EFF1D82E926EC794901D17C78024A50270940304540A733656F0D PUSH1 0x40 MLOAD PUSH1 0x40 MLOAD DUP1 SWAP2 SUB SWAP1 LOG4 POP PUSH1 0x1 PUSH3 0x230 JUMP JUMPDEST POP PUSH1 0x0 JUMPDEST SWAP3 SWAP2 POP POP JUMP JUMPDEST DUP1 MLOAD PUSH1 0x1 PUSH1 0x1 PUSH1 0xA0 SHL SUB DUP2 AND DUP2 EQ PUSH3 0x24E JUMPI PUSH1 0x0 DUP1 REVERT JUMPDEST SWAP2 SWAP1 POP JUMP JUMPDEST PUSH1 0x0 DUP1 PUSH1 0x0 DUP1 PUSH1 0x0 PUSH1 0xA0 DUP7 DUP9 SUB SLT ISZERO PUSH3 0x26C JUMPI PUSH1 0x0 DUP1 REVERT JUMPDEST PUSH3 0x277 DUP7 PUSH3 0x236 JUMP JUMPDEST SWAP5 POP PUSH3 0x287 PUSH1 0x20 DUP8 ADD PUSH3 0x236 JUMP JUMPDEST SWAP4 POP PUSH3 0x297 PUSH1 0x40 DUP8 ADD PUSH3 0x236 JUMP JUMPDEST SWAP3 POP PUSH3 0x2A7 PUSH1 0x60 DUP8 ADD PUSH3 0x236 JUMP JUMPDEST SWAP2 POP PUSH3 0x2B7 PUSH1 0x80 DUP8 ADD PUSH3 0x236 JUMP JUMPDEST SWAP1 POP SWAP3 SWAP6 POP SWAP3 SWAP6 SWAP1 SWAP4 POP JUMP JUMPDEST PUSH1 0x80 MLOAD PUSH1 0xA0 MLOAD PUSH1 0xC0 MLOAD PUSH1 0xE0 MLOAD PUSH2 0x1441 PUSH3 0x351 PUSH1 0x0 CODECOPY PUSH1 0x0 DUP2 DUP2 PUSH2 0x370 ADD MSTORE DUP2 DUP2 PUSH2 0x724 ADD MSTORE DUP2 DUP2 PUSH2 0x867 ADD MSTORE DUP2 DUP2 PUSH2 0x91A ADD MSTORE DUP2 DUP2 PUSH2 0x9A8 ADD MSTORE PUSH2 0xBCC ADD MSTORE PUSH1 0x0 DUP2 DUP2 PUSH2 0x30F ADD MSTORE DUP2 DUP2 PUSH2 0xBFF ADD MSTORE DUP2 DUP2 PUSH2 0xC61 ADD MSTORE PUSH2 0xCA3 ADD MSTORE PUSH1 0x0 DUP2 DUP2 PUSH2 0x336 ADD MSTORE DUP2 DUP2 PUSH2 0x5AF ADD MSTORE PUSH2 0xA67 ADD MSTORE PUSH1 0x0 DUP2 DUP2 PUSH2 0x2BD ADD MSTORE DUP2 DUP2 PUSH2 0x7DF ADD MSTORE PUSH2 0xCF7 ADD MSTORE PUSH2 0x1441 PUSH1 0x0 RETURN INVALID PUSH1 0x80 PUSH1 0x40 MSTORE CALLVALUE DUP1 ISZERO PUSH2 0x10 JUMPI PUSH1 0x0 DUP1 REVERT JUMPDEST POP PUSH1 0x4 CALLDATASIZE LT PUSH2 0x12C JUMPI PUSH1 0x0 CALLDATALOAD PUSH1 0xE0 SHR DUP1 PUSH4 0x9B64FC3B GT PUSH2 0xAD JUMPI DUP1 PUSH4 0xCB5FF739 GT PUSH2 0x71 JUMPI DUP1 PUSH4 0xCB5FF739 EQ PUSH2 0x2F7 JUMPI DUP1 PUSH4 0xCDF456E1 EQ PUSH2 0x30A JUMPI DUP1 PUSH4 0xCE3E39C0 EQ PUSH2 0x331 JUMPI DUP1 PUSH4 0xD547741F EQ PUSH2 0x358 JUMPI DUP1 PUSH4 0xFBFA77CF EQ PUSH2 0x36B JUMPI PUSH1 0x0 DUP1 REVERT JUMPDEST DUP1 PUSH4 0x9B64FC3B EQ PUSH2 0x262 JUMPI DUP1 PUSH4 0xA217FDDF EQ PUSH2 0x28A JUMPI DUP1 PUSH4 0xA805E0F5 EQ PUSH2 0x292 JUMPI DUP1 PUSH4 0xC4D99BC2 EQ PUSH2 0x2A5 JUMPI DUP1 PUSH4 0xC97AF5E6 EQ PUSH2 0x2B8 JUMPI PUSH1 0x0 DUP1 REVERT JUMPDEST DUP1 PUSH4 0x5C975ABB GT PUSH2 0xF4 JUMPI DUP1 PUSH4 0x5C975ABB EQ PUSH2 0x1BA JUMPI DUP1 PUSH4 0x5E615A6B EQ PUSH2 0x1C5 JUMPI DUP1 PUSH4 0x6011544A EQ PUSH2 0x234 JUMPI DUP1 PUSH4 0x8456CB59 EQ PUSH2 0x247 JUMPI DUP1 PUSH4 0x91D14854 EQ PUSH2 0x24F JUMPI PUSH1 0x0 DUP1 REVERT JUMPDEST DUP1 PUSH4 0x1FFC9A7 EQ PUSH2 0x131 JUMPI DUP1 PUSH4 0x248A9CA3 EQ PUSH2 0x159 JUMPI DUP1 PUSH4 0x2F2FF15D EQ PUSH2 0x18A JUMPI DUP1 PUSH4 0x36568ABE EQ PUSH2 0x19F JUMPI DUP1 PUSH4 0x3F4BA83A EQ PUSH2 0x1B2 JUMPI JUMPDEST PUSH1 0x0 DUP1 REVERT JUMPDEST PUSH2 0x144 PUSH2 0x13F CALLDATASIZE PUSH1 0x4 PUSH2 0x1204 JUMP JUMPDEST PUSH2 0x392 JUMP JUMPDEST PUSH1 0x40 MLOAD SWAP1 ISZERO ISZERO DUP2 MSTORE PUSH1 0x20 ADD JUMPDEST PUSH1 0x40 MLOAD DUP1 SWAP2 SUB SWAP1 RETURN JUMPDEST PUSH2 0x17C PUSH2 0x167 CALLDATASIZE PUSH1 0x4 PUSH2 0x122E JUMP JUMPDEST PUSH1 0x0 SWAP1 DUP2 MSTORE PUSH1 0x20 DUP2 SWAP1 MSTORE PUSH1 0x40 SWAP1 KECCAK256 PUSH1 0x1 ADD SLOAD SWAP1 JUMP JUMPDEST PUSH1 0x40 MLOAD SWAP1 DUP2 MSTORE PUSH1 0x20 ADD PUSH2 0x150 JUMP JUMPDEST PUSH2 0x19D PUSH2 0x198 CALLDATASIZE PUSH1 0x4 PUSH2 0x1263 JUMP JUMPDEST PUSH2 0x3C9 JUMP JUMPDEST STOP JUMPDEST PUSH2 0x19D PUSH2 0x1AD CALLDATASIZE PUSH1 0x4 PUSH2 0x1263 JUMP JUMPDEST PUSH2 0x3F4 JUMP JUMPDEST PUSH2 0x19D PUSH2 0x42C JUMP JUMPDEST PUSH1 0x1 SLOAD PUSH1 0xFF AND PUSH2 0x144 JUMP JUMPDEST PUSH2 0x227 PUSH1 0x40 DUP1 MLOAD PUSH1 0x80 DUP2 ADD DUP3 MSTORE PUSH1 0x0 DUP1 DUP3 MSTORE PUSH1 0x20 DUP3 ADD DUP2 SWAP1 MSTORE SWAP2 DUP2 ADD DUP3 SWAP1 MSTORE PUSH1 0x60 DUP2 ADD SWAP2 SWAP1 SWAP2 MSTORE POP PUSH1 0x40 DUP1 MLOAD PUSH1 0x80 DUP2 ADD DUP3 MSTORE PUSH1 0x3 SLOAD DUP2 MSTORE PUSH1 0x4 SLOAD PUSH1 0x20 DUP3 ADD MSTORE PUSH1 0x5 SLOAD PUSH1 0x1 PUSH1 0x1 PUSH1 0xA0 SHL SUB SWAP1 DUP2 AND SWAP3 DUP3 ADD SWAP3 SWAP1 SWAP3 MSTORE PUSH1 0x6 SLOAD SWAP1 SWAP2 AND PUSH1 0x60 DUP3 ADD MSTORE SWAP1 JUMP JUMPDEST PUSH1 0x40 MLOAD PUSH2 0x150 SWAP2 SWAP1 PUSH2 0x128F JUMP JUMPDEST PUSH2 0x19D PUSH2 0x242 CALLDATASIZE PUSH1 0x4 PUSH2 0x12C9 JUMP JUMPDEST PUSH2 0x461 JUMP JUMPDEST PUSH2 0x19D PUSH2 0x54D JUMP JUMPDEST PUSH2 0x144 PUSH2 0x25D CALLDATASIZE PUSH1 0x4 PUSH2 0x1263 JUMP JUMPDEST PUSH2 0x57F JUMP JUMPDEST PUSH2 0x275 PUSH2 0x270 CALLDATASIZE PUSH1 0x4 PUSH2 0x122E JUMP JUMPDEST PUSH2 0x5A8 JUMP JUMPDEST PUSH1 0x40 DUP1 MLOAD SWAP3 DUP4 MSTORE PUSH1 0x20 DUP4 ADD SWAP2 SWAP1 SWAP2 MSTORE ADD PUSH2 0x150 JUMP JUMPDEST PUSH2 0x17C PUSH1 0x0 DUP2 JUMP JUMPDEST PUSH2 0x17C PUSH2 0x2A0 CALLDATASIZE PUSH1 0x4 PUSH2 0x1348 JUMP JUMPDEST PUSH2 0x69D JUMP JUMPDEST PUSH2 0x275 PUSH2 0x2B3 CALLDATASIZE PUSH1 0x4 PUSH2 0x122E JUMP JUMPDEST PUSH2 0xA60 JUMP JUMPDEST PUSH2 0x2DF PUSH32 0x0 DUP2 JUMP JUMPDEST PUSH1 0x40 MLOAD PUSH1 0x1 PUSH1 0x1 PUSH1 0xA0 SHL SUB SWAP1 SWAP2 AND DUP2 MSTORE PUSH1 0x20 ADD PUSH2 0x150 JUMP JUMPDEST PUSH2 0x17C PUSH2 0x305 CALLDATASIZE PUSH1 0x4 PUSH2 0x1348 JUMP JUMPDEST PUSH2 0xB50 JUMP JUMPDEST PUSH2 0x2DF PUSH32 0x0 DUP2 JUMP JUMPDEST PUSH2 0x2DF PUSH32 0x0 DUP2 JUMP JUMPDEST PUSH2 0x19D PUSH2 0x366 CALLDATASIZE PUSH1 0x4 PUSH2 0x1263 JUMP JUMPDEST PUSH2 0xDA1 JUMP JUMPDEST PUSH2 0x2DF PUSH32 0x0 DUP2 JUMP JUMPDEST PUSH1 0x0 PUSH1 0x1 PUSH1 0x1 PUSH1 0xE0 SHL SUB NOT DUP3 AND PUSH4 0x7965DB0B PUSH1 0xE0 SHL EQ DUP1 PUSH2 0x3C3 JUMPI POP PUSH4 0x1FFC9A7 PUSH1 0xE0 SHL PUSH1 0x1 PUSH1 0x1 PUSH1 0xE0 SHL SUB NOT DUP4 AND EQ JUMPDEST SWAP3 SWAP2 POP POP JUMP JUMPDEST PUSH1 0x0 DUP3 DUP2 MSTORE PUSH1 0x20 DUP2 SWAP1 MSTORE PUSH1 0x40 SWAP1 KECCAK256 PUSH1 0x1 ADD SLOAD PUSH2 0x3E4 DUP2 PUSH2 0xDC6 JUMP JUMPDEST PUSH2 0x3EE DUP4 DUP4 PUSH2 0xDD0 JUMP JUMPDEST POP POP POP POP JUMP JUMPDEST PUSH1 0x1 PUSH1 0x1 PUSH1 0xA0 SHL SUB DUP2 AND CALLER EQ PUSH2 0x41D JUMPI PUSH1 0x40 MLOAD PUSH4 0x334BD919 PUSH1 0xE1 SHL DUP2 MSTORE PUSH1 0x4 ADD PUSH1 0x40 MLOAD DUP1 SWAP2 SUB SWAP1 REVERT JUMPDEST PUSH2 0x427 DUP3 DUP3 PUSH2 0xE62 JUMP JUMPDEST POP POP POP JUMP JUMPDEST PUSH32 0x65D7A28E3265B37A6474929F336521B332C1681B933F6CB9F3376673440D862A PUSH2 0x456 DUP2 PUSH2 0xDC6 JUMP JUMPDEST PUSH2 0x45E PUSH2 0xECD JUMP JUMPDEST POP JUMP JUMPDEST PUSH32 0x7935BD0AE54BC31F548C14DBA4D37C5C64B3F8CA900CB468FB8ABD54D5894F55 PUSH2 0x48B DUP2 PUSH2 0xDC6 JUMP JUMPDEST DUP2 MLOAD PUSH2 0x496 SWAP1 PUSH2 0xF1F JUMP JUMPDEST PUSH2 0x4A3 DUP3 PUSH1 0x20 ADD MLOAD PUSH2 0xF1F JUMP JUMPDEST PUSH2 0x4B9 DUP3 PUSH1 0x40 ADD MLOAD PUSH1 0x1 PUSH1 0x1 PUSH1 0xA0 SHL SUB AND PUSH2 0xF6B JUMP JUMPDEST PUSH2 0x4CF DUP3 PUSH1 0x60 ADD MLOAD PUSH1 0x1 PUSH1 0x1 PUSH1 0xA0 SHL SUB AND PUSH2 0xF6B JUMP JUMPDEST DUP2 MLOAD PUSH1 0x3 SSTORE PUSH1 0x20 DUP3 ADD MLOAD PUSH1 0x4 SSTORE PUSH1 0x40 DUP1 DUP4 ADD MLOAD PUSH1 0x5 DUP1 SLOAD PUSH1 0x1 PUSH1 0x1 PUSH1 0xA0 SHL SUB SWAP3 DUP4 AND PUSH1 0x1 PUSH1 0x1 PUSH1 0xA0 SHL SUB NOT SWAP2 DUP3 AND OR SWAP1 SWAP2 SSTORE PUSH1 0x60 DUP6 ADD MLOAD PUSH1 0x6 DUP1 SLOAD SWAP2 SWAP1 SWAP4 AND SWAP2 AND OR SWAP1 SSTORE MLOAD PUSH32 0x46EF251C0EF10F7DDEA3A753076C89FADE5F9A67A24DA6D959FB68DA1CDABF68 SWAP1 PUSH2 0x541 SWAP1 DUP5 SWAP1 PUSH2 0x128F JUMP JUMPDEST PUSH1 0x40 MLOAD DUP1 SWAP2 SUB SWAP1 LOG1 POP POP JUMP JUMPDEST PUSH32 0x65D7A28E3265B37A6474929F336521B332C1681B933F6CB9F3376673440D862A PUSH2 0x577 DUP2 PUSH2 0xDC6 JUMP JUMPDEST PUSH2 0x45E PUSH2 0xFB7 JUMP JUMPDEST PUSH1 0x0 SWAP2 DUP3 MSTORE PUSH1 0x20 DUP3 DUP2 MSTORE PUSH1 0x40 DUP1 DUP5 KECCAK256 PUSH1 0x1 PUSH1 0x1 PUSH1 0xA0 SHL SUB SWAP4 SWAP1 SWAP4 AND DUP5 MSTORE SWAP2 SWAP1 MSTORE SWAP1 KECCAK256 SLOAD PUSH1 0xFF AND SWAP1 JUMP JUMPDEST PUSH1 0x0 DUP1 PUSH1 0x0 PUSH32 0x0 PUSH1 0x1 PUSH1 0x1 PUSH1 0xA0 SHL SUB AND PUSH4 0x26987B60 PUSH1 0x40 MLOAD DUP2 PUSH4 0xFFFFFFFF AND PUSH1 0xE0 SHL DUP2 MSTORE PUSH1 0x4 ADD PUSH1 0x20 PUSH1 0x40 MLOAD DUP1 DUP4 SUB DUP2 DUP7 GAS STATICCALL ISZERO DUP1 ISZERO PUSH2 0x60B JUMPI RETURNDATASIZE PUSH1 0x0 DUP1 RETURNDATACOPY RETURNDATASIZE PUSH1 0x0 REVERT JUMPDEST POP POP POP POP PUSH1 0x40 MLOAD RETURNDATASIZE PUSH1 0x1F NOT PUSH1 0x1F DUP3 ADD AND DUP3 ADD DUP1 PUSH1 0x40 MSTORE POP DUP2 ADD SWAP1 PUSH2 0x62F SWAP2 SWAP1 PUSH2 0x137D JUMP JUMPDEST SWAP1 POP PUSH1 0x0 PUSH2 0x2710 PUSH1 0x3 PUSH1 0x1 ADD SLOAD DUP4 PUSH2 0x647 SWAP2 SWAP1 PUSH2 0x13AC JUMP JUMPDEST PUSH2 0x651 SWAP2 SWAP1 PUSH2 0x13C3 JUMP JUMPDEST PUSH2 0x65B SWAP1 DUP4 PUSH2 0x13E5 JUMP JUMPDEST SWAP1 POP PUSH1 0x0 PUSH2 0x669 DUP7 DUP4 PUSH2 0xFF2 JUMP JUMPDEST PUSH1 0x3 SLOAD SWAP1 SWAP2 POP PUSH2 0x2710 SWAP1 PUSH2 0x67D SWAP1 DUP4 PUSH2 0x13AC JUMP JUMPDEST PUSH2 0x687 SWAP2 SWAP1 PUSH2 0x13C3 JUMP JUMPDEST SWAP4 POP PUSH2 0x693 DUP5 DUP3 PUSH2 0x13E5 JUMP JUMPDEST SWAP5 POP POP POP POP SWAP2 POP SWAP2 JUMP JUMPDEST PUSH1 0x0 PUSH2 0x6A7 PUSH2 0x104B JUMP JUMPDEST PUSH2 0x6AF PUSH2 0x1073 JUMP JUMPDEST DUP4 PUSH1 0x0 SUB PUSH2 0x6D0 JUMPI PUSH1 0x40 MLOAD PUSH4 0x162908E3 PUSH1 0xE1 SHL DUP2 MSTORE PUSH1 0x4 ADD PUSH1 0x40 MLOAD DUP1 SWAP2 SUB SWAP1 REVERT JUMPDEST PUSH2 0x6E2 DUP3 PUSH1 0x1 PUSH1 0x1 PUSH1 0xA0 SHL SUB AND PUSH2 0xF6B JUMP JUMPDEST PUSH1 0x0 PUSH2 0x6ED DUP6 PUSH2 0x5A8 JUMP JUMPDEST SWAP1 SWAP3 POP SWAP1 POP DUP4 DUP3 LT ISZERO PUSH2 0x713 JUMPI PUSH1 0x40 MLOAD PUSH4 0x8199F5F3 PUSH1 0xE0 SHL DUP2 MSTORE PUSH1 0x4 ADD PUSH1 0x40 MLOAD DUP1 SWAP2 SUB SWAP1 REVERT JUMPDEST PUSH1 0x0 PUSH2 0x71F DUP3 DUP5 PUSH2 0x13E5 JUMP JUMPDEST SWAP1 POP DUP1 PUSH32 0x0 PUSH1 0x1 PUSH1 0x1 PUSH1 0xA0 SHL SUB AND PUSH4 0x12065FE0 PUSH1 0x40 MLOAD DUP2 PUSH4 0xFFFFFFFF AND PUSH1 0xE0 SHL DUP2 MSTORE PUSH1 0x4 ADD PUSH1 0x20 PUSH1 0x40 MLOAD DUP1 DUP4 SUB DUP2 DUP7 GAS STATICCALL ISZERO DUP1 ISZERO PUSH2 0x780 JUMPI RETURNDATASIZE PUSH1 0x0 DUP1 RETURNDATACOPY RETURNDATASIZE PUSH1 0x0 REVERT JUMPDEST POP POP POP POP PUSH1 0x40 MLOAD RETURNDATASIZE PUSH1 0x1F NOT PUSH1 0x1F DUP3 ADD AND DUP3 ADD DUP1 PUSH1 0x40 MSTORE POP DUP2 ADD SWAP1 PUSH2 0x7A4 SWAP2 SWAP1 PUSH2 0x137D JUMP JUMPDEST LT ISZERO PUSH2 0x7C3 JUMPI PUSH1 0x40 MLOAD PUSH4 0xBB55FD27 PUSH1 0xE0 SHL DUP2 MSTORE PUSH1 0x4 ADD PUSH1 0x40 MLOAD DUP1 SWAP2 SUB SWAP1 REVERT JUMPDEST PUSH1 0x40 MLOAD PUSH4 0x79CC679 PUSH1 0xE4 SHL DUP2 MSTORE CALLER PUSH1 0x4 DUP3 ADD MSTORE PUSH1 0x24 DUP2 ADD DUP8 SWAP1 MSTORE PUSH32 0x0 PUSH1 0x1 PUSH1 0x1 PUSH1 0xA0 SHL SUB AND SWAP1 PUSH4 0x79CC6790 SWAP1 PUSH1 0x44 ADD PUSH1 0x0 PUSH1 0x40 MLOAD DUP1 DUP4 SUB DUP2 PUSH1 0x0 DUP8 DUP1 EXTCODESIZE ISZERO DUP1 ISZERO PUSH2 0x82B JUMPI PUSH1 0x0 DUP1 REVERT JUMPDEST POP GAS CALL ISZERO DUP1 ISZERO PUSH2 0x83F JUMPI RETURNDATASIZE PUSH1 0x0 DUP1 RETURNDATACOPY RETURNDATASIZE PUSH1 0x0 REVERT JUMPDEST POP POP PUSH1 0x40 MLOAD PUSH4 0xF3FEF3A3 PUSH1 0xE0 SHL DUP2 MSTORE PUSH1 0x1 PUSH1 0x1 PUSH1 0xA0 SHL SUB DUP8 DUP2 AND PUSH1 0x4 DUP4 ADD MSTORE PUSH1 0x24 DUP3 ADD DUP6 SWAP1 MSTORE PUSH32 0x0 AND SWAP3 POP PUSH4 0xF3FEF3A3 SWAP2 POP PUSH1 0x44 ADD PUSH1 0x0 PUSH1 0x40 MLOAD DUP1 DUP4 SUB DUP2 PUSH1 0x0 DUP8 DUP1 EXTCODESIZE ISZERO DUP1 ISZERO PUSH2 0x8AD JUMPI PUSH1 0x0 DUP1 REVERT JUMPDEST POP GAS CALL ISZERO DUP1 ISZERO PUSH2 0x8C1 JUMPI RETURNDATASIZE PUSH1 0x0 DUP1 RETURNDATACOPY RETURNDATASIZE PUSH1 0x0 REVERT JUMPDEST POP POP POP POP PUSH1 0x0 DUP3 GT ISZERO PUSH2 0xA0A JUMPI PUSH1 0x0 PUSH2 0x8DB PUSH1 0x2 DUP5 PUSH2 0x13C3 JUMP JUMPDEST SWAP1 POP PUSH1 0x0 PUSH2 0x8E9 DUP3 DUP6 PUSH2 0x13E5 JUMP JUMPDEST SWAP1 POP DUP2 ISZERO PUSH2 0x979 JUMPI PUSH1 0x5 SLOAD PUSH1 0x40 MLOAD PUSH4 0xF3FEF3A3 PUSH1 0xE0 SHL DUP2 MSTORE PUSH1 0x1 PUSH1 0x1 PUSH1 0xA0 SHL SUB SWAP2 DUP3 AND PUSH1 0x4 DUP3 ADD MSTORE PUSH1 0x24 DUP2 ADD DUP5 SWAP1 MSTORE PUSH32 0x0 SWAP1 SWAP2 AND SWAP1 PUSH4 0xF3FEF3A3 SWAP1 PUSH1 0x44 ADD PUSH1 0x0 PUSH1 0x40 MLOAD DUP1 DUP4 SUB DUP2 PUSH1 0x0 DUP8 DUP1 EXTCODESIZE ISZERO DUP1 ISZERO PUSH2 0x960 JUMPI PUSH1 0x0 DUP1 REVERT JUMPDEST POP GAS CALL ISZERO DUP1 ISZERO PUSH2 0x974 JUMPI RETURNDATASIZE PUSH1 0x0 DUP1 RETURNDATACOPY RETURNDATASIZE PUSH1 0x0 REVERT JUMPDEST POP POP POP POP JUMPDEST DUP1 ISZERO PUSH2 0xA07 JUMPI PUSH1 0x6 SLOAD PUSH1 0x40 MLOAD PUSH4 0xF3FEF3A3 PUSH1 0xE0 SHL DUP2 MSTORE PUSH1 0x1 PUSH1 0x1 PUSH1 0xA0 SHL SUB SWAP2 DUP3 AND PUSH1 0x4 DUP3 ADD MSTORE PUSH1 0x24 DUP2 ADD DUP4 SWAP1 MSTORE PUSH32 0x0 SWAP1 SWAP2 AND SWAP1 PUSH4 0xF3FEF3A3 SWAP1 PUSH1 0x44 ADD PUSH1 0x0 PUSH1 0x40 MLOAD DUP1 DUP4 SUB DUP2 PUSH1 0x0 DUP8 DUP1 EXTCODESIZE ISZERO DUP1 ISZERO PUSH2 0x9EE JUMPI PUSH1 0x0 DUP1 REVERT JUMPDEST POP GAS CALL ISZERO DUP1 ISZERO PUSH2 0xA02 JUMPI RETURNDATASIZE PUSH1 0x0 DUP1 RETURNDATACOPY RETURNDATASIZE PUSH1 0x0 REVERT JUMPDEST POP POP POP POP JUMPDEST POP POP JUMPDEST PUSH1 0x40 DUP1 MLOAD DUP8 DUP2 MSTORE PUSH1 0x20 DUP2 ADD DUP6 SWAP1 MSTORE SWAP1 DUP2 ADD DUP4 SWAP1 MSTORE CALLER SWAP1 PUSH32 0xC5BB42EB8F717E0D9A9C590214247246F8E74AC766178692D81B3EE05904C78D SWAP1 PUSH1 0x60 ADD PUSH1 0x40 MLOAD DUP1 SWAP2 SUB SWAP1 LOG2 POP POP PUSH2 0xA59 PUSH1 0x1 PUSH1 0x2 SSTORE JUMP JUMPDEST SWAP4 SWAP3 POP POP POP JUMP JUMPDEST PUSH1 0x0 DUP1 PUSH1 0x0 PUSH32 0x0 PUSH1 0x1 PUSH1 0x1 PUSH1 0xA0 SHL SUB AND PUSH4 0x26987B60 PUSH1 0x40 MLOAD DUP2 PUSH4 0xFFFFFFFF AND PUSH1 0xE0 SHL DUP2 MSTORE PUSH1 0x4 ADD PUSH1 0x20 PUSH1 0x40 MLOAD DUP1 DUP4 SUB DUP2 DUP7 GAS STATICCALL ISZERO DUP1 ISZERO PUSH2 0xAC3 JUMPI RETURNDATASIZE PUSH1 0x0 DUP1 RETURNDATACOPY RETURNDATASIZE PUSH1 0x0 REVERT JUMPDEST POP POP POP POP PUSH1 0x40 MLOAD RETURNDATASIZE PUSH1 0x1F NOT PUSH1 0x1F DUP3 ADD AND DUP3 ADD DUP1 PUSH1 0x40 MSTORE POP DUP2 ADD SWAP1 PUSH2 0xAE7 SWAP2 SWAP1 PUSH2 0x137D JUMP JUMPDEST PUSH1 0x3 SLOAD SWAP1 SWAP2 POP PUSH2 0x2710 SWAP1 PUSH2 0xAFB SWAP1 DUP7 PUSH2 0x13AC JUMP JUMPDEST PUSH2 0xB05 SWAP2 SWAP1 PUSH2 0x13C3 JUMP JUMPDEST SWAP2 POP PUSH1 0x0 PUSH2 0x2710 PUSH1 0x3 PUSH1 0x1 ADD SLOAD DUP4 PUSH2 0xB1D SWAP2 SWAP1 PUSH2 0x13AC JUMP JUMPDEST PUSH2 0xB27 SWAP2 SWAP1 PUSH2 0x13C3 JUMP JUMPDEST PUSH2 0xB31 SWAP1 DUP4 PUSH2 0x13F8 JUMP JUMPDEST SWAP1 POP PUSH2 0xB47 DUP2 PUSH2 0xB41 DUP6 DUP9 PUSH2 0x13E5 JUMP JUMPDEST SWAP1 PUSH2 0x1099 JUMP JUMPDEST SWAP4 POP POP POP SWAP2 POP SWAP2 JUMP JUMPDEST PUSH1 0x0 PUSH2 0xB5A PUSH2 0x104B JUMP JUMPDEST PUSH2 0xB62 PUSH2 0x1073 JUMP JUMPDEST DUP4 PUSH1 0x0 SUB PUSH2 0xB83 JUMPI PUSH1 0x40 MLOAD PUSH4 0x162908E3 PUSH1 0xE1 SHL DUP2 MSTORE PUSH1 0x4 ADD PUSH1 0x40 MLOAD DUP1 SWAP2 SUB SWAP1 REVERT JUMPDEST PUSH2 0xB95 DUP3 PUSH1 0x1 PUSH1 0x1 PUSH1 0xA0 SHL SUB AND PUSH2 0xF6B JUMP JUMPDEST PUSH1 0x0 PUSH2 0xBA0 DUP6 PUSH2 0xA60 JUMP JUMPDEST SWAP1 SWAP3 POP SWAP1 POP DUP4 DUP3 LT ISZERO PUSH2 0xBC6 JUMPI PUSH1 0x40 MLOAD PUSH4 0x8199F5F3 PUSH1 0xE0 SHL DUP2 MSTORE PUSH1 0x4 ADD PUSH1 0x40 MLOAD DUP1 SWAP2 SUB SWAP1 REVERT JUMPDEST PUSH2 0xC27 CALLER PUSH32 0x0 PUSH2 0xBF5 DUP5 DUP10 PUSH2 0x13E5 JUMP JUMPDEST PUSH1 0x1 PUSH1 0x1 PUSH1 0xA0 SHL SUB PUSH32 0x0 AND SWAP3 SWAP2 SWAP1 PUSH2 0x10D9 JUMP JUMPDEST DUP1 ISZERO PUSH2 0xCD1 JUMPI PUSH1 0x0 PUSH2 0xC3A PUSH1 0x2 DUP4 PUSH2 0x13C3 JUMP JUMPDEST SWAP1 POP PUSH1 0x0 PUSH2 0xC48 DUP3 DUP5 PUSH2 0x13E5 JUMP JUMPDEST SWAP1 POP DUP2 ISZERO PUSH2 0xC8C JUMPI PUSH1 0x5 SLOAD PUSH2 0xC8C SWAP1 PUSH1 0x1 PUSH1 0x1 PUSH1 0xA0 SHL SUB PUSH32 0x0 DUP2 AND SWAP2 CALLER SWAP2 AND DUP6 PUSH2 0x10D9 JUMP JUMPDEST DUP1 ISZERO PUSH2 0xCCE JUMPI PUSH1 0x6 SLOAD PUSH2 0xCCE SWAP1 PUSH1 0x1 PUSH1 0x1 PUSH1 0xA0 SHL SUB PUSH32 0x0 DUP2 AND SWAP2 CALLER SWAP2 AND DUP5 PUSH2 0x10D9 JUMP JUMPDEST POP POP JUMPDEST PUSH1 0x40 MLOAD PUSH4 0x40C10F19 PUSH1 0xE0 SHL DUP2 MSTORE PUSH1 0x1 PUSH1 0x1 PUSH1 0xA0 SHL SUB DUP5 DUP2 AND PUSH1 0x4 DUP4 ADD MSTORE PUSH1 0x24 DUP3 ADD DUP5 SWAP1 MSTORE PUSH32 0x0 AND SWAP1 PUSH4 0x40C10F19 SWAP1 PUSH1 0x44 ADD PUSH1 0x0 PUSH1 0x40 MLOAD DUP1 DUP4 SUB DUP2 PUSH1 0x0 DUP8 DUP1 EXTCODESIZE ISZERO DUP1 ISZERO PUSH2 0xD3B JUMPI PUSH1 0x0 DUP1 REVERT JUMPDEST POP GAS CALL ISZERO DUP1 ISZERO PUSH2 0xD4F JUMPI RETURNDATASIZE PUSH1 0x0 DUP1 RETURNDATACOPY RETURNDATASIZE PUSH1 0x0 REVERT JUMPDEST POP POP PUSH1 0x40 DUP1 MLOAD DUP9 DUP2 MSTORE PUSH1 0x20 DUP2 ADD DUP7 SWAP1 MSTORE SWAP1 DUP2 ADD DUP5 SWAP1 MSTORE CALLER SWAP3 POP PUSH32 0x66FA0FB2E1329E637CAFDC009A8452680C58C0D101AE4C60E2152BC93F7BE603 SWAP2 POP PUSH1 0x60 ADD PUSH1 0x40 MLOAD DUP1 SWAP2 SUB SWAP1 LOG2 POP PUSH2 0xA59 PUSH1 0x1 PUSH1 0x2 SSTORE JUMP JUMPDEST PUSH1 0x0 DUP3 DUP2 MSTORE PUSH1 0x20 DUP2 SWAP1 MSTORE PUSH1 0x40 SWAP1 KECCAK256 PUSH1 0x1 ADD SLOAD PUSH2 0xDBC DUP2 PUSH2 0xDC6 JUMP JUMPDEST PUSH2 0x3EE DUP4 DUP4 PUSH2 0xE62 JUMP JUMPDEST PUSH2 0x45E DUP2 CALLER PUSH2 0x1133 JUMP JUMPDEST PUSH1 0x0 PUSH2 0xDDC DUP4 DUP4 PUSH2 0x57F JUMP JUMPDEST PUSH2 0xE5A JUMPI PUSH1 0x0 DUP4 DUP2 MSTORE PUSH1 0x20 DUP2 DUP2 MSTORE PUSH1 0x40 DUP1 DUP4 KECCAK256 PUSH1 0x1 PUSH1 0x1 PUSH1 0xA0 SHL SUB DUP7 AND DUP5 MSTORE SWAP1 SWAP2 MSTORE SWAP1 KECCAK256 DUP1 SLOAD PUSH1 0xFF NOT AND PUSH1 0x1 OR SWAP1 SSTORE PUSH2 0xE12 CALLER SWAP1 JUMP JUMPDEST PUSH1 0x1 PUSH1 0x1 PUSH1 0xA0 SHL SUB AND DUP3 PUSH1 0x1 PUSH1 0x1 PUSH1 0xA0 SHL SUB AND DUP5 PUSH32 0x2F8788117E7EFF1D82E926EC794901D17C78024A50270940304540A733656F0D PUSH1 0x40 MLOAD PUSH1 0x40 MLOAD DUP1 SWAP2 SUB SWAP1 LOG4 POP PUSH1 0x1 PUSH2 0x3C3 JUMP JUMPDEST POP PUSH1 0x0 PUSH2 0x3C3 JUMP JUMPDEST PUSH1 0x0 PUSH2 0xE6E DUP4 DUP4 PUSH2 0x57F JUMP JUMPDEST ISZERO PUSH2 0xE5A JUMPI PUSH1 0x0 DUP4 DUP2 MSTORE PUSH1 0x20 DUP2 DUP2 MSTORE PUSH1 0x40 DUP1 DUP4 KECCAK256 PUSH1 0x1 PUSH1 0x1 PUSH1 0xA0 SHL SUB DUP7 AND DUP1 DUP6 MSTORE SWAP3 MSTORE DUP1 DUP4 KECCAK256 DUP1 SLOAD PUSH1 0xFF NOT AND SWAP1 SSTORE MLOAD CALLER SWAP3 DUP7 SWAP2 PUSH32 0xF6391F5C32D9C69D2A47EA670B442974B53935D1EDC7FD64EB21E047A839171B SWAP2 SWAP1 LOG4 POP PUSH1 0x1 PUSH2 0x3C3 JUMP JUMPDEST PUSH2 0xED5 PUSH2 0x1170 JUMP JUMPDEST PUSH1 0x1 DUP1 SLOAD PUSH1 0xFF NOT AND SWAP1 SSTORE PUSH32 0x5DB9EE0A495BF2E6FF9C91A7834C1BA4FDD244A5E8AA4E537BD38AEAE4B073AA CALLER JUMPDEST PUSH1 0x40 MLOAD PUSH1 0x1 PUSH1 0x1 PUSH1 0xA0 SHL SUB SWAP1 SWAP2 AND DUP2 MSTORE PUSH1 0x20 ADD PUSH1 0x40 MLOAD DUP1 SWAP2 SUB SWAP1 LOG1 JUMP JUMPDEST PUSH2 0x2710 DUP2 GT ISZERO PUSH2 0x45E JUMPI PUSH1 0x40 MLOAD PUSH3 0x461BCD PUSH1 0xE5 SHL DUP2 MSTORE PUSH1 0x20 PUSH1 0x4 DUP3 ADD MSTORE PUSH1 0x12 PUSH1 0x24 DUP3 ADD MSTORE PUSH18 0x526F6C65733A20496E76616C696420425053 PUSH1 0x70 SHL PUSH1 0x44 DUP3 ADD MSTORE PUSH1 0x64 ADD JUMPDEST PUSH1 0x40 MLOAD DUP1 SWAP2 SUB SWAP1 REVERT JUMPDEST PUSH1 0x1 PUSH1 0x1 PUSH1 0xA0 SHL SUB DUP2 AND PUSH2 0x45E JUMPI PUSH1 0x40 MLOAD PUSH3 0x461BCD PUSH1 0xE5 SHL DUP2 MSTORE PUSH1 0x20 PUSH1 0x4 DUP3 ADD MSTORE PUSH1 0x13 PUSH1 0x24 DUP3 ADD MSTORE PUSH19 0x526F6C65733A205A65726F2061646472657373 PUSH1 0x68 SHL PUSH1 0x44 DUP3 ADD MSTORE PUSH1 0x64 ADD PUSH2 0xF62 JUMP JUMPDEST PUSH2 0xFBF PUSH2 0x1073 JUMP JUMPDEST PUSH1 0x1 DUP1 SLOAD PUSH1 0xFF NOT AND DUP2 OR SWAP1 SSTORE PUSH32 0x62E78CEA01BEE320CD4E420270B5EA74000D11B0C9F74754EBDBFC544B05A258 CALLER PUSH2 0xF02 JUMP JUMPDEST PUSH1 0x0 DUP3 PUSH1 0x0 SUB PUSH2 0x1004 JUMPI POP PUSH1 0x0 PUSH2 0x3C3 JUMP JUMPDEST PUSH2 0x100E DUP3 DUP5 PUSH2 0x13AC JUMP JUMPDEST SWAP1 POP DUP2 PUSH2 0x101B DUP5 DUP4 PUSH2 0x13C3 JUMP JUMPDEST EQ PUSH2 0x1039 JUMPI PUSH1 0x40 MLOAD PUSH4 0x4EAB2EA7 PUSH1 0xE1 SHL DUP2 MSTORE PUSH1 0x4 ADD PUSH1 0x40 MLOAD DUP1 SWAP2 SUB SWAP1 REVERT JUMPDEST PUSH2 0xA59 PUSH8 0xDE0B6B3A7640000 DUP3 PUSH2 0x13C3 JUMP JUMPDEST PUSH1 0x2 DUP1 SLOAD SUB PUSH2 0x106D JUMPI PUSH1 0x40 MLOAD PUSH4 0x3EE5AEB5 PUSH1 0xE0 SHL DUP2 MSTORE PUSH1 0x4 ADD PUSH1 0x40 MLOAD DUP1 SWAP2 SUB SWAP1 REVERT JUMPDEST PUSH1 0x2 DUP1 SSTORE JUMP JUMPDEST PUSH1 0x1 SLOAD PUSH1 0xFF AND ISZERO PUSH2 0x1097 JUMPI PUSH1 0x40 MLOAD PUSH4 0xD93C0665 PUSH1 0xE0 SHL DUP2 MSTORE PUSH1 0x4 ADD PUSH1 0x40 MLOAD DUP1 SWAP2 SUB SWAP1 REVERT JUMPDEST JUMP JUMPDEST PUSH1 0x0 DUP2 PUSH1 0x0 SUB PUSH2 0x10BC JUMPI PUSH1 0x40 MLOAD PUSH4 0x23D359A3 PUSH1 0xE0 SHL DUP2 MSTORE PUSH1 0x4 ADD PUSH1 0x40 MLOAD DUP1 SWAP2 SUB SWAP1 REVERT JUMPDEST DUP2 PUSH2 0x10CF PUSH8 0xDE0B6B3A7640000 DUP6 PUSH2 0x13AC JUMP JUMPDEST PUSH2 0xA59 SWAP2 SWAP1 PUSH2 0x13C3 JUMP JUMPDEST PUSH1 0x40 DUP1 MLOAD PUSH1 0x1 PUSH1 0x1 PUSH1 0xA0 SHL SUB DUP6 DUP2 AND PUSH1 0x24 DUP4 ADD MSTORE DUP5 AND PUSH1 0x44 DUP3 ADD MSTORE PUSH1 0x64 DUP1 DUP3 ADD DUP5 SWAP1 MSTORE DUP3 MLOAD DUP1 DUP4 SUB SWAP1 SWAP2 ADD DUP2 MSTORE PUSH1 0x84 SWAP1 SWAP2 ADD SWAP1 SWAP2 MSTORE PUSH1 0x20 DUP2 ADD DUP1 MLOAD PUSH1 0x1 PUSH1 0x1 PUSH1 0xE0 SHL SUB AND PUSH4 0x23B872DD PUSH1 0xE0 SHL OR SWAP1 MSTORE PUSH2 0x3EE SWAP1 DUP6 SWAP1 PUSH2 0x1193 JUMP JUMPDEST PUSH2 0x113D DUP3 DUP3 PUSH2 0x57F JUMP JUMPDEST PUSH2 0x116C JUMPI PUSH1 0x40 MLOAD PUSH4 0xE2517D3F PUSH1 0xE0 SHL DUP2 MSTORE PUSH1 0x1 PUSH1 0x1 PUSH1 0xA0 SHL SUB DUP3 AND PUSH1 0x4 DUP3 ADD MSTORE PUSH1 0x24 DUP2 ADD DUP4 SWAP1 MSTORE PUSH1 0x44 ADD PUSH2 0xF62 JUMP JUMPDEST POP POP JUMP JUMPDEST PUSH1 0x1 SLOAD PUSH1 0xFF AND PUSH2 0x1097 JUMPI PUSH1 0x40 MLOAD PUSH4 0x8DFC202B PUSH1 0xE0 SHL DUP2 MSTORE PUSH1 0x4 ADD PUSH1 0x40 MLOAD DUP1 SWAP2 SUB SWAP1 REVERT JUMPDEST PUSH1 0x0 DUP1 PUSH1 0x20 PUSH1 0x0 DUP5 MLOAD PUSH1 0x20 DUP7 ADD PUSH1 0x0 DUP9 GAS CALL DUP1 PUSH2 0x11B6 JUMPI PUSH1 0x40 MLOAD RETURNDATASIZE PUSH1 0x0 DUP3 RETURNDATACOPY RETURNDATASIZE DUP2 REVERT JUMPDEST POP POP PUSH1 0x0 MLOAD RETURNDATASIZE SWAP2 POP DUP2 ISZERO PUSH2 0x11CE JUMPI DUP1 PUSH1 0x1 EQ ISZERO PUSH2 0x11DB JUMP JUMPDEST PUSH1 0x1 PUSH1 0x1 PUSH1 0xA0 SHL SUB DUP5 AND EXTCODESIZE ISZERO JUMPDEST ISZERO PUSH2 0x3EE JUMPI PUSH1 0x40 MLOAD PUSH4 0x5274AFE7 PUSH1 0xE0 SHL DUP2 MSTORE PUSH1 0x1 PUSH1 0x1 PUSH1 0xA0 SHL SUB DUP6 AND PUSH1 0x4 DUP3 ADD MSTORE PUSH1 0x24 ADD PUSH2 0xF62 JUMP JUMPDEST PUSH1 0x0 PUSH1 0x20 DUP3 DUP5 SUB SLT ISZERO PUSH2 0x1216 JUMPI PUSH1 0x0 DUP1 REVERT JUMPDEST DUP2 CALLDATALOAD PUSH1 0x1 PUSH1 0x1 PUSH1 0xE0 SHL SUB NOT DUP2 AND DUP2 EQ PUSH2 0xA59 JUMPI PUSH1 0x0 DUP1 REVERT JUMPDEST PUSH1 0x0 PUSH1 0x20 DUP3 DUP5 SUB SLT ISZERO PUSH2 0x1240 JUMPI PUSH1 0x0 DUP1 REVERT JUMPDEST POP CALLDATALOAD SWAP2 SWAP1 POP JUMP JUMPDEST DUP1 CALLDATALOAD PUSH1 0x1 PUSH1 0x1 PUSH1 0xA0 SHL SUB DUP2 AND DUP2 EQ PUSH2 0x125E JUMPI PUSH1 0x0 DUP1 REVERT JUMPDEST SWAP2 SWAP1 POP JUMP JUMPDEST PUSH1 0x0 DUP1 PUSH1 0x40 DUP4 DUP6 SUB SLT ISZERO PUSH2 0x1276 JUMPI PUSH1 0x0 DUP1 REVERT JUMPDEST DUP3 CALLDATALOAD SWAP2 POP PUSH2 0x1286 PUSH1 0x20 DUP5 ADD PUSH2 0x1247 JUMP JUMPDEST SWAP1 POP SWAP3 POP SWAP3 SWAP1 POP JUMP JUMPDEST DUP2 MLOAD DUP2 MSTORE PUSH1 0x20 DUP1 DUP4 ADD MLOAD SWAP1 DUP3 ADD MSTORE PUSH1 0x40 DUP1 DUP4 ADD MLOAD PUSH1 0x1 PUSH1 0x1 PUSH1 0xA0 SHL SUB SWAP1 DUP2 AND SWAP2 DUP4 ADD SWAP2 SWAP1 SWAP2 MSTORE PUSH1 0x60 SWAP3 DUP4 ADD MLOAD AND SWAP2 DUP2 ADD SWAP2 SWAP1 SWAP2 MSTORE PUSH1 0x80 ADD SWAP1 JUMP JUMPDEST PUSH1 0x0 PUSH1 0x80 DUP3 DUP5 SUB SLT ISZERO PUSH2 0x12DB JUMPI PUSH1 0x0 DUP1 REVERT JUMPDEST PUSH1 0x40 MLOAD PUSH1 0x80 DUP2 ADD DUP2 DUP2 LT PUSH8 0xFFFFFFFFFFFFFFFF DUP3 GT OR ISZERO PUSH2 0x130C JUMPI PUSH4 0x4E487B71 PUSH1 0xE0 SHL PUSH1 0x0 MSTORE PUSH1 0x41 PUSH1 0x4 MSTORE PUSH1 0x24 PUSH1 0x0 REVERT JUMPDEST DUP1 PUSH1 0x40 MSTORE POP DUP3 CALLDATALOAD DUP2 MSTORE PUSH1 0x20 DUP4 ADD CALLDATALOAD PUSH1 0x20 DUP3 ADD MSTORE PUSH2 0x132B PUSH1 0x40 DUP5 ADD PUSH2 0x1247 JUMP JUMPDEST PUSH1 0x40 DUP3 ADD MSTORE PUSH2 0x133C PUSH1 0x60 DUP5 ADD PUSH2 0x1247 JUMP JUMPDEST PUSH1 0x60 DUP3 ADD MSTORE SWAP4 SWAP3 POP POP POP JUMP JUMPDEST PUSH1 0x0 DUP1 PUSH1 0x0 PUSH1 0x60 DUP5 DUP7 SUB SLT ISZERO PUSH2 0x135D JUMPI PUSH1 0x0 DUP1 REVERT JUMPDEST DUP4 CALLDATALOAD SWAP3 POP PUSH1 0x20 DUP5 ADD CALLDATALOAD SWAP2 POP PUSH2 0x1374 PUSH1 0x40 DUP6 ADD PUSH2 0x1247 JUMP JUMPDEST SWAP1 POP SWAP3 POP SWAP3 POP SWAP3 JUMP JUMPDEST PUSH1 0x0 PUSH1 0x20 DUP3 DUP5 SUB SLT ISZERO PUSH2 0x138F JUMPI PUSH1 0x0 DUP1 REVERT JUMPDEST POP MLOAD SWAP2 SWAP1 POP JUMP JUMPDEST PUSH4 0x4E487B71 PUSH1 0xE0 SHL PUSH1 0x0 MSTORE PUSH1 0x11 PUSH1 0x4 MSTORE PUSH1 0x24 PUSH1 0x0 REVERT JUMPDEST DUP1 DUP3 MUL DUP2 ISZERO DUP3 DUP3 DIV DUP5 EQ OR PUSH2 0x3C3 JUMPI PUSH2 0x3C3 PUSH2 0x1396 JUMP JUMPDEST PUSH1 0x0 DUP3 PUSH2 0x13E0 JUMPI PUSH4 0x4E487B71 PUSH1 0xE0 SHL PUSH1 0x0 MSTORE PUSH1 0x12 PUSH1 0x4 MSTORE PUSH1 0x24 PUSH1 0x0 REVERT JUMPDEST POP DIV SWAP1 JUMP JUMPDEST DUP2 DUP2 SUB DUP2 DUP2 GT ISZERO PUSH2 0x3C3 JUMPI PUSH2 0x3C3 PUSH2 0x1396 JUMP JUMPDEST DUP1 DUP3 ADD DUP1 DUP3 GT ISZERO PUSH2 0x3C3 JUMPI PUSH2 0x3C3 PUSH2 0x1396 JUMP INVALID LOG2 PUSH5 0x6970667358 0x22 SLT KECCAK256 0x2F PUSH20 0x18371547B7B970E7FFABF602400E717FB444961F SWAP12 0xD4 0xD8 0xC4 PREVRANDAO 0xBA 0xE PUSH31 0x1FC564736F6C63430008180033000000000000000000000000000000000000 "
        },
        "methodIdentifiers": {
          "DEFAULT_ADMIN_ROLE()": "a217fddf",
          "avgxToken()": "c97af5e6",
          "baseAsset()": "cdf456e1",
          "calculator()": "ce3e39c0",
          "getParams()": "5e615a6b",
          "getQuoteMint(uint256)": "c4d99bc2",
          "getQuoteRedeem(uint256)": "9b64fc3b",
          "getRoleAdmin(bytes32)": "248a9ca3",
          "grantRole(bytes32,address)": "2f2ff15d",
          "hasRole(bytes32,address)": "91d14854",
          "mintWithBase(uint256,uint256,address)": "cb5ff739",
          "pause()": "8456cb59",
          "paused()": "5c975abb",
          "redeemForBase(uint256,uint256,address)": "a805e0f5",
          "renounceRole(bytes32,address)": "36568abe",
          "revokeRole(bytes32,address)": "d547741f",
          "supportsInterface(bytes4)": "01ffc9a7",
          "unpause()": "3f4ba83a",
          "updateParams((uint256,uint256,address,address))": "6011544a",
          "vault()": "fbfa77cf"
        }
      },
      "storageLayout": {
        "storage": [
          {
            "astId": 27,
            "contract": "src/AVGXAMM.sol:AVGXAMM",
            "label": "_roles",
            "offset": 0,
            "slot": "0",
            "type": "t_mapping(t_bytes32,t_struct(RoleData)22_storage)"
          },
          {
            "astId": 1169,
            "contract": "src/AVGXAMM.sol:AVGXAMM",
            "label": "_paused",
            "offset": 0,
            "slot": "1",
            "type": "t_bool"
          },
          {
            "astId": 1279,
            "contract": "src/AVGXAMM.sol:AVGXAMM",
            "label": "_status",
            "offset": 0,
            "slot": "2",
            "type": "t_uint256"
          },
          {
            "astId": 1434,
            "contract": "src/AVGXAMM.sol:AVGXAMM",
            "label": "_params",
            "offset": 0,
            "slot": "3",
            "type": "t_struct(AMMParams)2854_storage"
          }
        ],
        "types": {
          "t_address": {
            "encoding": "inplace",
            "label": "address",
            "numberOfBytes": "20"
          },
          "t_bool": {
            "encoding": "inplace",
            "label": "bool",
            "numberOfBytes": "1"
          },
          "t_bytes32": {
            "encoding": "inplace",
            "label": "bytes32",
            "numberOfBytes": "32"
          },
          "t_mapping(t_address,t_bool)": {
            "encoding": "mapping",
            "key": "t_address",
            "label": "mapping(address => bool)",
            "numberOfBytes": "32",
            "value": "t_bool"
          },
          "t_mapping(t_bytes32,t_struct(RoleData)22_storage)": {
            "encoding": "mapping",
            "key": "t_bytes32",
            "label": "mapping(bytes32 => struct AccessControl.RoleData)",
            "numberOfBytes": "32",
            "value": "t_struct(RoleData)22_storage"
          },
          "t_struct(AMMParams)2854_storage": {
            "encoding": "inplace",
            "label": "struct IAVGXAMM.AMMParams",
            "members": [
              {
                "astId": 2847,
                "contract": "src/AVGXAMM.sol:AVGXAMM",
                "label": "feeBps",
                "offset": 0,
                "slot": "0",
                "type": "t_uint256"
              },
              {
                "astId": 2849,
                "contract": "src/AVGXAMM.sol:AVGXAMM",
                "label": "spreadBps",
                "offset": 0,
                "slot": "1",
                "type": "t_uint256"
              },
              {
                "astId": 2851,
                "contract": "src/AVGXAMM.sol:AVGXAMM",
                "label": "feeRecipient",
                "offset": 0,
                "slot": "2",
                "type": "t_address"
              },
              {
                "astId": 2853,
                "contract": "src/AVGXAMM.sol:AVGXAMM",
                "label": "treasury",
                "offset": 0,
                "slot": "3",
                "type": "t_address"
              }
            ],
            "numberOfBytes": "128"
          },
          "t_struct(RoleData)22_storage": {
            "encoding": "inplace",
            "label": "struct AccessControl.RoleData",
            "members": [
              {
                "astId": 19,
                "contract": "src/AVGXAMM.sol:AVGXAMM",
                "label": "hasRole",
                "offset": 0,
                "slot": "0",
                "type": "t_mapping(t_address,t_bool)"
              },
              {
                "astId": 21,
                "contract": "src/AVGXAMM.sol:AVGXAMM",
                "label": "adminRole",
                "offset": 0,
                "slot": "1",
                "type": "t_bytes32"
              }
            ],
            "numberOfBytes": "64"
          },
          "t_uint256": {
            "encoding": "inplace",
            "label": "uint256",
            "numberOfBytes": "32"
          }
        }
      }
    }
  }
}